{
  "_format": "hh-sol-artifact-1",
  "contractName": "Forge",
  "sourceName": "contracts/Forge.sol",
  "abi": [
    {
      "inputs": [
        {
          "internalType": "address",
          "name": "_item",
          "type": "address"
        }
      ],
      "stateMutability": "nonpayable",
      "type": "constructor"
    },
    {
      "inputs": [
        {
          "internalType": "uint256",
          "name": "remainingSeconds",
          "type": "uint256"
        }
      ],
      "name": "AddressOnMintCooldown",
      "type": "error"
    },
    {
      "inputs": [],
      "name": "NotOwnerOfToken",
      "type": "error"
    },
    {
      "inputs": [],
      "name": "TokenCannotBeBurned",
      "type": "error"
    },
    {
      "inputs": [],
      "name": "TokenIdCannotBeMinted",
      "type": "error"
    },
    {
      "inputs": [],
      "name": "TokensCannotBeForged",
      "type": "error"
    },
    {
      "inputs": [],
      "name": "MINT_COOLDOWN",
      "outputs": [
        {
          "internalType": "uint256",
          "name": "",
          "type": "uint256"
        }
      ],
      "stateMutability": "view",
      "type": "function"
    },
    {
      "inputs": [
        {
          "internalType": "uint256",
          "name": "_tokenId",
          "type": "uint256"
        }
      ],
      "name": "burnOne",
      "outputs": [],
      "stateMutability": "nonpayable",
      "type": "function"
    },
    {
      "inputs": [
        {
          "internalType": "uint256",
          "name": "_tokenId1",
          "type": "uint256"
        },
        {
          "internalType": "uint256",
          "name": "_tokenId2",
          "type": "uint256"
        },
        {
          "internalType": "uint256",
          "name": "_tokenId3",
          "type": "uint256"
        }
      ],
      "name": "forgeThree",
      "outputs": [],
      "stateMutability": "nonpayable",
      "type": "function"
    },
    {
      "inputs": [
        {
          "internalType": "uint256",
          "name": "_tokenId1",
          "type": "uint256"
        },
        {
          "internalType": "uint256",
          "name": "_tokenId2",
          "type": "uint256"
        }
      ],
      "name": "forgeTwo",
      "outputs": [],
      "stateMutability": "nonpayable",
      "type": "function"
    },
    {
      "inputs": [],
      "name": "item",
      "outputs": [
        {
          "internalType": "contract Item",
          "name": "",
          "type": "address"
        }
      ],
      "stateMutability": "view",
      "type": "function"
    },
    {
      "inputs": [
        {
          "internalType": "address",
          "name": "",
          "type": "address"
        }
      ],
      "name": "lastMint",
      "outputs": [
        {
          "internalType": "uint256",
          "name": "",
          "type": "uint256"
        }
      ],
      "stateMutability": "view",
      "type": "function"
    },
    {
      "inputs": [
        {
          "internalType": "uint256",
          "name": "_tokenId",
          "type": "uint256"
        }
      ],
      "name": "mint",
      "outputs": [],
      "stateMutability": "nonpayable",
      "type": "function"
    }
  ],
  "bytecode": "0x60a06040523480156200001157600080fd5b50604051620010e2380380620010e28339818101604052810190620000379190620000dc565b8073ffffffffffffffffffffffffffffffffffffffff1660808173ffffffffffffffffffffffffffffffffffffffff1681525050506200010e565b600080fd5b600073ffffffffffffffffffffffffffffffffffffffff82169050919050565b6000620000a48262000077565b9050919050565b620000b68162000097565b8114620000c257600080fd5b50565b600081519050620000d681620000ab565b92915050565b600060208284031215620000f557620000f462000072565b5b60006200010584828501620000c5565b91505092915050565b608051610f72620001706000396000818161018401528181610228015281816102e801528181610358015281816103e60152818161047601528181610506015281816107a601528181610833015281816108c3015261097f0152610f726000f3fe608060405234801561001057600080fd5b506004361061007d5760003560e01c8063adc20b1c1161005b578063adc20b1c146100d6578063b15220aa14610106578063f2a4a82e14610122578063f7ee7a43146101405761007d565b8063138f5c19146100825780634bba389d1461009e578063a0712d68146100ba575b600080fd5b61009c60048036038101906100979190610b3d565b61015e565b005b6100b860048036038101906100b39190610b90565b610179565b005b6100d460048036038101906100cf9190610b90565b610215565b005b6100f060048036038101906100eb9190610c1b565b6102b6565b6040516100fd9190610c57565b60405180910390f35b610120600480360381019061011b9190610c72565b6102ce565b005b61012a6102e6565b6040516101379190610d11565b60405180910390f35b61014861030a565b6040516101559190610c57565b60405180910390f35b61016983838361030f565b610174838383610356565b505050565b61018281610599565b7f000000000000000000000000000000000000000000000000000000000000000073ffffffffffffffffffffffffffffffffffffffff1663f5298aca338360016040518463ffffffff1660e01b81526004016101e093929190610d76565b600060405180830381600087803b1580156101fa57600080fd5b505af115801561020e573d6000803e3d6000fd5b5050505050565b61021e816105ed565b61022661062b565b7f000000000000000000000000000000000000000000000000000000000000000073ffffffffffffffffffffffffffffffffffffffff166394bf804d82336040518363ffffffff1660e01b8152600401610281929190610dad565b600060405180830381600087803b15801561029b57600080fd5b505af11580156102af573d6000803e3d6000fd5b5050505050565b60006020528060005260406000206000915090505481565b6102d88282610751565b6102e28282610796565b5050565b7f000000000000000000000000000000000000000000000000000000000000000081565b603c81565b61031a838383610956565b15610351576040517fb1bf621e00000000000000000000000000000000000000000000000000000000815260040160405180910390fd5b505050565b7f000000000000000000000000000000000000000000000000000000000000000073ffffffffffffffffffffffffffffffffffffffff166394bf804d6006336040518363ffffffff1660e01b81526004016103b2929190610e11565b600060405180830381600087803b1580156103cc57600080fd5b505af11580156103e0573d6000803e3d6000fd5b505050507f000000000000000000000000000000000000000000000000000000000000000073ffffffffffffffffffffffffffffffffffffffff1663f5298aca338560016040518463ffffffff1660e01b815260040161044293929190610d76565b600060405180830381600087803b15801561045c57600080fd5b505af1158015610470573d6000803e3d6000fd5b505050507f000000000000000000000000000000000000000000000000000000000000000073ffffffffffffffffffffffffffffffffffffffff1663f5298aca338460016040518463ffffffff1660e01b81526004016104d293929190610d76565b600060405180830381600087803b1580156104ec57600080fd5b505af1158015610500573d6000803e3d6000fd5b505050507f000000000000000000000000000000000000000000000000000000000000000073ffffffffffffffffffffffffffffffffffffffff1663f5298aca338360016040518463ffffffff1660e01b815260040161056293929190610d76565b600060405180830381600087803b15801561057c57600080fd5b505af1158015610590573d6000803e3d6000fd5b50505050505050565b6105a481600161097c565b60048110806105b35750600681115b156105ea576040517f8078985600000000000000000000000000000000000000000000000000000000815260040160405180910390fd5b50565b6002811115610628576040517f6eb70eec00000000000000000000000000000000000000000000000000000000815260040160405180910390fd5b50565b60008060003373ffffffffffffffffffffffffffffffffffffffff1673ffffffffffffffffffffffffffffffffffffffff16815260200190815260200160002054141580156106c35750603c426106829190610e69565b6000803373ffffffffffffffffffffffffffffffffffffffff1673ffffffffffffffffffffffffffffffffffffffff16815260200190815260200160002054115b1561074f57603c6000803373ffffffffffffffffffffffffffffffffffffffff1673ffffffffffffffffffffffffffffffffffffffff168152602001908152602001600020546107139190610e9d565b6040517f1a2d2d6b0000000000000000000000000000000000000000000000000000000081526004016107469190610c57565b60405180910390fd5b565b61075b8282610a54565b15610792576040517fb1bf621e00000000000000000000000000000000000000000000000000000000815260040160405180910390fd5b5050565b60006107a28383610a9b565b90507f000000000000000000000000000000000000000000000000000000000000000073ffffffffffffffffffffffffffffffffffffffff166394bf804d82336040518363ffffffff1660e01b81526004016107ff929190610dad565b600060405180830381600087803b15801561081957600080fd5b505af115801561082d573d6000803e3d6000fd5b505050507f000000000000000000000000000000000000000000000000000000000000000073ffffffffffffffffffffffffffffffffffffffff1663f5298aca338560016040518463ffffffff1660e01b815260040161088f93929190610d76565b600060405180830381600087803b1580156108a957600080fd5b505af11580156108bd573d6000803e3d6000fd5b505050507f000000000000000000000000000000000000000000000000000000000000000073ffffffffffffffffffffffffffffffffffffffff1663f5298aca338460016040518463ffffffff1660e01b815260040161091f93929190610d76565b600060405180830381600087803b15801561093957600080fd5b505af115801561094d573d6000803e3d6000fd5b50505050505050565b600080841480156109675750600183145b80156109735750600282145b90509392505050565b807f000000000000000000000000000000000000000000000000000000000000000073ffffffffffffffffffffffffffffffffffffffff1662fdd58e33856040518363ffffffff1660e01b81526004016109d7929190610ed1565b602060405180830381865afa1580156109f4573d6000803e3d6000fd5b505050506040513d601f19601f82011682018060405250810190610a189190610f0f565b1015610a50576040517f4c084f1400000000000000000000000000000000000000000000000000000000815260040160405180910390fd5b5050565b60008083148015610a655750600182145b80610a7c5750600183148015610a7b5750600282145b5b80610a935750600083148015610a925750600282145b5b905092915050565b60008083148015610aac5750600182145b15610aba5760039050610afc565b600183148015610aca5750600282145b15610ad85760049050610afc565b600083148015610ae85750600282145b15610af65760059050610afc565b61030990505b92915050565b600080fd5b6000819050919050565b610b1a81610b07565b8114610b2557600080fd5b50565b600081359050610b3781610b11565b92915050565b600080600060608486031215610b5657610b55610b02565b5b6000610b6486828701610b28565b9350506020610b7586828701610b28565b9250506040610b8686828701610b28565b9150509250925092565b600060208284031215610ba657610ba5610b02565b5b6000610bb484828501610b28565b91505092915050565b600073ffffffffffffffffffffffffffffffffffffffff82169050919050565b6000610be882610bbd565b9050919050565b610bf881610bdd565b8114610c0357600080fd5b50565b600081359050610c1581610bef565b92915050565b600060208284031215610c3157610c30610b02565b5b6000610c3f84828501610c06565b91505092915050565b610c5181610b07565b82525050565b6000602082019050610c6c6000830184610c48565b92915050565b60008060408385031215610c8957610c88610b02565b5b6000610c9785828601610b28565b9250506020610ca885828601610b28565b9150509250929050565b6000819050919050565b6000610cd7610cd2610ccd84610bbd565b610cb2565b610bbd565b9050919050565b6000610ce982610cbc565b9050919050565b6000610cfb82610cde565b9050919050565b610d0b81610cf0565b82525050565b6000602082019050610d266000830184610d02565b92915050565b610d3581610bdd565b82525050565b6000819050919050565b6000610d60610d5b610d5684610d3b565b610cb2565b610b07565b9050919050565b610d7081610d45565b82525050565b6000606082019050610d8b6000830186610d2c565b610d986020830185610c48565b610da56040830184610d67565b949350505050565b6000604082019050610dc26000830185610c48565b610dcf6020830184610d2c565b9392505050565b6000819050919050565b6000610dfb610df6610df184610dd6565b610cb2565b610b07565b9050919050565b610e0b81610de0565b82525050565b6000604082019050610e266000830185610e02565b610e336020830184610d2c565b9392505050565b7f4e487b7100000000000000000000000000000000000000000000000000000000600052601160045260246000fd5b6000610e7482610b07565b9150610e7f83610b07565b9250828203905081811115610e9757610e96610e3a565b5b92915050565b6000610ea882610b07565b9150610eb383610b07565b9250828201905080821115610ecb57610eca610e3a565b5b92915050565b6000604082019050610ee66000830185610d2c565b610ef36020830184610c48565b9392505050565b600081519050610f0981610b11565b92915050565b600060208284031215610f2557610f24610b02565b5b6000610f3384828501610efa565b9150509291505056fea2646970667358221220e92c54b6942664cf9c1d3166a7e9cce53f53598b6da4d9388a9ed806e2f8b99264736f6c63430008130033",
  "linkReferences": {},
  "deployedLinkReferences": {}
}