{
  "_format": "hh-sol-artifact-1",
  "contractName": "Forge",
  "sourceName": "contracts/Forge.sol",
  "abi": [
    {
      "inputs": [
        {
          "internalType": "address",
          "name": "_item",
          "type": "address"
        }
      ],
      "stateMutability": "nonpayable",
      "type": "constructor"
    },
    {
      "inputs": [
        {
          "internalType": "uint256",
          "name": "remainingSeconds",
          "type": "uint256"
        }
      ],
      "name": "AddressOnMintCooldown",
      "type": "error"
    },
    {
      "inputs": [],
      "name": "TokenCannotBeBurned",
      "type": "error"
    },
    {
      "inputs": [],
      "name": "TokenCannotBeForged",
      "type": "error"
    },
    {
      "inputs": [],
      "name": "TokenCannotBeTraded",
      "type": "error"
    },
    {
      "inputs": [],
      "name": "TokenIdCannotBeMinted",
      "type": "error"
    },
    {
      "inputs": [],
      "name": "MINT_COOLDOWN",
      "outputs": [
        {
          "internalType": "uint256",
          "name": "",
          "type": "uint256"
        }
      ],
      "stateMutability": "view",
      "type": "function"
    },
    {
      "inputs": [
        {
          "internalType": "uint256",
          "name": "_tokenId",
          "type": "uint256"
        }
      ],
      "name": "burn",
      "outputs": [],
      "stateMutability": "nonpayable",
      "type": "function"
    },
    {
      "inputs": [
        {
          "internalType": "uint256",
          "name": "_tokenId",
          "type": "uint256"
        }
      ],
      "name": "canBurnToken",
      "outputs": [
        {
          "internalType": "bool",
          "name": "",
          "type": "bool"
        }
      ],
      "stateMutability": "view",
      "type": "function"
    },
    {
      "inputs": [
        {
          "internalType": "uint256",
          "name": "_tokenId",
          "type": "uint256"
        }
      ],
      "name": "canForgeToken",
      "outputs": [
        {
          "internalType": "bool",
          "name": "",
          "type": "bool"
        }
      ],
      "stateMutability": "view",
      "type": "function"
    },
    {
      "inputs": [
        {
          "internalType": "uint256",
          "name": "_tokenId",
          "type": "uint256"
        }
      ],
      "name": "canTradeToken",
      "outputs": [
        {
          "internalType": "bool",
          "name": "",
          "type": "bool"
        }
      ],
      "stateMutability": "view",
      "type": "function"
    },
    {
      "inputs": [
        {
          "internalType": "uint256",
          "name": "_tokenId",
          "type": "uint256"
        }
      ],
      "name": "forge",
      "outputs": [],
      "stateMutability": "nonpayable",
      "type": "function"
    },
    {
      "inputs": [],
      "name": "item",
      "outputs": [
        {
          "internalType": "contract Item",
          "name": "",
          "type": "address"
        }
      ],
      "stateMutability": "view",
      "type": "function"
    },
    {
      "inputs": [
        {
          "internalType": "address",
          "name": "",
          "type": "address"
        }
      ],
      "name": "lastMint",
      "outputs": [
        {
          "internalType": "uint256",
          "name": "",
          "type": "uint256"
        }
      ],
      "stateMutability": "view",
      "type": "function"
    },
    {
      "inputs": [
        {
          "internalType": "uint256",
          "name": "_tokenId",
          "type": "uint256"
        }
      ],
      "name": "mint",
      "outputs": [],
      "stateMutability": "nonpayable",
      "type": "function"
    },
    {
      "inputs": [],
      "name": "mintCooldown",
      "outputs": [
        {
          "internalType": "bool",
          "name": "",
          "type": "bool"
        }
      ],
      "stateMutability": "view",
      "type": "function"
    },
    {
      "inputs": [
        {
          "internalType": "uint256",
          "name": "_fromTokenId",
          "type": "uint256"
        },
        {
          "internalType": "uint256",
          "name": "_toTokenId",
          "type": "uint256"
        }
      ],
      "name": "trade",
      "outputs": [],
      "stateMutability": "nonpayable",
      "type": "function"
    }
  ],
  "bytecode": "0x60a06040523480156200001157600080fd5b5060405162001a6e38038062001a6e8339818101604052810190620000379190620000dc565b8073ffffffffffffffffffffffffffffffffffffffff1660808173ffffffffffffffffffffffffffffffffffffffff1681525050506200010e565b600080fd5b600073ffffffffffffffffffffffffffffffffffffffff82169050919050565b6000620000a48262000077565b9050919050565b620000b68162000097565b8114620000c257600080fd5b50565b600081519050620000d681620000ab565b92915050565b600060208284031215620000f557620000f462000072565b5b60006200010584828501620000c5565b91505092915050565b6080516118aa620001c460003960008181610253015281816103680152818161046001528181610531015281816105de0152818161066e015281816106ff01528181610815015281816108bc0152818161096401528181610a0b01528181610ab301528181610b5a01528181610c0201528181610ca901528181610d5101528181610fd701528181611064015281816110f40152818161118901528181611216015281816112a6015261133601526118aa6000f3fe608060405234801561001057600080fd5b50600436106100a95760003560e01c8063a94e834b11610071578063a94e834b14610164578063adc20b1c14610180578063d3de7933146101b0578063e20be69a146101e0578063f2a4a82e146101fc578063f7ee7a431461021a576100a9565b80632000d430146100ae57806342966c68146100cc57806349fb1aed146100e857806354c2617a14610118578063a0712d6814610148575b600080fd5b6100b6610238565b6040516100c391906113e5565b60405180910390f35b6100e660048036038101906100e1919061143b565b610248565b005b61010260048036038101906100fd919061143b565b6102e4565b60405161010f91906113e5565b60405180910390f35b610132600480360381019061012d919061143b565b610352565b60405161013f91906113e5565b60405180910390f35b610162600480360381019061015d919061143b565b61040a565b005b61017e6004803603810190610179919061143b565b6104ee565b005b61019a600480360381019061019591906114c6565b610503565b6040516101a79190611502565b60405180910390f35b6101ca60048036038101906101c5919061143b565b61051b565b6040516101d791906113e5565b60405180910390f35b6101fa60048036038101906101f5919061151d565b6105d3565b005b6102046106fd565b60405161021191906115bc565b60405180910390f35b610222610721565b60405161022f9190611502565b60405180910390f35b600061024333610726565b905090565b610251816107c6565b7f000000000000000000000000000000000000000000000000000000000000000073ffffffffffffffffffffffffffffffffffffffff1663f5298aca338360016040518463ffffffff1660e01b81526004016102af93929190611621565b600060405180830381600087803b1580156102c957600080fd5b505af11580156102dd573d6000803e3d6000fd5b5050505050565b60006003821480156102fa57506102f961080f565b5b806103155750600482148015610314575061031361095e565b5b5b80610330575060058214801561032f575061032e610aad565b5b5b8061034b575060068214801561034a5750610349610bfc565b5b5b9050919050565b600061035d82610df3565b8015610403575060007f000000000000000000000000000000000000000000000000000000000000000073ffffffffffffffffffffffffffffffffffffffff1662fdd58e33856040518363ffffffff1660e01b81526004016103c0929190611658565b602060405180830381865afa1580156103dd573d6000803e3d6000fd5b505050506040513d601f19601f820116820180604052508101906104019190611696565b115b9050919050565b61041381610e0e565b61041b610e4c565b426000803373ffffffffffffffffffffffffffffffffffffffff1673ffffffffffffffffffffffffffffffffffffffff168152602001908152602001600020819055507f000000000000000000000000000000000000000000000000000000000000000073ffffffffffffffffffffffffffffffffffffffff166394bf804d82336040518363ffffffff1660e01b81526004016104b99291906116c3565b600060405180830381600087803b1580156104d357600080fd5b505af11580156104e7573d6000803e3d6000fd5b5050505050565b6104f781610eee565b61050081610f30565b50565b60006020528060005260406000206000915090505481565b600061052682610df3565b80156105cc575060007f000000000000000000000000000000000000000000000000000000000000000073ffffffffffffffffffffffffffffffffffffffff1662fdd58e33856040518363ffffffff1660e01b8152600401610589929190611658565b602060405180830381865afa1580156105a6573d6000803e3d6000fd5b505050506040513d601f19601f820116820180604052508101906105ca9190611696565b115b9050919050565b6105dc82610f93565b7f000000000000000000000000000000000000000000000000000000000000000073ffffffffffffffffffffffffffffffffffffffff1663f5298aca338460016040518463ffffffff1660e01b815260040161063a93929190611621565b600060405180830381600087803b15801561065457600080fd5b505af1158015610668573d6000803e3d6000fd5b505050507f000000000000000000000000000000000000000000000000000000000000000073ffffffffffffffffffffffffffffffffffffffff166394bf804d82336040518363ffffffff1660e01b81526004016106c79291906116c3565b600060405180830381600087803b1580156106e157600080fd5b505af11580156106f5573d6000803e3d6000fd5b505050505050565b7f000000000000000000000000000000000000000000000000000000000000000081565b603c81565b6000806000808473ffffffffffffffffffffffffffffffffffffffff1673ffffffffffffffffffffffffffffffffffffffff16815260200190815260200160002054141580156107bf5750603c4261077e919061171b565b6000808473ffffffffffffffffffffffffffffffffffffffff1673ffffffffffffffffffffffffffffffffffffffff16815260200190815260200160002054115b9050919050565b60048110806107d55750600681115b1561080c576040517f8078985600000000000000000000000000000000000000000000000000000000815260040160405180910390fd5b50565b600060017f000000000000000000000000000000000000000000000000000000000000000073ffffffffffffffffffffffffffffffffffffffff1662fdd58e3360006040518363ffffffff1660e01b815260040161086e92919061178a565b602060405180830381865afa15801561088b573d6000803e3d6000fd5b505050506040513d601f19601f820116820180604052508101906108af9190611696565b10158015610959575060017f000000000000000000000000000000000000000000000000000000000000000073ffffffffffffffffffffffffffffffffffffffff1662fdd58e3360016040518363ffffffff1660e01b81526004016109159291906117b3565b602060405180830381865afa158015610932573d6000803e3d6000fd5b505050506040513d601f19601f820116820180604052508101906109569190611696565b10155b905090565b600060017f000000000000000000000000000000000000000000000000000000000000000073ffffffffffffffffffffffffffffffffffffffff1662fdd58e3360016040518363ffffffff1660e01b81526004016109bd9291906117b3565b602060405180830381865afa1580156109da573d6000803e3d6000fd5b505050506040513d601f19601f820116820180604052508101906109fe9190611696565b10158015610aa8575060017f000000000000000000000000000000000000000000000000000000000000000073ffffffffffffffffffffffffffffffffffffffff1662fdd58e3360026040518363ffffffff1660e01b8152600401610a64929190611817565b602060405180830381865afa158015610a81573d6000803e3d6000fd5b505050506040513d601f19601f82011682018060405250810190610aa59190611696565b10155b905090565b600060017f000000000000000000000000000000000000000000000000000000000000000073ffffffffffffffffffffffffffffffffffffffff1662fdd58e3360006040518363ffffffff1660e01b8152600401610b0c92919061178a565b602060405180830381865afa158015610b29573d6000803e3d6000fd5b505050506040513d601f19601f82011682018060405250810190610b4d9190611696565b10158015610bf7575060017f000000000000000000000000000000000000000000000000000000000000000073ffffffffffffffffffffffffffffffffffffffff1662fdd58e3360026040518363ffffffff1660e01b8152600401610bb3929190611817565b602060405180830381865afa158015610bd0573d6000803e3d6000fd5b505050506040513d601f19601f82011682018060405250810190610bf49190611696565b10155b905090565b600060017f000000000000000000000000000000000000000000000000000000000000000073ffffffffffffffffffffffffffffffffffffffff1662fdd58e3360006040518363ffffffff1660e01b8152600401610c5b92919061178a565b602060405180830381865afa158015610c78573d6000803e3d6000fd5b505050506040513d601f19601f82011682018060405250810190610c9c9190611696565b10158015610d46575060017f000000000000000000000000000000000000000000000000000000000000000073ffffffffffffffffffffffffffffffffffffffff1662fdd58e3360016040518363ffffffff1660e01b8152600401610d029291906117b3565b602060405180830381865afa158015610d1f573d6000803e3d6000fd5b505050506040513d601f19601f82011682018060405250810190610d439190611696565b10155b8015610dee575060017f000000000000000000000000000000000000000000000000000000000000000073ffffffffffffffffffffffffffffffffffffffff1662fdd58e3360026040518363ffffffff1660e01b8152600401610daa929190611817565b602060405180830381865afa158015610dc7573d6000803e3d6000fd5b505050506040513d601f19601f82011682018060405250810190610deb9190611696565b10155b905090565b600060038210158015610e07575060068211155b9050919050565b6002811115610e49576040517f6eb70eec00000000000000000000000000000000000000000000000000000000815260040160405180910390fd5b50565b610e5533610726565b15610eec5742603c6000803373ffffffffffffffffffffffffffffffffffffffff1673ffffffffffffffffffffffffffffffffffffffff16815260200190815260200160002054610ea69190611840565b610eb0919061171b565b6040517f1a2d2d6b000000000000000000000000000000000000000000000000000000008152600401610ee39190611502565b60405180910390fd5b565b610ef7816102e4565b610f2d576040517f790b50b100000000000000000000000000000000000000000000000000000000815260040160405180910390fd5b50565b60038103610f4a57610f458160006001610fd5565b610f90565b60048103610f6457610f5f8160016002610fd5565b610f8f565b60058103610f7e57610f798160006002610fd5565b610f8e565b610f8d81600060016002611187565b5b5b5b50565b610f9c81610352565b610fd2576040517ff438643700000000000000000000000000000000000000000000000000000000815260040160405180910390fd5b50565b7f000000000000000000000000000000000000000000000000000000000000000073ffffffffffffffffffffffffffffffffffffffff166394bf804d84336040518363ffffffff1660e01b81526004016110309291906116c3565b600060405180830381600087803b15801561104a57600080fd5b505af115801561105e573d6000803e3d6000fd5b505050507f000000000000000000000000000000000000000000000000000000000000000073ffffffffffffffffffffffffffffffffffffffff1663f5298aca338460016040518463ffffffff1660e01b81526004016110c093929190611621565b600060405180830381600087803b1580156110da57600080fd5b505af11580156110ee573d6000803e3d6000fd5b505050507f000000000000000000000000000000000000000000000000000000000000000073ffffffffffffffffffffffffffffffffffffffff1663f5298aca338360016040518463ffffffff1660e01b815260040161115093929190611621565b600060405180830381600087803b15801561116a57600080fd5b505af115801561117e573d6000803e3d6000fd5b50505050505050565b7f000000000000000000000000000000000000000000000000000000000000000073ffffffffffffffffffffffffffffffffffffffff166394bf804d85336040518363ffffffff1660e01b81526004016111e29291906116c3565b600060405180830381600087803b1580156111fc57600080fd5b505af1158015611210573d6000803e3d6000fd5b505050507f000000000000000000000000000000000000000000000000000000000000000073ffffffffffffffffffffffffffffffffffffffff1663f5298aca338560016040518463ffffffff1660e01b815260040161127293929190611621565b600060405180830381600087803b15801561128c57600080fd5b505af11580156112a0573d6000803e3d6000fd5b505050507f000000000000000000000000000000000000000000000000000000000000000073ffffffffffffffffffffffffffffffffffffffff1663f5298aca338460016040518463ffffffff1660e01b815260040161130293929190611621565b600060405180830381600087803b15801561131c57600080fd5b505af1158015611330573d6000803e3d6000fd5b505050507f000000000000000000000000000000000000000000000000000000000000000073ffffffffffffffffffffffffffffffffffffffff1663f5298aca338360016040518463ffffffff1660e01b815260040161139293929190611621565b600060405180830381600087803b1580156113ac57600080fd5b505af11580156113c0573d6000803e3d6000fd5b5050505050505050565b60008115159050919050565b6113df816113ca565b82525050565b60006020820190506113fa60008301846113d6565b92915050565b600080fd5b6000819050919050565b61141881611405565b811461142357600080fd5b50565b6000813590506114358161140f565b92915050565b60006020828403121561145157611450611400565b5b600061145f84828501611426565b91505092915050565b600073ffffffffffffffffffffffffffffffffffffffff82169050919050565b600061149382611468565b9050919050565b6114a381611488565b81146114ae57600080fd5b50565b6000813590506114c08161149a565b92915050565b6000602082840312156114dc576114db611400565b5b60006114ea848285016114b1565b91505092915050565b6114fc81611405565b82525050565b600060208201905061151760008301846114f3565b92915050565b6000806040838503121561153457611533611400565b5b600061154285828601611426565b925050602061155385828601611426565b9150509250929050565b6000819050919050565b600061158261157d61157884611468565b61155d565b611468565b9050919050565b600061159482611567565b9050919050565b60006115a682611589565b9050919050565b6115b68161159b565b82525050565b60006020820190506115d160008301846115ad565b92915050565b6115e081611488565b82525050565b6000819050919050565b600061160b611606611601846115e6565b61155d565b611405565b9050919050565b61161b816115f0565b82525050565b600060608201905061163660008301866115d7565b61164360208301856114f3565b6116506040830184611612565b949350505050565b600060408201905061166d60008301856115d7565b61167a60208301846114f3565b9392505050565b6000815190506116908161140f565b92915050565b6000602082840312156116ac576116ab611400565b5b60006116ba84828501611681565b91505092915050565b60006040820190506116d860008301856114f3565b6116e560208301846115d7565b9392505050565b7f4e487b7100000000000000000000000000000000000000000000000000000000600052601160045260246000fd5b600061172682611405565b915061173183611405565b9250828203905081811115611749576117486116ec565b5b92915050565b6000819050919050565b600061177461176f61176a8461174f565b61155d565b611405565b9050919050565b61178481611759565b82525050565b600060408201905061179f60008301856115d7565b6117ac602083018461177b565b9392505050565b60006040820190506117c860008301856115d7565b6117d56020830184611612565b9392505050565b6000819050919050565b60006118016117fc6117f7846117dc565b61155d565b611405565b9050919050565b611811816117e6565b82525050565b600060408201905061182c60008301856115d7565b6118396020830184611808565b9392505050565b600061184b82611405565b915061185683611405565b925082820190508082111561186e5761186d6116ec565b5b9291505056fea2646970667358221220b09f5370e0336612c89243b5afc0e1377bbbb53aac5660519eb90d455838098364736f6c63430008130033",
  "linkReferences": {},
  "deployedLinkReferences": {}
}