{
  "_format": "hh-sol-artifact-1",
  "contractName": "Forge",
  "sourceName": "contracts/Forge.sol",
  "abi": [
    {
      "inputs": [
        {
          "internalType": "address",
          "name": "_item",
          "type": "address"
        }
      ],
      "stateMutability": "nonpayable",
      "type": "constructor"
    },
    {
      "inputs": [
        {
          "internalType": "uint256",
          "name": "remainingSeconds",
          "type": "uint256"
        }
      ],
      "name": "AddressOnMintCooldown",
      "type": "error"
    },
    {
      "inputs": [],
      "name": "TokenCannotBeBurned",
      "type": "error"
    },
    {
      "inputs": [],
      "name": "TokenCannotBeTraded",
      "type": "error"
    },
    {
      "inputs": [],
      "name": "TokenIdCannotBeMinted",
      "type": "error"
    },
    {
      "inputs": [],
      "name": "MINT_COOLDOWN",
      "outputs": [
        {
          "internalType": "uint256",
          "name": "",
          "type": "uint256"
        }
      ],
      "stateMutability": "view",
      "type": "function"
    },
    {
      "inputs": [
        {
          "internalType": "uint256",
          "name": "_tokenId",
          "type": "uint256"
        }
      ],
      "name": "burn",
      "outputs": [],
      "stateMutability": "nonpayable",
      "type": "function"
    },
    {
      "inputs": [
        {
          "internalType": "uint256",
          "name": "_tokenId",
          "type": "uint256"
        }
      ],
      "name": "forge",
      "outputs": [],
      "stateMutability": "nonpayable",
      "type": "function"
    },
    {
      "inputs": [],
      "name": "item",
      "outputs": [
        {
          "internalType": "contract Item",
          "name": "",
          "type": "address"
        }
      ],
      "stateMutability": "view",
      "type": "function"
    },
    {
      "inputs": [
        {
          "internalType": "address",
          "name": "",
          "type": "address"
        }
      ],
      "name": "lastMint",
      "outputs": [
        {
          "internalType": "uint256",
          "name": "",
          "type": "uint256"
        }
      ],
      "stateMutability": "view",
      "type": "function"
    },
    {
      "inputs": [
        {
          "internalType": "uint256",
          "name": "_tokenId",
          "type": "uint256"
        }
      ],
      "name": "mint",
      "outputs": [],
      "stateMutability": "nonpayable",
      "type": "function"
    },
    {
      "inputs": [],
      "name": "mintCooldown",
      "outputs": [
        {
          "internalType": "bool",
          "name": "",
          "type": "bool"
        }
      ],
      "stateMutability": "view",
      "type": "function"
    },
    {
      "inputs": [
        {
          "internalType": "uint256",
          "name": "_fromTokenId",
          "type": "uint256"
        },
        {
          "internalType": "uint256",
          "name": "_toTokenId",
          "type": "uint256"
        }
      ],
      "name": "trade",
      "outputs": [],
      "stateMutability": "nonpayable",
      "type": "function"
    }
  ],
  "bytecode": "0x60a060405234801561001057600080fd5b506040516200105d3803806200105d833981810160405281019061003491906100d1565b8073ffffffffffffffffffffffffffffffffffffffff1660808173ffffffffffffffffffffffffffffffffffffffff1681525050506100fe565b600080fd5b600073ffffffffffffffffffffffffffffffffffffffff82169050919050565b600061009e82610073565b9050919050565b6100ae81610093565b81146100b957600080fd5b50565b6000815190506100cb816100a5565b92915050565b6000602082840312156100e7576100e661006e565b5b60006100f5848285016100bc565b91505092915050565b608051610eef6200016e600039600081816101a20152818161028901528181610352015281816103f0015281816104800152818161051c0152818161077801528181610805015281816108950152818161092a015281816109b701528181610a470152610ad70152610eef6000f3fe608060405234801561001057600080fd5b50600436106100885760003560e01c8063adc20b1c1161005b578063adc20b1c146100ff578063e20be69a1461012f578063f2a4a82e1461014b578063f7ee7a431461016957610088565b80632000d4301461008d57806342966c68146100ab578063a0712d68146100c7578063a94e834b146100e3575b600080fd5b610095610187565b6040516100a29190610b86565b60405180910390f35b6100c560048036038101906100c09190610bdc565b610197565b005b6100e160048036038101906100dc9190610bdc565b610233565b005b6100fd60048036038101906100f89190610bdc565b610317565b005b61011960048036038101906101149190610c67565b610323565b6040516101269190610ca3565b60405180910390f35b61014960048036038101906101449190610cbe565b61033b565b005b61015361051a565b6040516101609190610d5d565b60405180910390f35b61017161053e565b60405161017e9190610ca3565b60405180910390f35b600061019233610543565b905090565b6101a0816105e3565b7f000000000000000000000000000000000000000000000000000000000000000073ffffffffffffffffffffffffffffffffffffffff1663f5298aca338360016040518463ffffffff1660e01b81526004016101fe93929190610dc2565b600060405180830381600087803b15801561021857600080fd5b505af115801561022c573d6000803e3d6000fd5b5050505050565b61023c81610621565b61024461065f565b426000803373ffffffffffffffffffffffffffffffffffffffff1673ffffffffffffffffffffffffffffffffffffffff168152602001908152602001600020819055507f000000000000000000000000000000000000000000000000000000000000000073ffffffffffffffffffffffffffffffffffffffff166394bf804d82336040518363ffffffff1660e01b81526004016102e2929190610df9565b600060405180830381600087803b1580156102fc57600080fd5b505af1158015610310573d6000803e3d6000fd5b5050505050565b61032081610701565b50565b60006020528060005260406000206000915090505481565b80820361034757600080fd5b60028211156103e5577f000000000000000000000000000000000000000000000000000000000000000073ffffffffffffffffffffffffffffffffffffffff1663f5298aca338460016040518463ffffffff1660e01b81526004016103ae93929190610dc2565b600060405180830381600087803b1580156103c857600080fd5b505af11580156103dc573d6000803e3d6000fd5b50505050610516565b6003811015610510577f000000000000000000000000000000000000000000000000000000000000000073ffffffffffffffffffffffffffffffffffffffff1663f5298aca338460016040518463ffffffff1660e01b815260040161044c93929190610dc2565b600060405180830381600087803b15801561046657600080fd5b505af115801561047a573d6000803e3d6000fd5b505050507f000000000000000000000000000000000000000000000000000000000000000073ffffffffffffffffffffffffffffffffffffffff166394bf804d82336040518363ffffffff1660e01b81526004016104d9929190610df9565b600060405180830381600087803b1580156104f357600080fd5b505af1158015610507573d6000803e3d6000fd5b50505050610515565b600080fd5b5b5050565b7f000000000000000000000000000000000000000000000000000000000000000081565b603c81565b6000806000808473ffffffffffffffffffffffffffffffffffffffff1673ffffffffffffffffffffffffffffffffffffffff16815260200190815260200160002054141580156105dc5750603c4261059b9190610e51565b6000808473ffffffffffffffffffffffffffffffffffffffff1673ffffffffffffffffffffffffffffffffffffffff16815260200190815260200160002054115b9050919050565b600481101561061e576040517f8078985600000000000000000000000000000000000000000000000000000000815260040160405180910390fd5b50565b600281111561065c576040517f6eb70eec00000000000000000000000000000000000000000000000000000000815260040160405180910390fd5b50565b61066833610543565b156106ff5742603c6000803373ffffffffffffffffffffffffffffffffffffffff1673ffffffffffffffffffffffffffffffffffffffff168152602001908152602001600020546106b99190610e85565b6106c39190610e51565b6040517f1a2d2d6b0000000000000000000000000000000000000000000000000000000081526004016106f69190610ca3565b60405180910390fd5b565b6003810361071b576107168160006001610776565b610773565b60048103610735576107308160016002610776565b610772565b6005810361074f5761074a8160006002610776565b610771565b6006810361076b5761076681600060016002610928565b610770565b600080fd5b5b5b5b50565b7f000000000000000000000000000000000000000000000000000000000000000073ffffffffffffffffffffffffffffffffffffffff166394bf804d84336040518363ffffffff1660e01b81526004016107d1929190610df9565b600060405180830381600087803b1580156107eb57600080fd5b505af11580156107ff573d6000803e3d6000fd5b505050507f000000000000000000000000000000000000000000000000000000000000000073ffffffffffffffffffffffffffffffffffffffff1663f5298aca338460016040518463ffffffff1660e01b815260040161086193929190610dc2565b600060405180830381600087803b15801561087b57600080fd5b505af115801561088f573d6000803e3d6000fd5b505050507f000000000000000000000000000000000000000000000000000000000000000073ffffffffffffffffffffffffffffffffffffffff1663f5298aca338360016040518463ffffffff1660e01b81526004016108f193929190610dc2565b600060405180830381600087803b15801561090b57600080fd5b505af115801561091f573d6000803e3d6000fd5b50505050505050565b7f000000000000000000000000000000000000000000000000000000000000000073ffffffffffffffffffffffffffffffffffffffff166394bf804d85336040518363ffffffff1660e01b8152600401610983929190610df9565b600060405180830381600087803b15801561099d57600080fd5b505af11580156109b1573d6000803e3d6000fd5b505050507f000000000000000000000000000000000000000000000000000000000000000073ffffffffffffffffffffffffffffffffffffffff1663f5298aca338560016040518463ffffffff1660e01b8152600401610a1393929190610dc2565b600060405180830381600087803b158015610a2d57600080fd5b505af1158015610a41573d6000803e3d6000fd5b505050507f000000000000000000000000000000000000000000000000000000000000000073ffffffffffffffffffffffffffffffffffffffff1663f5298aca338460016040518463ffffffff1660e01b8152600401610aa393929190610dc2565b600060405180830381600087803b158015610abd57600080fd5b505af1158015610ad1573d6000803e3d6000fd5b505050507f000000000000000000000000000000000000000000000000000000000000000073ffffffffffffffffffffffffffffffffffffffff1663f5298aca338360016040518463ffffffff1660e01b8152600401610b3393929190610dc2565b600060405180830381600087803b158015610b4d57600080fd5b505af1158015610b61573d6000803e3d6000fd5b5050505050505050565b60008115159050919050565b610b8081610b6b565b82525050565b6000602082019050610b9b6000830184610b77565b92915050565b600080fd5b6000819050919050565b610bb981610ba6565b8114610bc457600080fd5b50565b600081359050610bd681610bb0565b92915050565b600060208284031215610bf257610bf1610ba1565b5b6000610c0084828501610bc7565b91505092915050565b600073ffffffffffffffffffffffffffffffffffffffff82169050919050565b6000610c3482610c09565b9050919050565b610c4481610c29565b8114610c4f57600080fd5b50565b600081359050610c6181610c3b565b92915050565b600060208284031215610c7d57610c7c610ba1565b5b6000610c8b84828501610c52565b91505092915050565b610c9d81610ba6565b82525050565b6000602082019050610cb86000830184610c94565b92915050565b60008060408385031215610cd557610cd4610ba1565b5b6000610ce385828601610bc7565b9250506020610cf485828601610bc7565b9150509250929050565b6000819050919050565b6000610d23610d1e610d1984610c09565b610cfe565b610c09565b9050919050565b6000610d3582610d08565b9050919050565b6000610d4782610d2a565b9050919050565b610d5781610d3c565b82525050565b6000602082019050610d726000830184610d4e565b92915050565b610d8181610c29565b82525050565b6000819050919050565b6000610dac610da7610da284610d87565b610cfe565b610ba6565b9050919050565b610dbc81610d91565b82525050565b6000606082019050610dd76000830186610d78565b610de46020830185610c94565b610df16040830184610db3565b949350505050565b6000604082019050610e0e6000830185610c94565b610e1b6020830184610d78565b9392505050565b7f4e487b7100000000000000000000000000000000000000000000000000000000600052601160045260246000fd5b6000610e5c82610ba6565b9150610e6783610ba6565b9250828203905081811115610e7f57610e7e610e22565b5b92915050565b6000610e9082610ba6565b9150610e9b83610ba6565b9250828201905080821115610eb357610eb2610e22565b5b9291505056fea2646970667358221220d6caf0150f6c0b75b3cd9a6afe6069be00efc7a35330bf1c61afacf069763e3364736f6c63430008130033",
  "linkReferences": {},
  "deployedLinkReferences": {}
}