{
  "_format": "hh-sol-artifact-1",
  "contractName": "Item",
  "sourceName": "contracts/Item.sol",
  "abi": [
    {
      "inputs": [],
      "stateMutability": "nonpayable",
      "type": "constructor"
    },
    {
      "inputs": [],
      "name": "OnlyForgeCanPerformAction",
      "type": "error"
    },
    {
      "anonymous": false,
      "inputs": [
        {
          "indexed": true,
          "internalType": "address",
          "name": "account",
          "type": "address"
        },
        {
          "indexed": true,
          "internalType": "address",
          "name": "operator",
          "type": "address"
        },
        {
          "indexed": false,
          "internalType": "bool",
          "name": "approved",
          "type": "bool"
        }
      ],
      "name": "ApprovalForAll",
      "type": "event"
    },
    {
      "anonymous": false,
      "inputs": [
        {
          "indexed": true,
          "internalType": "address",
          "name": "operator",
          "type": "address"
        },
        {
          "indexed": true,
          "internalType": "address",
          "name": "from",
          "type": "address"
        },
        {
          "indexed": true,
          "internalType": "address",
          "name": "to",
          "type": "address"
        },
        {
          "indexed": false,
          "internalType": "uint256[]",
          "name": "ids",
          "type": "uint256[]"
        },
        {
          "indexed": false,
          "internalType": "uint256[]",
          "name": "values",
          "type": "uint256[]"
        }
      ],
      "name": "TransferBatch",
      "type": "event"
    },
    {
      "anonymous": false,
      "inputs": [
        {
          "indexed": true,
          "internalType": "address",
          "name": "operator",
          "type": "address"
        },
        {
          "indexed": true,
          "internalType": "address",
          "name": "from",
          "type": "address"
        },
        {
          "indexed": true,
          "internalType": "address",
          "name": "to",
          "type": "address"
        },
        {
          "indexed": false,
          "internalType": "uint256",
          "name": "id",
          "type": "uint256"
        },
        {
          "indexed": false,
          "internalType": "uint256",
          "name": "value",
          "type": "uint256"
        }
      ],
      "name": "TransferSingle",
      "type": "event"
    },
    {
      "anonymous": false,
      "inputs": [
        {
          "indexed": false,
          "internalType": "string",
          "name": "value",
          "type": "string"
        },
        {
          "indexed": true,
          "internalType": "uint256",
          "name": "id",
          "type": "uint256"
        }
      ],
      "name": "URI",
      "type": "event"
    },
    {
      "inputs": [
        {
          "internalType": "address",
          "name": "account",
          "type": "address"
        },
        {
          "internalType": "uint256",
          "name": "id",
          "type": "uint256"
        }
      ],
      "name": "balanceOf",
      "outputs": [
        {
          "internalType": "uint256",
          "name": "",
          "type": "uint256"
        }
      ],
      "stateMutability": "view",
      "type": "function"
    },
    {
      "inputs": [
        {
          "internalType": "address[]",
          "name": "accounts",
          "type": "address[]"
        },
        {
          "internalType": "uint256[]",
          "name": "ids",
          "type": "uint256[]"
        }
      ],
      "name": "balanceOfBatch",
      "outputs": [
        {
          "internalType": "uint256[]",
          "name": "",
          "type": "uint256[]"
        }
      ],
      "stateMutability": "view",
      "type": "function"
    },
    {
      "inputs": [
        {
          "internalType": "address",
          "name": "_holder",
          "type": "address"
        },
        {
          "internalType": "uint256",
          "name": "_tokenId",
          "type": "uint256"
        },
        {
          "internalType": "uint256",
          "name": "_amount",
          "type": "uint256"
        }
      ],
      "name": "burn",
      "outputs": [],
      "stateMutability": "nonpayable",
      "type": "function"
    },
    {
      "inputs": [],
      "name": "forge",
      "outputs": [
        {
          "internalType": "contract Forge",
          "name": "",
          "type": "address"
        }
      ],
      "stateMutability": "view",
      "type": "function"
    },
    {
      "inputs": [
        {
          "internalType": "address",
          "name": "account",
          "type": "address"
        },
        {
          "internalType": "address",
          "name": "operator",
          "type": "address"
        }
      ],
      "name": "isApprovedForAll",
      "outputs": [
        {
          "internalType": "bool",
          "name": "",
          "type": "bool"
        }
      ],
      "stateMutability": "view",
      "type": "function"
    },
    {
      "inputs": [
        {
          "internalType": "uint256",
          "name": "_tokenId",
          "type": "uint256"
        },
        {
          "internalType": "address",
          "name": "_receiver",
          "type": "address"
        }
      ],
      "name": "mint",
      "outputs": [],
      "stateMutability": "nonpayable",
      "type": "function"
    },
    {
      "inputs": [
        {
          "internalType": "address",
          "name": "from",
          "type": "address"
        },
        {
          "internalType": "address",
          "name": "to",
          "type": "address"
        },
        {
          "internalType": "uint256[]",
          "name": "ids",
          "type": "uint256[]"
        },
        {
          "internalType": "uint256[]",
          "name": "amounts",
          "type": "uint256[]"
        },
        {
          "internalType": "bytes",
          "name": "data",
          "type": "bytes"
        }
      ],
      "name": "safeBatchTransferFrom",
      "outputs": [],
      "stateMutability": "nonpayable",
      "type": "function"
    },
    {
      "inputs": [
        {
          "internalType": "address",
          "name": "from",
          "type": "address"
        },
        {
          "internalType": "address",
          "name": "to",
          "type": "address"
        },
        {
          "internalType": "uint256",
          "name": "id",
          "type": "uint256"
        },
        {
          "internalType": "uint256",
          "name": "amount",
          "type": "uint256"
        },
        {
          "internalType": "bytes",
          "name": "data",
          "type": "bytes"
        }
      ],
      "name": "safeTransferFrom",
      "outputs": [],
      "stateMutability": "nonpayable",
      "type": "function"
    },
    {
      "inputs": [
        {
          "internalType": "address",
          "name": "operator",
          "type": "address"
        },
        {
          "internalType": "bool",
          "name": "approved",
          "type": "bool"
        }
      ],
      "name": "setApprovalForAll",
      "outputs": [],
      "stateMutability": "nonpayable",
      "type": "function"
    },
    {
      "inputs": [
        {
          "internalType": "bytes4",
          "name": "interfaceId",
          "type": "bytes4"
        }
      ],
      "name": "supportsInterface",
      "outputs": [
        {
          "internalType": "bool",
          "name": "",
          "type": "bool"
        }
      ],
      "stateMutability": "view",
      "type": "function"
    },
    {
      "inputs": [
        {
          "internalType": "uint256",
          "name": "",
          "type": "uint256"
        }
      ],
      "name": "uri",
      "outputs": [
        {
          "internalType": "string",
          "name": "",
          "type": "string"
        }
      ],
      "stateMutability": "view",
      "type": "function"
    }
  ],
  "bytecode": "0x60a06040523480156200001157600080fd5b506040518060600160405280603a8152602001620042ad603a91396200003d81620000b060201b60201c565b50306040516200004d90620000c5565b62000059919062000118565b604051809103906000f08015801562000076573d6000803e3d6000fd5b5073ffffffffffffffffffffffffffffffffffffffff1660808173ffffffffffffffffffffffffffffffffffffffff168152505062000496565b8060029081620000c19190620003af565b5050565b6110e280620031cb83390190565b600073ffffffffffffffffffffffffffffffffffffffff82169050919050565b60006200010082620000d3565b9050919050565b6200011281620000f3565b82525050565b60006020820190506200012f600083018462000107565b92915050565b600081519050919050565b7f4e487b7100000000000000000000000000000000000000000000000000000000600052604160045260246000fd5b7f4e487b7100000000000000000000000000000000000000000000000000000000600052602260045260246000fd5b60006002820490506001821680620001b757607f821691505b602082108103620001cd57620001cc6200016f565b5b50919050565b60008190508160005260206000209050919050565b60006020601f8301049050919050565b600082821b905092915050565b600060088302620002377fffffffffffffffffffffffffffffffffffffffffffffffffffffffffffffffff82620001f8565b620002438683620001f8565b95508019841693508086168417925050509392505050565b6000819050919050565b6000819050919050565b6000620002906200028a62000284846200025b565b62000265565b6200025b565b9050919050565b6000819050919050565b620002ac836200026f565b620002c4620002bb8262000297565b84845462000205565b825550505050565b600090565b620002db620002cc565b620002e8818484620002a1565b505050565b5b81811015620003105762000304600082620002d1565b600181019050620002ee565b5050565b601f8211156200035f576200032981620001d3565b6200033484620001e8565b8101602085101562000344578190505b6200035c6200035385620001e8565b830182620002ed565b50505b505050565b600082821c905092915050565b6000620003846000198460080262000364565b1980831691505092915050565b60006200039f838362000371565b9150826002028217905092915050565b620003ba8262000135565b67ffffffffffffffff811115620003d657620003d562000140565b5b620003e282546200019e565b620003ef82828562000314565b600060209050601f83116001811462000427576000841562000412578287015190505b6200041e858262000391565b8655506200048e565b601f1984166200043786620001d3565b60005b8281101562000461578489015182556001820191506020850194506020810190506200043a565b868310156200048157848901516200047d601f89168262000371565b8355505b6001600288020188555050505b505050505050565b608051612d12620004b9600039600081816106410152610b830152612d126000f3fe608060405234801561001057600080fd5b50600436106100a85760003560e01c80636c6f4239116100715780636c6f42391461018957806394bf804d146101a7578063a22cb465146101c3578063e985e9c5146101df578063f242432a1461020f578063f5298aca1461022b576100a8565b8062fdd58e146100ad57806301ffc9a7146100dd5780630e89341c1461010d5780632eb2c2d61461013d5780634e1273f414610159575b600080fd5b6100c760048036038101906100c29190611908565b610247565b6040516100d49190611957565b60405180910390f35b6100f760048036038101906100f291906119ca565b61030f565b6040516101049190611a12565b60405180910390f35b61012760048036038101906101229190611a2d565b6103f1565b6040516101349190611aea565b60405180910390f35b61015760048036038101906101529190611d09565b610485565b005b610173600480360381019061016e9190611e9b565b610526565b6040516101809190611fd1565b60405180910390f35b61019161063f565b60405161019e9190612052565b60405180910390f35b6101c160048036038101906101bc919061206d565b610663565b005b6101dd60048036038101906101d891906120d9565b61068b565b005b6101f960048036038101906101f49190612119565b6106a1565b6040516102069190611a12565b60405180910390f35b61022960048036038101906102249190612159565b610735565b005b610245600480360381019061024091906121f0565b6107d6565b005b60008073ffffffffffffffffffffffffffffffffffffffff168373ffffffffffffffffffffffffffffffffffffffff16036102b7576040517f08c379a00000000000000000000000000000000000000000000000000000000081526004016102ae906122b5565b60405180910390fd5b60008083815260200190815260200160002060008473ffffffffffffffffffffffffffffffffffffffff1673ffffffffffffffffffffffffffffffffffffffff16815260200190815260200160002054905092915050565b60007fd9b67a26000000000000000000000000000000000000000000000000000000007bffffffffffffffffffffffffffffffffffffffffffffffffffffffff1916827bffffffffffffffffffffffffffffffffffffffffffffffffffffffff191614806103da57507f0e89341c000000000000000000000000000000000000000000000000000000007bffffffffffffffffffffffffffffffffffffffffffffffffffffffff1916827bffffffffffffffffffffffffffffffffffffffffffffffffffffffff1916145b806103ea57506103e9826107ee565b5b9050919050565b60606002805461040090612304565b80601f016020809104026020016040519081016040528092919081815260200182805461042c90612304565b80156104795780601f1061044e57610100808354040283529160200191610479565b820191906000526020600020905b81548152906001019060200180831161045c57829003601f168201915b50505050509050919050565b61048d610858565b73ffffffffffffffffffffffffffffffffffffffff168573ffffffffffffffffffffffffffffffffffffffff1614806104d357506104d2856104cd610858565b6106a1565b5b610512576040517f08c379a0000000000000000000000000000000000000000000000000000000008152600401610509906123a7565b60405180910390fd5b61051f8585858585610860565b5050505050565b6060815183511461056c576040517f08c379a000000000000000000000000000000000000000000000000000000000815260040161056390612439565b60405180910390fd5b6000835167ffffffffffffffff81111561058957610588611b11565b5b6040519080825280602002602001820160405280156105b75781602001602082028036833780820191505090505b50905060005b8451811015610634576106048582815181106105dc576105db612459565b5b60200260200101518583815181106105f7576105f6612459565b5b6020026020010151610247565b82828151811061061757610616612459565b5b6020026020010181815250508061062d906124b7565b90506105bd565b508091505092915050565b7f000000000000000000000000000000000000000000000000000000000000000081565b61066b610b81565b6106878183600160405180602001604052806000815250610c08565b5050565b61069d610696610858565b8383610db8565b5050565b6000600160008473ffffffffffffffffffffffffffffffffffffffff1673ffffffffffffffffffffffffffffffffffffffff16815260200190815260200160002060008373ffffffffffffffffffffffffffffffffffffffff1673ffffffffffffffffffffffffffffffffffffffff16815260200190815260200160002060009054906101000a900460ff16905092915050565b61073d610858565b73ffffffffffffffffffffffffffffffffffffffff168573ffffffffffffffffffffffffffffffffffffffff16148061078357506107828561077d610858565b6106a1565b5b6107c2576040517f08c379a00000000000000000000000000000000000000000000000000000000081526004016107b9906123a7565b60405180910390fd5b6107cf8585858585610f24565b5050505050565b6107de610b81565b6107e98383836111bf565b505050565b60007f01ffc9a7000000000000000000000000000000000000000000000000000000007bffffffffffffffffffffffffffffffffffffffffffffffffffffffff1916827bffffffffffffffffffffffffffffffffffffffffffffffffffffffff1916149050919050565b600033905090565b81518351146108a4576040517f08c379a000000000000000000000000000000000000000000000000000000000815260040161089b90612571565b60405180910390fd5b600073ffffffffffffffffffffffffffffffffffffffff168473ffffffffffffffffffffffffffffffffffffffff1603610913576040517f08c379a000000000000000000000000000000000000000000000000000000000815260040161090a90612603565b60405180910390fd5b600061091d610858565b905061092d818787878787611405565b60005b8451811015610ade57600085828151811061094e5761094d612459565b5b60200260200101519050600085838151811061096d5761096c612459565b5b60200260200101519050600080600084815260200190815260200160002060008b73ffffffffffffffffffffffffffffffffffffffff1673ffffffffffffffffffffffffffffffffffffffff16815260200190815260200160002054905081811015610a0e576040517f08c379a0000000000000000000000000000000000000000000000000000000008152600401610a0590612695565b60405180910390fd5b81810360008085815260200190815260200160002060008c73ffffffffffffffffffffffffffffffffffffffff1673ffffffffffffffffffffffffffffffffffffffff168152602001908152602001600020819055508160008085815260200190815260200160002060008b73ffffffffffffffffffffffffffffffffffffffff1673ffffffffffffffffffffffffffffffffffffffff1681526020019081526020016000206000828254610ac391906126b5565b9250508190555050505080610ad7906124b7565b9050610930565b508473ffffffffffffffffffffffffffffffffffffffff168673ffffffffffffffffffffffffffffffffffffffff168273ffffffffffffffffffffffffffffffffffffffff167f4a39dc06d4c0dbc64b70af90fd698a233a518aa5d07e595d983b8c0526c8f7fb8787604051610b559291906126e9565b60405180910390a4610b6b81878787878761140d565b610b79818787878787611415565b505050505050565b7f000000000000000000000000000000000000000000000000000000000000000073ffffffffffffffffffffffffffffffffffffffff163373ffffffffffffffffffffffffffffffffffffffff1614610c06576040517f380b8eb000000000000000000000000000000000000000000000000000000000815260040160405180910390fd5b565b600073ffffffffffffffffffffffffffffffffffffffff168473ffffffffffffffffffffffffffffffffffffffff1603610c77576040517f08c379a0000000000000000000000000000000000000000000000000000000008152600401610c6e90612792565b60405180910390fd5b6000610c81610858565b90506000610c8e856115ec565b90506000610c9b856115ec565b9050610cac83600089858589611405565b8460008088815260200190815260200160002060008973ffffffffffffffffffffffffffffffffffffffff1673ffffffffffffffffffffffffffffffffffffffff1681526020019081526020016000206000828254610d0b91906126b5565b925050819055508673ffffffffffffffffffffffffffffffffffffffff16600073ffffffffffffffffffffffffffffffffffffffff168473ffffffffffffffffffffffffffffffffffffffff167fc3d58168c5ae7397731d063d5bbf3d657854427343f4c083240f7aacaa2d0f628989604051610d899291906127b2565b60405180910390a4610da08360008985858961140d565b610daf83600089898989611666565b50505050505050565b8173ffffffffffffffffffffffffffffffffffffffff168373ffffffffffffffffffffffffffffffffffffffff1603610e26576040517f08c379a0000000000000000000000000000000000000000000000000000000008152600401610e1d9061284d565b60405180910390fd5b80600160008573ffffffffffffffffffffffffffffffffffffffff1673ffffffffffffffffffffffffffffffffffffffff16815260200190815260200160002060008473ffffffffffffffffffffffffffffffffffffffff1673ffffffffffffffffffffffffffffffffffffffff16815260200190815260200160002060006101000a81548160ff0219169083151502179055508173ffffffffffffffffffffffffffffffffffffffff168373ffffffffffffffffffffffffffffffffffffffff167f17307eab39ab6107e8899845ad3d59bd9653f200f220920489ca2b5937696c3183604051610f179190611a12565b60405180910390a3505050565b600073ffffffffffffffffffffffffffffffffffffffff168473ffffffffffffffffffffffffffffffffffffffff1603610f93576040517f08c379a0000000000000000000000000000000000000000000000000000000008152600401610f8a90612603565b60405180910390fd5b6000610f9d610858565b90506000610faa856115ec565b90506000610fb7856115ec565b9050610fc7838989858589611405565b600080600088815260200190815260200160002060008a73ffffffffffffffffffffffffffffffffffffffff1673ffffffffffffffffffffffffffffffffffffffff1681526020019081526020016000205490508581101561105e576040517f08c379a000000000000000000000000000000000000000000000000000000000815260040161105590612695565b60405180910390fd5b85810360008089815260200190815260200160002060008b73ffffffffffffffffffffffffffffffffffffffff1673ffffffffffffffffffffffffffffffffffffffff168152602001908152602001600020819055508560008089815260200190815260200160002060008a73ffffffffffffffffffffffffffffffffffffffff1673ffffffffffffffffffffffffffffffffffffffff168152602001908152602001600020600082825461111391906126b5565b925050819055508773ffffffffffffffffffffffffffffffffffffffff168973ffffffffffffffffffffffffffffffffffffffff168573ffffffffffffffffffffffffffffffffffffffff167fc3d58168c5ae7397731d063d5bbf3d657854427343f4c083240f7aacaa2d0f628a8a6040516111909291906127b2565b60405180910390a46111a6848a8a86868a61140d565b6111b4848a8a8a8a8a611666565b505050505050505050565b600073ffffffffffffffffffffffffffffffffffffffff168373ffffffffffffffffffffffffffffffffffffffff160361122e576040517f08c379a0000000000000000000000000000000000000000000000000000000008152600401611225906128df565b60405180910390fd5b6000611238610858565b90506000611245846115ec565b90506000611252846115ec565b905061127283876000858560405180602001604052806000815250611405565b600080600087815260200190815260200160002060008873ffffffffffffffffffffffffffffffffffffffff1673ffffffffffffffffffffffffffffffffffffffff16815260200190815260200160002054905084811015611309576040517f08c379a000000000000000000000000000000000000000000000000000000000815260040161130090612971565b60405180910390fd5b84810360008088815260200190815260200160002060008973ffffffffffffffffffffffffffffffffffffffff1673ffffffffffffffffffffffffffffffffffffffff16815260200190815260200160002081905550600073ffffffffffffffffffffffffffffffffffffffff168773ffffffffffffffffffffffffffffffffffffffff168573ffffffffffffffffffffffffffffffffffffffff167fc3d58168c5ae7397731d063d5bbf3d657854427343f4c083240f7aacaa2d0f6289896040516113d69291906127b2565b60405180910390a46113fc8488600086866040518060200160405280600081525061140d565b50505050505050565b505050505050565b505050505050565b6114348473ffffffffffffffffffffffffffffffffffffffff1661183d565b156115e4578373ffffffffffffffffffffffffffffffffffffffff1663bc197c8187878686866040518663ffffffff1660e01b815260040161147a9594939291906129f5565b6020604051808303816000875af19250505080156114b657506040513d601f19601f820116820180604052508101906114b39190612a72565b60015b61155b576114c2612aac565b806308c379a00361151e57506114d6612ace565b806114e15750611520565b806040517f08c379a00000000000000000000000000000000000000000000000000000000081526004016115159190611aea565b60405180910390fd5b505b6040517f08c379a000000000000000000000000000000000000000000000000000000000815260040161155290612bd0565b60405180910390fd5b63bc197c8160e01b7bffffffffffffffffffffffffffffffffffffffffffffffffffffffff1916817bffffffffffffffffffffffffffffffffffffffffffffffffffffffff1916146115e2576040517f08c379a00000000000000000000000000000000000000000000000000000000081526004016115d990612c62565b60405180910390fd5b505b505050505050565b60606000600167ffffffffffffffff81111561160b5761160a611b11565b5b6040519080825280602002602001820160405280156116395781602001602082028036833780820191505090505b509050828160008151811061165157611650612459565b5b60200260200101818152505080915050919050565b6116858473ffffffffffffffffffffffffffffffffffffffff1661183d565b15611835578373ffffffffffffffffffffffffffffffffffffffff1663f23a6e6187878686866040518663ffffffff1660e01b81526004016116cb959493929190612c82565b6020604051808303816000875af192505050801561170757506040513d601f19601f820116820180604052508101906117049190612a72565b60015b6117ac57611713612aac565b806308c379a00361176f5750611727612ace565b806117325750611771565b806040517f08c379a00000000000000000000000000000000000000000000000000000000081526004016117669190611aea565b60405180910390fd5b505b6040517f08c379a00000000000000000000000000000000000000000000000000000000081526004016117a390612bd0565b60405180910390fd5b63f23a6e6160e01b7bffffffffffffffffffffffffffffffffffffffffffffffffffffffff1916817bffffffffffffffffffffffffffffffffffffffffffffffffffffffff191614611833576040517f08c379a000000000000000000000000000000000000000000000000000000000815260040161182a90612c62565b60405180910390fd5b505b505050505050565b6000808273ffffffffffffffffffffffffffffffffffffffff163b119050919050565b6000604051905090565b600080fd5b600080fd5b600073ffffffffffffffffffffffffffffffffffffffff82169050919050565b600061189f82611874565b9050919050565b6118af81611894565b81146118ba57600080fd5b50565b6000813590506118cc816118a6565b92915050565b6000819050919050565b6118e5816118d2565b81146118f057600080fd5b50565b600081359050611902816118dc565b92915050565b6000806040838503121561191f5761191e61186a565b5b600061192d858286016118bd565b925050602061193e858286016118f3565b9150509250929050565b611951816118d2565b82525050565b600060208201905061196c6000830184611948565b92915050565b60007fffffffff0000000000000000000000000000000000000000000000000000000082169050919050565b6119a781611972565b81146119b257600080fd5b50565b6000813590506119c48161199e565b92915050565b6000602082840312156119e0576119df61186a565b5b60006119ee848285016119b5565b91505092915050565b60008115159050919050565b611a0c816119f7565b82525050565b6000602082019050611a276000830184611a03565b92915050565b600060208284031215611a4357611a4261186a565b5b6000611a51848285016118f3565b91505092915050565b600081519050919050565b600082825260208201905092915050565b60005b83811015611a94578082015181840152602081019050611a79565b60008484015250505050565b6000601f19601f8301169050919050565b6000611abc82611a5a565b611ac68185611a65565b9350611ad6818560208601611a76565b611adf81611aa0565b840191505092915050565b60006020820190508181036000830152611b048184611ab1565b905092915050565b600080fd5b7f4e487b7100000000000000000000000000000000000000000000000000000000600052604160045260246000fd5b611b4982611aa0565b810181811067ffffffffffffffff82111715611b6857611b67611b11565b5b80604052505050565b6000611b7b611860565b9050611b878282611b40565b919050565b600067ffffffffffffffff821115611ba757611ba6611b11565b5b602082029050602081019050919050565b600080fd5b6000611bd0611bcb84611b8c565b611b71565b90508083825260208201905060208402830185811115611bf357611bf2611bb8565b5b835b81811015611c1c5780611c0888826118f3565b845260208401935050602081019050611bf5565b5050509392505050565b600082601f830112611c3b57611c3a611b0c565b5b8135611c4b848260208601611bbd565b91505092915050565b600080fd5b600067ffffffffffffffff821115611c7457611c73611b11565b5b611c7d82611aa0565b9050602081019050919050565b82818337600083830152505050565b6000611cac611ca784611c59565b611b71565b905082815260208101848484011115611cc857611cc7611c54565b5b611cd3848285611c8a565b509392505050565b600082601f830112611cf057611cef611b0c565b5b8135611d00848260208601611c99565b91505092915050565b600080600080600060a08688031215611d2557611d2461186a565b5b6000611d33888289016118bd565b9550506020611d44888289016118bd565b945050604086013567ffffffffffffffff811115611d6557611d6461186f565b5b611d7188828901611c26565b935050606086013567ffffffffffffffff811115611d9257611d9161186f565b5b611d9e88828901611c26565b925050608086013567ffffffffffffffff811115611dbf57611dbe61186f565b5b611dcb88828901611cdb565b9150509295509295909350565b600067ffffffffffffffff821115611df357611df2611b11565b5b602082029050602081019050919050565b6000611e17611e1284611dd8565b611b71565b90508083825260208201905060208402830185811115611e3a57611e39611bb8565b5b835b81811015611e635780611e4f88826118bd565b845260208401935050602081019050611e3c565b5050509392505050565b600082601f830112611e8257611e81611b0c565b5b8135611e92848260208601611e04565b91505092915050565b60008060408385031215611eb257611eb161186a565b5b600083013567ffffffffffffffff811115611ed057611ecf61186f565b5b611edc85828601611e6d565b925050602083013567ffffffffffffffff811115611efd57611efc61186f565b5b611f0985828601611c26565b9150509250929050565b600081519050919050565b600082825260208201905092915050565b6000819050602082019050919050565b611f48816118d2565b82525050565b6000611f5a8383611f3f565b60208301905092915050565b6000602082019050919050565b6000611f7e82611f13565b611f888185611f1e565b9350611f9383611f2f565b8060005b83811015611fc4578151611fab8882611f4e565b9750611fb683611f66565b925050600181019050611f97565b5085935050505092915050565b60006020820190508181036000830152611feb8184611f73565b905092915050565b6000819050919050565b600061201861201361200e84611874565b611ff3565b611874565b9050919050565b600061202a82611ffd565b9050919050565b600061203c8261201f565b9050919050565b61204c81612031565b82525050565b60006020820190506120676000830184612043565b92915050565b600080604083850312156120845761208361186a565b5b6000612092858286016118f3565b92505060206120a3858286016118bd565b9150509250929050565b6120b6816119f7565b81146120c157600080fd5b50565b6000813590506120d3816120ad565b92915050565b600080604083850312156120f0576120ef61186a565b5b60006120fe858286016118bd565b925050602061210f858286016120c4565b9150509250929050565b600080604083850312156121305761212f61186a565b5b600061213e858286016118bd565b925050602061214f858286016118bd565b9150509250929050565b600080600080600060a086880312156121755761217461186a565b5b6000612183888289016118bd565b9550506020612194888289016118bd565b94505060406121a5888289016118f3565b93505060606121b6888289016118f3565b925050608086013567ffffffffffffffff8111156121d7576121d661186f565b5b6121e388828901611cdb565b9150509295509295909350565b6000806000606084860312156122095761220861186a565b5b6000612217868287016118bd565b9350506020612228868287016118f3565b9250506040612239868287016118f3565b9150509250925092565b7f455243313135353a2061646472657373207a65726f206973206e6f742061207660008201527f616c6964206f776e657200000000000000000000000000000000000000000000602082015250565b600061229f602a83611a65565b91506122aa82612243565b604082019050919050565b600060208201905081810360008301526122ce81612292565b9050919050565b7f4e487b7100000000000000000000000000000000000000000000000000000000600052602260045260246000fd5b6000600282049050600182168061231c57607f821691505b60208210810361232f5761232e6122d5565b5b50919050565b7f455243313135353a2063616c6c6572206973206e6f7420746f6b656e206f776e60008201527f6572206f7220617070726f766564000000000000000000000000000000000000602082015250565b6000612391602e83611a65565b915061239c82612335565b604082019050919050565b600060208201905081810360008301526123c081612384565b9050919050565b7f455243313135353a206163636f756e747320616e6420696473206c656e67746860008201527f206d69736d617463680000000000000000000000000000000000000000000000602082015250565b6000612423602983611a65565b915061242e826123c7565b604082019050919050565b6000602082019050818103600083015261245281612416565b9050919050565b7f4e487b7100000000000000000000000000000000000000000000000000000000600052603260045260246000fd5b7f4e487b7100000000000000000000000000000000000000000000000000000000600052601160045260246000fd5b60006124c2826118d2565b91507fffffffffffffffffffffffffffffffffffffffffffffffffffffffffffffffff82036124f4576124f3612488565b5b600182019050919050565b7f455243313135353a2069647320616e6420616d6f756e7473206c656e6774682060008201527f6d69736d61746368000000000000000000000000000000000000000000000000602082015250565b600061255b602883611a65565b9150612566826124ff565b604082019050919050565b6000602082019050818103600083015261258a8161254e565b9050919050565b7f455243313135353a207472616e7366657220746f20746865207a65726f20616460008201527f6472657373000000000000000000000000000000000000000000000000000000602082015250565b60006125ed602583611a65565b91506125f882612591565b604082019050919050565b6000602082019050818103600083015261261c816125e0565b9050919050565b7f455243313135353a20696e73756666696369656e742062616c616e636520666f60008201527f72207472616e7366657200000000000000000000000000000000000000000000602082015250565b600061267f602a83611a65565b915061268a82612623565b604082019050919050565b600060208201905081810360008301526126ae81612672565b9050919050565b60006126c0826118d2565b91506126cb836118d2565b92508282019050808211156126e3576126e2612488565b5b92915050565b600060408201905081810360008301526127038185611f73565b905081810360208301526127178184611f73565b90509392505050565b7f455243313135353a206d696e7420746f20746865207a65726f2061646472657360008201527f7300000000000000000000000000000000000000000000000000000000000000602082015250565b600061277c602183611a65565b915061278782612720565b604082019050919050565b600060208201905081810360008301526127ab8161276f565b9050919050565b60006040820190506127c76000830185611948565b6127d46020830184611948565b9392505050565b7f455243313135353a2073657474696e6720617070726f76616c2073746174757360008201527f20666f722073656c660000000000000000000000000000000000000000000000602082015250565b6000612837602983611a65565b9150612842826127db565b604082019050919050565b600060208201905081810360008301526128668161282a565b9050919050565b7f455243313135353a206275726e2066726f6d20746865207a65726f206164647260008201527f6573730000000000000000000000000000000000000000000000000000000000602082015250565b60006128c9602383611a65565b91506128d48261286d565b604082019050919050565b600060208201905081810360008301526128f8816128bc565b9050919050565b7f455243313135353a206275726e20616d6f756e7420657863656564732062616c60008201527f616e636500000000000000000000000000000000000000000000000000000000602082015250565b600061295b602483611a65565b9150612966826128ff565b604082019050919050565b6000602082019050818103600083015261298a8161294e565b9050919050565b61299a81611894565b82525050565b600081519050919050565b600082825260208201905092915050565b60006129c7826129a0565b6129d181856129ab565b93506129e1818560208601611a76565b6129ea81611aa0565b840191505092915050565b600060a082019050612a0a6000830188612991565b612a176020830187612991565b8181036040830152612a298186611f73565b90508181036060830152612a3d8185611f73565b90508181036080830152612a5181846129bc565b90509695505050505050565b600081519050612a6c8161199e565b92915050565b600060208284031215612a8857612a8761186a565b5b6000612a9684828501612a5d565b91505092915050565b60008160e01c9050919050565b600060033d1115612acb5760046000803e612ac8600051612a9f565b90505b90565b600060443d10612b5b57612ae0611860565b60043d036004823e80513d602482011167ffffffffffffffff82111715612b08575050612b5b565b808201805167ffffffffffffffff811115612b265750505050612b5b565b80602083010160043d038501811115612b43575050505050612b5b565b612b5282602001850186611b40565b82955050505050505b90565b7f455243313135353a207472616e7366657220746f206e6f6e2d4552433131353560008201527f526563656976657220696d706c656d656e746572000000000000000000000000602082015250565b6000612bba603483611a65565b9150612bc582612b5e565b604082019050919050565b60006020820190508181036000830152612be981612bad565b9050919050565b7f455243313135353a204552433131353552656365697665722072656a6563746560008201527f6420746f6b656e73000000000000000000000000000000000000000000000000602082015250565b6000612c4c602883611a65565b9150612c5782612bf0565b604082019050919050565b60006020820190508181036000830152612c7b81612c3f565b9050919050565b600060a082019050612c976000830188612991565b612ca46020830187612991565b612cb16040830186611948565b612cbe6060830185611948565b8181036080830152612cd081846129bc565b9050969550505050505056fea2646970667358221220a175df53a806bbd29827df311d3324f5631ad642ff045e7e696b773739e6bebf64736f6c6343000813003360a06040523480156200001157600080fd5b50604051620010e2380380620010e28339818101604052810190620000379190620000dc565b8073ffffffffffffffffffffffffffffffffffffffff1660808173ffffffffffffffffffffffffffffffffffffffff1681525050506200010e565b600080fd5b600073ffffffffffffffffffffffffffffffffffffffff82169050919050565b6000620000a48262000077565b9050919050565b620000b68162000097565b8114620000c257600080fd5b50565b600081519050620000d681620000ab565b92915050565b600060208284031215620000f557620000f462000072565b5b60006200010584828501620000c5565b91505092915050565b608051610f72620001706000396000818161018401528181610228015281816102e801528181610358015281816103e60152818161047601528181610506015281816107a601528181610833015281816108c3015261097f0152610f726000f3fe608060405234801561001057600080fd5b506004361061007d5760003560e01c8063adc20b1c1161005b578063adc20b1c146100d6578063b15220aa14610106578063f2a4a82e14610122578063f7ee7a43146101405761007d565b8063138f5c19146100825780634bba389d1461009e578063a0712d68146100ba575b600080fd5b61009c60048036038101906100979190610b3d565b61015e565b005b6100b860048036038101906100b39190610b90565b610179565b005b6100d460048036038101906100cf9190610b90565b610215565b005b6100f060048036038101906100eb9190610c1b565b6102b6565b6040516100fd9190610c57565b60405180910390f35b610120600480360381019061011b9190610c72565b6102ce565b005b61012a6102e6565b6040516101379190610d11565b60405180910390f35b61014861030a565b6040516101559190610c57565b60405180910390f35b61016983838361030f565b610174838383610356565b505050565b61018281610599565b7f000000000000000000000000000000000000000000000000000000000000000073ffffffffffffffffffffffffffffffffffffffff1663f5298aca338360016040518463ffffffff1660e01b81526004016101e093929190610d76565b600060405180830381600087803b1580156101fa57600080fd5b505af115801561020e573d6000803e3d6000fd5b5050505050565b61021e816105ed565b61022661062b565b7f000000000000000000000000000000000000000000000000000000000000000073ffffffffffffffffffffffffffffffffffffffff166394bf804d82336040518363ffffffff1660e01b8152600401610281929190610dad565b600060405180830381600087803b15801561029b57600080fd5b505af11580156102af573d6000803e3d6000fd5b5050505050565b60006020528060005260406000206000915090505481565b6102d88282610751565b6102e28282610796565b5050565b7f000000000000000000000000000000000000000000000000000000000000000081565b603c81565b61031a838383610956565b15610351576040517fb1bf621e00000000000000000000000000000000000000000000000000000000815260040160405180910390fd5b505050565b7f000000000000000000000000000000000000000000000000000000000000000073ffffffffffffffffffffffffffffffffffffffff166394bf804d6006336040518363ffffffff1660e01b81526004016103b2929190610e11565b600060405180830381600087803b1580156103cc57600080fd5b505af11580156103e0573d6000803e3d6000fd5b505050507f000000000000000000000000000000000000000000000000000000000000000073ffffffffffffffffffffffffffffffffffffffff1663f5298aca338560016040518463ffffffff1660e01b815260040161044293929190610d76565b600060405180830381600087803b15801561045c57600080fd5b505af1158015610470573d6000803e3d6000fd5b505050507f000000000000000000000000000000000000000000000000000000000000000073ffffffffffffffffffffffffffffffffffffffff1663f5298aca338460016040518463ffffffff1660e01b81526004016104d293929190610d76565b600060405180830381600087803b1580156104ec57600080fd5b505af1158015610500573d6000803e3d6000fd5b505050507f000000000000000000000000000000000000000000000000000000000000000073ffffffffffffffffffffffffffffffffffffffff1663f5298aca338360016040518463ffffffff1660e01b815260040161056293929190610d76565b600060405180830381600087803b15801561057c57600080fd5b505af1158015610590573d6000803e3d6000fd5b50505050505050565b6105a481600161097c565b60048110806105b35750600681115b156105ea576040517f8078985600000000000000000000000000000000000000000000000000000000815260040160405180910390fd5b50565b6002811115610628576040517f6eb70eec00000000000000000000000000000000000000000000000000000000815260040160405180910390fd5b50565b60008060003373ffffffffffffffffffffffffffffffffffffffff1673ffffffffffffffffffffffffffffffffffffffff16815260200190815260200160002054141580156106c35750603c426106829190610e69565b6000803373ffffffffffffffffffffffffffffffffffffffff1673ffffffffffffffffffffffffffffffffffffffff16815260200190815260200160002054115b1561074f57603c6000803373ffffffffffffffffffffffffffffffffffffffff1673ffffffffffffffffffffffffffffffffffffffff168152602001908152602001600020546107139190610e9d565b6040517f1a2d2d6b0000000000000000000000000000000000000000000000000000000081526004016107469190610c57565b60405180910390fd5b565b61075b8282610a54565b15610792576040517fb1bf621e00000000000000000000000000000000000000000000000000000000815260040160405180910390fd5b5050565b60006107a28383610a9b565b90507f000000000000000000000000000000000000000000000000000000000000000073ffffffffffffffffffffffffffffffffffffffff166394bf804d82336040518363ffffffff1660e01b81526004016107ff929190610dad565b600060405180830381600087803b15801561081957600080fd5b505af115801561082d573d6000803e3d6000fd5b505050507f000000000000000000000000000000000000000000000000000000000000000073ffffffffffffffffffffffffffffffffffffffff1663f5298aca338560016040518463ffffffff1660e01b815260040161088f93929190610d76565b600060405180830381600087803b1580156108a957600080fd5b505af11580156108bd573d6000803e3d6000fd5b505050507f000000000000000000000000000000000000000000000000000000000000000073ffffffffffffffffffffffffffffffffffffffff1663f5298aca338460016040518463ffffffff1660e01b815260040161091f93929190610d76565b600060405180830381600087803b15801561093957600080fd5b505af115801561094d573d6000803e3d6000fd5b50505050505050565b600080841480156109675750600183145b80156109735750600282145b90509392505050565b807f000000000000000000000000000000000000000000000000000000000000000073ffffffffffffffffffffffffffffffffffffffff1662fdd58e33856040518363ffffffff1660e01b81526004016109d7929190610ed1565b602060405180830381865afa1580156109f4573d6000803e3d6000fd5b505050506040513d601f19601f82011682018060405250810190610a189190610f0f565b1015610a50576040517f4c084f1400000000000000000000000000000000000000000000000000000000815260040160405180910390fd5b5050565b60008083148015610a655750600182145b80610a7c5750600183148015610a7b5750600282145b5b80610a935750600083148015610a925750600282145b5b905092915050565b60008083148015610aac5750600182145b15610aba5760039050610afc565b600183148015610aca5750600282145b15610ad85760049050610afc565b600083148015610ae85750600282145b15610af65760059050610afc565b61030990505b92915050565b600080fd5b6000819050919050565b610b1a81610b07565b8114610b2557600080fd5b50565b600081359050610b3781610b11565b92915050565b600080600060608486031215610b5657610b55610b02565b5b6000610b6486828701610b28565b9350506020610b7586828701610b28565b9250506040610b8686828701610b28565b9150509250925092565b600060208284031215610ba657610ba5610b02565b5b6000610bb484828501610b28565b91505092915050565b600073ffffffffffffffffffffffffffffffffffffffff82169050919050565b6000610be882610bbd565b9050919050565b610bf881610bdd565b8114610c0357600080fd5b50565b600081359050610c1581610bef565b92915050565b600060208284031215610c3157610c30610b02565b5b6000610c3f84828501610c06565b91505092915050565b610c5181610b07565b82525050565b6000602082019050610c6c6000830184610c48565b92915050565b60008060408385031215610c8957610c88610b02565b5b6000610c9785828601610b28565b9250506020610ca885828601610b28565b9150509250929050565b6000819050919050565b6000610cd7610cd2610ccd84610bbd565b610cb2565b610bbd565b9050919050565b6000610ce982610cbc565b9050919050565b6000610cfb82610cde565b9050919050565b610d0b81610cf0565b82525050565b6000602082019050610d266000830184610d02565b92915050565b610d3581610bdd565b82525050565b6000819050919050565b6000610d60610d5b610d5684610d3b565b610cb2565b610b07565b9050919050565b610d7081610d45565b82525050565b6000606082019050610d8b6000830186610d2c565b610d986020830185610c48565b610da56040830184610d67565b949350505050565b6000604082019050610dc26000830185610c48565b610dcf6020830184610d2c565b9392505050565b6000819050919050565b6000610dfb610df6610df184610dd6565b610cb2565b610b07565b9050919050565b610e0b81610de0565b82525050565b6000604082019050610e266000830185610e02565b610e336020830184610d2c565b9392505050565b7f4e487b7100000000000000000000000000000000000000000000000000000000600052601160045260246000fd5b6000610e7482610b07565b9150610e7f83610b07565b9250828203905081811115610e9757610e96610e3a565b5b92915050565b6000610ea882610b07565b9150610eb383610b07565b9250828201905080821115610ecb57610eca610e3a565b5b92915050565b6000604082019050610ee66000830185610d2c565b610ef36020830184610c48565b9392505050565b600081519050610f0981610b11565b92915050565b600060208284031215610f2557610f24610b02565b5b6000610f3384828501610efa565b9150509291505056fea2646970667358221220e92c54b6942664cf9c1d3166a7e9cce53f53598b6da4d9388a9ed806e2f8b99264736f6c63430008130033697066733a2f2f516d55537559505878336e785061434a6376634e5075454d53687a507075444c47686e446d6d746d4a6e34454a732f7b69647d",
  "linkReferences": {},
  "deployedLinkReferences": {}
}