{
  "_format": "hh-sol-artifact-1",
  "contractName": "Item",
  "sourceName": "contracts/Item.sol",
  "abi": [
    {
      "inputs": [],
      "stateMutability": "nonpayable",
      "type": "constructor"
    },
    {
      "inputs": [],
      "name": "OnlyForgeCanPerformAction",
      "type": "error"
    },
    {
      "anonymous": false,
      "inputs": [
        {
          "indexed": true,
          "internalType": "address",
          "name": "account",
          "type": "address"
        },
        {
          "indexed": true,
          "internalType": "address",
          "name": "operator",
          "type": "address"
        },
        {
          "indexed": false,
          "internalType": "bool",
          "name": "approved",
          "type": "bool"
        }
      ],
      "name": "ApprovalForAll",
      "type": "event"
    },
    {
      "anonymous": false,
      "inputs": [
        {
          "indexed": true,
          "internalType": "address",
          "name": "operator",
          "type": "address"
        },
        {
          "indexed": true,
          "internalType": "address",
          "name": "from",
          "type": "address"
        },
        {
          "indexed": true,
          "internalType": "address",
          "name": "to",
          "type": "address"
        },
        {
          "indexed": false,
          "internalType": "uint256[]",
          "name": "ids",
          "type": "uint256[]"
        },
        {
          "indexed": false,
          "internalType": "uint256[]",
          "name": "values",
          "type": "uint256[]"
        }
      ],
      "name": "TransferBatch",
      "type": "event"
    },
    {
      "anonymous": false,
      "inputs": [
        {
          "indexed": true,
          "internalType": "address",
          "name": "operator",
          "type": "address"
        },
        {
          "indexed": true,
          "internalType": "address",
          "name": "from",
          "type": "address"
        },
        {
          "indexed": true,
          "internalType": "address",
          "name": "to",
          "type": "address"
        },
        {
          "indexed": false,
          "internalType": "uint256",
          "name": "id",
          "type": "uint256"
        },
        {
          "indexed": false,
          "internalType": "uint256",
          "name": "value",
          "type": "uint256"
        }
      ],
      "name": "TransferSingle",
      "type": "event"
    },
    {
      "anonymous": false,
      "inputs": [
        {
          "indexed": false,
          "internalType": "string",
          "name": "value",
          "type": "string"
        },
        {
          "indexed": true,
          "internalType": "uint256",
          "name": "id",
          "type": "uint256"
        }
      ],
      "name": "URI",
      "type": "event"
    },
    {
      "inputs": [
        {
          "internalType": "address",
          "name": "account",
          "type": "address"
        },
        {
          "internalType": "uint256",
          "name": "id",
          "type": "uint256"
        }
      ],
      "name": "balanceOf",
      "outputs": [
        {
          "internalType": "uint256",
          "name": "",
          "type": "uint256"
        }
      ],
      "stateMutability": "view",
      "type": "function"
    },
    {
      "inputs": [
        {
          "internalType": "address[]",
          "name": "accounts",
          "type": "address[]"
        },
        {
          "internalType": "uint256[]",
          "name": "ids",
          "type": "uint256[]"
        }
      ],
      "name": "balanceOfBatch",
      "outputs": [
        {
          "internalType": "uint256[]",
          "name": "",
          "type": "uint256[]"
        }
      ],
      "stateMutability": "view",
      "type": "function"
    },
    {
      "inputs": [
        {
          "internalType": "address",
          "name": "_holder",
          "type": "address"
        },
        {
          "internalType": "uint256",
          "name": "_tokenId",
          "type": "uint256"
        },
        {
          "internalType": "uint256",
          "name": "_amount",
          "type": "uint256"
        }
      ],
      "name": "burn",
      "outputs": [],
      "stateMutability": "nonpayable",
      "type": "function"
    },
    {
      "inputs": [],
      "name": "forge",
      "outputs": [
        {
          "internalType": "contract Forge",
          "name": "",
          "type": "address"
        }
      ],
      "stateMutability": "view",
      "type": "function"
    },
    {
      "inputs": [
        {
          "internalType": "address",
          "name": "account",
          "type": "address"
        },
        {
          "internalType": "address",
          "name": "operator",
          "type": "address"
        }
      ],
      "name": "isApprovedForAll",
      "outputs": [
        {
          "internalType": "bool",
          "name": "",
          "type": "bool"
        }
      ],
      "stateMutability": "view",
      "type": "function"
    },
    {
      "inputs": [
        {
          "internalType": "uint256",
          "name": "_tokenId",
          "type": "uint256"
        },
        {
          "internalType": "address",
          "name": "_receiver",
          "type": "address"
        }
      ],
      "name": "mint",
      "outputs": [],
      "stateMutability": "nonpayable",
      "type": "function"
    },
    {
      "inputs": [
        {
          "internalType": "address",
          "name": "from",
          "type": "address"
        },
        {
          "internalType": "address",
          "name": "to",
          "type": "address"
        },
        {
          "internalType": "uint256[]",
          "name": "ids",
          "type": "uint256[]"
        },
        {
          "internalType": "uint256[]",
          "name": "amounts",
          "type": "uint256[]"
        },
        {
          "internalType": "bytes",
          "name": "data",
          "type": "bytes"
        }
      ],
      "name": "safeBatchTransferFrom",
      "outputs": [],
      "stateMutability": "nonpayable",
      "type": "function"
    },
    {
      "inputs": [
        {
          "internalType": "address",
          "name": "from",
          "type": "address"
        },
        {
          "internalType": "address",
          "name": "to",
          "type": "address"
        },
        {
          "internalType": "uint256",
          "name": "id",
          "type": "uint256"
        },
        {
          "internalType": "uint256",
          "name": "amount",
          "type": "uint256"
        },
        {
          "internalType": "bytes",
          "name": "data",
          "type": "bytes"
        }
      ],
      "name": "safeTransferFrom",
      "outputs": [],
      "stateMutability": "nonpayable",
      "type": "function"
    },
    {
      "inputs": [
        {
          "internalType": "address",
          "name": "operator",
          "type": "address"
        },
        {
          "internalType": "bool",
          "name": "approved",
          "type": "bool"
        }
      ],
      "name": "setApprovalForAll",
      "outputs": [],
      "stateMutability": "nonpayable",
      "type": "function"
    },
    {
      "inputs": [
        {
          "internalType": "bytes4",
          "name": "interfaceId",
          "type": "bytes4"
        }
      ],
      "name": "supportsInterface",
      "outputs": [
        {
          "internalType": "bool",
          "name": "",
          "type": "bool"
        }
      ],
      "stateMutability": "view",
      "type": "function"
    },
    {
      "inputs": [
        {
          "internalType": "uint256",
          "name": "",
          "type": "uint256"
        }
      ],
      "name": "uri",
      "outputs": [
        {
          "internalType": "string",
          "name": "",
          "type": "string"
        }
      ],
      "stateMutability": "view",
      "type": "function"
    },
    {
      "inputs": [],
      "name": "uri",
      "outputs": [
        {
          "internalType": "string",
          "name": "",
          "type": "string"
        }
      ],
      "stateMutability": "view",
      "type": "function"
    }
  ],
  "bytecode": "0x60a06040523480156200001157600080fd5b506040518060600160405280603a815260200162004c73603a91396200003d81620000b060201b60201c565b50306040516200004d90620000c5565b62000059919062000118565b604051809103906000f08015801562000076573d6000803e3d6000fd5b5073ffffffffffffffffffffffffffffffffffffffff1660808173ffffffffffffffffffffffffffffffffffffffff168152505062000496565b8060029081620000c19190620003af565b5050565b611a6e806200320583390190565b600073ffffffffffffffffffffffffffffffffffffffff82169050919050565b60006200010082620000d3565b9050919050565b6200011281620000f3565b82525050565b60006020820190506200012f600083018462000107565b92915050565b600081519050919050565b7f4e487b7100000000000000000000000000000000000000000000000000000000600052604160045260246000fd5b7f4e487b7100000000000000000000000000000000000000000000000000000000600052602260045260246000fd5b60006002820490506001821680620001b757607f821691505b602082108103620001cd57620001cc6200016f565b5b50919050565b60008190508160005260206000209050919050565b60006020601f8301049050919050565b600082821b905092915050565b600060088302620002377fffffffffffffffffffffffffffffffffffffffffffffffffffffffffffffffff82620001f8565b620002438683620001f8565b95508019841693508086168417925050509392505050565b6000819050919050565b6000819050919050565b6000620002906200028a62000284846200025b565b62000265565b6200025b565b9050919050565b6000819050919050565b620002ac836200026f565b620002c4620002bb8262000297565b84845462000205565b825550505050565b600090565b620002db620002cc565b620002e8818484620002a1565b505050565b5b81811015620003105762000304600082620002d1565b600181019050620002ee565b5050565b601f8211156200035f576200032981620001d3565b6200033484620001e8565b8101602085101562000344578190505b6200035c6200035385620001e8565b830182620002ed565b50505b505050565b600082821c905092915050565b6000620003846000198460080262000364565b1980831691505092915050565b60006200039f838362000371565b9150826002028217905092915050565b620003ba8262000135565b67ffffffffffffffff811115620003d657620003d562000140565b5b620003e282546200019e565b620003ef82828562000314565b600060209050601f83116001811462000427576000841562000412578287015190505b6200041e858262000391565b8655506200048e565b601f1984166200043786620001d3565b60005b8281101562000461578489015182556001820191506020850194506020810190506200043a565b868310156200048157848901516200047d601f89168262000371565b8355505b6001600288020188555050505b505050505050565b608051612d4c620004b96000396000818161066a0152610bbd0152612d4c6000f3fe608060405234801561001057600080fd5b50600436106100b35760003560e01c806394bf804d1161007157806394bf804d146101b2578063a22cb465146101ce578063e985e9c5146101ea578063eac989f81461021a578063f242432a14610238578063f5298aca14610254576100b3565b8062fdd58e146100b857806301ffc9a7146100e85780630e89341c146101185780632eb2c2d6146101485780634e1273f4146101645780636c6f423914610194575b600080fd5b6100d260048036038101906100cd9190611942565b610270565b6040516100df9190611991565b60405180910390f35b61010260048036038101906100fd9190611a04565b610338565b60405161010f9190611a4c565b60405180910390f35b610132600480360381019061012d9190611a67565b61041a565b60405161013f9190611b24565b60405180910390f35b610162600480360381019061015d9190611d43565b6104ae565b005b61017e60048036038101906101799190611ed5565b61054f565b60405161018b919061200b565b60405180910390f35b61019c610668565b6040516101a9919061208c565b60405180910390f35b6101cc60048036038101906101c791906120a7565b61068c565b005b6101e860048036038101906101e39190612113565b6106b4565b005b61020460048036038101906101ff9190612153565b6106ca565b6040516102119190611a4c565b60405180910390f35b61022261075e565b60405161022f9190611b24565b60405180910390f35b610252600480360381019061024d9190612193565b61076f565b005b61026e6004803603810190610269919061222a565b610810565b005b60008073ffffffffffffffffffffffffffffffffffffffff168373ffffffffffffffffffffffffffffffffffffffff16036102e0576040517f08c379a00000000000000000000000000000000000000000000000000000000081526004016102d7906122ef565b60405180910390fd5b60008083815260200190815260200160002060008473ffffffffffffffffffffffffffffffffffffffff1673ffffffffffffffffffffffffffffffffffffffff16815260200190815260200160002054905092915050565b60007fd9b67a26000000000000000000000000000000000000000000000000000000007bffffffffffffffffffffffffffffffffffffffffffffffffffffffff1916827bffffffffffffffffffffffffffffffffffffffffffffffffffffffff1916148061040357507f0e89341c000000000000000000000000000000000000000000000000000000007bffffffffffffffffffffffffffffffffffffffffffffffffffffffff1916827bffffffffffffffffffffffffffffffffffffffffffffffffffffffff1916145b80610413575061041282610828565b5b9050919050565b6060600280546104299061233e565b80601f01602080910402602001604051908101604052809291908181526020018280546104559061233e565b80156104a25780601f10610477576101008083540402835291602001916104a2565b820191906000526020600020905b81548152906001019060200180831161048557829003601f168201915b50505050509050919050565b6104b6610892565b73ffffffffffffffffffffffffffffffffffffffff168573ffffffffffffffffffffffffffffffffffffffff1614806104fc57506104fb856104f6610892565b6106ca565b5b61053b576040517f08c379a0000000000000000000000000000000000000000000000000000000008152600401610532906123e1565b60405180910390fd5b610548858585858561089a565b5050505050565b60608151835114610595576040517f08c379a000000000000000000000000000000000000000000000000000000000815260040161058c90612473565b60405180910390fd5b6000835167ffffffffffffffff8111156105b2576105b1611b4b565b5b6040519080825280602002602001820160405280156105e05781602001602082028036833780820191505090505b50905060005b845181101561065d5761062d85828151811061060557610604612493565b5b60200260200101518583815181106106205761061f612493565b5b6020026020010151610270565b8282815181106106405761063f612493565b5b60200260200101818152505080610656906124f1565b90506105e6565b508091505092915050565b7f000000000000000000000000000000000000000000000000000000000000000081565b610694610bbb565b6106b08183600160405180602001604052806000815250610c42565b5050565b6106c66106bf610892565b8383610df2565b5050565b6000600160008473ffffffffffffffffffffffffffffffffffffffff1673ffffffffffffffffffffffffffffffffffffffff16815260200190815260200160002060008373ffffffffffffffffffffffffffffffffffffffff1673ffffffffffffffffffffffffffffffffffffffff16815260200190815260200160002060009054906101000a900460ff16905092915050565b606061076a600161041a565b905090565b610777610892565b73ffffffffffffffffffffffffffffffffffffffff168573ffffffffffffffffffffffffffffffffffffffff1614806107bd57506107bc856107b7610892565b6106ca565b5b6107fc576040517f08c379a00000000000000000000000000000000000000000000000000000000081526004016107f3906123e1565b60405180910390fd5b6108098585858585610f5e565b5050505050565b610818610bbb565b6108238383836111f9565b505050565b60007f01ffc9a7000000000000000000000000000000000000000000000000000000007bffffffffffffffffffffffffffffffffffffffffffffffffffffffff1916827bffffffffffffffffffffffffffffffffffffffffffffffffffffffff1916149050919050565b600033905090565b81518351146108de576040517f08c379a00000000000000000000000000000000000000000000000000000000081526004016108d5906125ab565b60405180910390fd5b600073ffffffffffffffffffffffffffffffffffffffff168473ffffffffffffffffffffffffffffffffffffffff160361094d576040517f08c379a00000000000000000000000000000000000000000000000000000000081526004016109449061263d565b60405180910390fd5b6000610957610892565b905061096781878787878761143f565b60005b8451811015610b1857600085828151811061098857610987612493565b5b6020026020010151905060008583815181106109a7576109a6612493565b5b60200260200101519050600080600084815260200190815260200160002060008b73ffffffffffffffffffffffffffffffffffffffff1673ffffffffffffffffffffffffffffffffffffffff16815260200190815260200160002054905081811015610a48576040517f08c379a0000000000000000000000000000000000000000000000000000000008152600401610a3f906126cf565b60405180910390fd5b81810360008085815260200190815260200160002060008c73ffffffffffffffffffffffffffffffffffffffff1673ffffffffffffffffffffffffffffffffffffffff168152602001908152602001600020819055508160008085815260200190815260200160002060008b73ffffffffffffffffffffffffffffffffffffffff1673ffffffffffffffffffffffffffffffffffffffff1681526020019081526020016000206000828254610afd91906126ef565b9250508190555050505080610b11906124f1565b905061096a565b508473ffffffffffffffffffffffffffffffffffffffff168673ffffffffffffffffffffffffffffffffffffffff168273ffffffffffffffffffffffffffffffffffffffff167f4a39dc06d4c0dbc64b70af90fd698a233a518aa5d07e595d983b8c0526c8f7fb8787604051610b8f929190612723565b60405180910390a4610ba5818787878787611447565b610bb381878787878761144f565b505050505050565b7f000000000000000000000000000000000000000000000000000000000000000073ffffffffffffffffffffffffffffffffffffffff163373ffffffffffffffffffffffffffffffffffffffff1614610c40576040517f380b8eb000000000000000000000000000000000000000000000000000000000815260040160405180910390fd5b565b600073ffffffffffffffffffffffffffffffffffffffff168473ffffffffffffffffffffffffffffffffffffffff1603610cb1576040517f08c379a0000000000000000000000000000000000000000000000000000000008152600401610ca8906127cc565b60405180910390fd5b6000610cbb610892565b90506000610cc885611626565b90506000610cd585611626565b9050610ce68360008985858961143f565b8460008088815260200190815260200160002060008973ffffffffffffffffffffffffffffffffffffffff1673ffffffffffffffffffffffffffffffffffffffff1681526020019081526020016000206000828254610d4591906126ef565b925050819055508673ffffffffffffffffffffffffffffffffffffffff16600073ffffffffffffffffffffffffffffffffffffffff168473ffffffffffffffffffffffffffffffffffffffff167fc3d58168c5ae7397731d063d5bbf3d657854427343f4c083240f7aacaa2d0f628989604051610dc39291906127ec565b60405180910390a4610dda83600089858589611447565b610de9836000898989896116a0565b50505050505050565b8173ffffffffffffffffffffffffffffffffffffffff168373ffffffffffffffffffffffffffffffffffffffff1603610e60576040517f08c379a0000000000000000000000000000000000000000000000000000000008152600401610e5790612887565b60405180910390fd5b80600160008573ffffffffffffffffffffffffffffffffffffffff1673ffffffffffffffffffffffffffffffffffffffff16815260200190815260200160002060008473ffffffffffffffffffffffffffffffffffffffff1673ffffffffffffffffffffffffffffffffffffffff16815260200190815260200160002060006101000a81548160ff0219169083151502179055508173ffffffffffffffffffffffffffffffffffffffff168373ffffffffffffffffffffffffffffffffffffffff167f17307eab39ab6107e8899845ad3d59bd9653f200f220920489ca2b5937696c3183604051610f519190611a4c565b60405180910390a3505050565b600073ffffffffffffffffffffffffffffffffffffffff168473ffffffffffffffffffffffffffffffffffffffff1603610fcd576040517f08c379a0000000000000000000000000000000000000000000000000000000008152600401610fc49061263d565b60405180910390fd5b6000610fd7610892565b90506000610fe485611626565b90506000610ff185611626565b905061100183898985858961143f565b600080600088815260200190815260200160002060008a73ffffffffffffffffffffffffffffffffffffffff1673ffffffffffffffffffffffffffffffffffffffff16815260200190815260200160002054905085811015611098576040517f08c379a000000000000000000000000000000000000000000000000000000000815260040161108f906126cf565b60405180910390fd5b85810360008089815260200190815260200160002060008b73ffffffffffffffffffffffffffffffffffffffff1673ffffffffffffffffffffffffffffffffffffffff168152602001908152602001600020819055508560008089815260200190815260200160002060008a73ffffffffffffffffffffffffffffffffffffffff1673ffffffffffffffffffffffffffffffffffffffff168152602001908152602001600020600082825461114d91906126ef565b925050819055508773ffffffffffffffffffffffffffffffffffffffff168973ffffffffffffffffffffffffffffffffffffffff168573ffffffffffffffffffffffffffffffffffffffff167fc3d58168c5ae7397731d063d5bbf3d657854427343f4c083240f7aacaa2d0f628a8a6040516111ca9291906127ec565b60405180910390a46111e0848a8a86868a611447565b6111ee848a8a8a8a8a6116a0565b505050505050505050565b600073ffffffffffffffffffffffffffffffffffffffff168373ffffffffffffffffffffffffffffffffffffffff1603611268576040517f08c379a000000000000000000000000000000000000000000000000000000000815260040161125f90612919565b60405180910390fd5b6000611272610892565b9050600061127f84611626565b9050600061128c84611626565b90506112ac8387600085856040518060200160405280600081525061143f565b600080600087815260200190815260200160002060008873ffffffffffffffffffffffffffffffffffffffff1673ffffffffffffffffffffffffffffffffffffffff16815260200190815260200160002054905084811015611343576040517f08c379a000000000000000000000000000000000000000000000000000000000815260040161133a906129ab565b60405180910390fd5b84810360008088815260200190815260200160002060008973ffffffffffffffffffffffffffffffffffffffff1673ffffffffffffffffffffffffffffffffffffffff16815260200190815260200160002081905550600073ffffffffffffffffffffffffffffffffffffffff168773ffffffffffffffffffffffffffffffffffffffff168573ffffffffffffffffffffffffffffffffffffffff167fc3d58168c5ae7397731d063d5bbf3d657854427343f4c083240f7aacaa2d0f6289896040516114109291906127ec565b60405180910390a461143684886000868660405180602001604052806000815250611447565b50505050505050565b505050505050565b505050505050565b61146e8473ffffffffffffffffffffffffffffffffffffffff16611877565b1561161e578373ffffffffffffffffffffffffffffffffffffffff1663bc197c8187878686866040518663ffffffff1660e01b81526004016114b4959493929190612a2f565b6020604051808303816000875af19250505080156114f057506040513d601f19601f820116820180604052508101906114ed9190612aac565b60015b611595576114fc612ae6565b806308c379a0036115585750611510612b08565b8061151b575061155a565b806040517f08c379a000000000000000000000000000000000000000000000000000000000815260040161154f9190611b24565b60405180910390fd5b505b6040517f08c379a000000000000000000000000000000000000000000000000000000000815260040161158c90612c0a565b60405180910390fd5b63bc197c8160e01b7bffffffffffffffffffffffffffffffffffffffffffffffffffffffff1916817bffffffffffffffffffffffffffffffffffffffffffffffffffffffff19161461161c576040517f08c379a000000000000000000000000000000000000000000000000000000000815260040161161390612c9c565b60405180910390fd5b505b505050505050565b60606000600167ffffffffffffffff81111561164557611644611b4b565b5b6040519080825280602002602001820160405280156116735781602001602082028036833780820191505090505b509050828160008151811061168b5761168a612493565b5b60200260200101818152505080915050919050565b6116bf8473ffffffffffffffffffffffffffffffffffffffff16611877565b1561186f578373ffffffffffffffffffffffffffffffffffffffff1663f23a6e6187878686866040518663ffffffff1660e01b8152600401611705959493929190612cbc565b6020604051808303816000875af192505050801561174157506040513d601f19601f8201168201806040525081019061173e9190612aac565b60015b6117e65761174d612ae6565b806308c379a0036117a95750611761612b08565b8061176c57506117ab565b806040517f08c379a00000000000000000000000000000000000000000000000000000000081526004016117a09190611b24565b60405180910390fd5b505b6040517f08c379a00000000000000000000000000000000000000000000000000000000081526004016117dd90612c0a565b60405180910390fd5b63f23a6e6160e01b7bffffffffffffffffffffffffffffffffffffffffffffffffffffffff1916817bffffffffffffffffffffffffffffffffffffffffffffffffffffffff19161461186d576040517f08c379a000000000000000000000000000000000000000000000000000000000815260040161186490612c9c565b60405180910390fd5b505b505050505050565b6000808273ffffffffffffffffffffffffffffffffffffffff163b119050919050565b6000604051905090565b600080fd5b600080fd5b600073ffffffffffffffffffffffffffffffffffffffff82169050919050565b60006118d9826118ae565b9050919050565b6118e9816118ce565b81146118f457600080fd5b50565b600081359050611906816118e0565b92915050565b6000819050919050565b61191f8161190c565b811461192a57600080fd5b50565b60008135905061193c81611916565b92915050565b60008060408385031215611959576119586118a4565b5b6000611967858286016118f7565b92505060206119788582860161192d565b9150509250929050565b61198b8161190c565b82525050565b60006020820190506119a66000830184611982565b92915050565b60007fffffffff0000000000000000000000000000000000000000000000000000000082169050919050565b6119e1816119ac565b81146119ec57600080fd5b50565b6000813590506119fe816119d8565b92915050565b600060208284031215611a1a57611a196118a4565b5b6000611a28848285016119ef565b91505092915050565b60008115159050919050565b611a4681611a31565b82525050565b6000602082019050611a616000830184611a3d565b92915050565b600060208284031215611a7d57611a7c6118a4565b5b6000611a8b8482850161192d565b91505092915050565b600081519050919050565b600082825260208201905092915050565b60005b83811015611ace578082015181840152602081019050611ab3565b60008484015250505050565b6000601f19601f8301169050919050565b6000611af682611a94565b611b008185611a9f565b9350611b10818560208601611ab0565b611b1981611ada565b840191505092915050565b60006020820190508181036000830152611b3e8184611aeb565b905092915050565b600080fd5b7f4e487b7100000000000000000000000000000000000000000000000000000000600052604160045260246000fd5b611b8382611ada565b810181811067ffffffffffffffff82111715611ba257611ba1611b4b565b5b80604052505050565b6000611bb561189a565b9050611bc18282611b7a565b919050565b600067ffffffffffffffff821115611be157611be0611b4b565b5b602082029050602081019050919050565b600080fd5b6000611c0a611c0584611bc6565b611bab565b90508083825260208201905060208402830185811115611c2d57611c2c611bf2565b5b835b81811015611c565780611c42888261192d565b845260208401935050602081019050611c2f565b5050509392505050565b600082601f830112611c7557611c74611b46565b5b8135611c85848260208601611bf7565b91505092915050565b600080fd5b600067ffffffffffffffff821115611cae57611cad611b4b565b5b611cb782611ada565b9050602081019050919050565b82818337600083830152505050565b6000611ce6611ce184611c93565b611bab565b905082815260208101848484011115611d0257611d01611c8e565b5b611d0d848285611cc4565b509392505050565b600082601f830112611d2a57611d29611b46565b5b8135611d3a848260208601611cd3565b91505092915050565b600080600080600060a08688031215611d5f57611d5e6118a4565b5b6000611d6d888289016118f7565b9550506020611d7e888289016118f7565b945050604086013567ffffffffffffffff811115611d9f57611d9e6118a9565b5b611dab88828901611c60565b935050606086013567ffffffffffffffff811115611dcc57611dcb6118a9565b5b611dd888828901611c60565b925050608086013567ffffffffffffffff811115611df957611df86118a9565b5b611e0588828901611d15565b9150509295509295909350565b600067ffffffffffffffff821115611e2d57611e2c611b4b565b5b602082029050602081019050919050565b6000611e51611e4c84611e12565b611bab565b90508083825260208201905060208402830185811115611e7457611e73611bf2565b5b835b81811015611e9d5780611e8988826118f7565b845260208401935050602081019050611e76565b5050509392505050565b600082601f830112611ebc57611ebb611b46565b5b8135611ecc848260208601611e3e565b91505092915050565b60008060408385031215611eec57611eeb6118a4565b5b600083013567ffffffffffffffff811115611f0a57611f096118a9565b5b611f1685828601611ea7565b925050602083013567ffffffffffffffff811115611f3757611f366118a9565b5b611f4385828601611c60565b9150509250929050565b600081519050919050565b600082825260208201905092915050565b6000819050602082019050919050565b611f828161190c565b82525050565b6000611f948383611f79565b60208301905092915050565b6000602082019050919050565b6000611fb882611f4d565b611fc28185611f58565b9350611fcd83611f69565b8060005b83811015611ffe578151611fe58882611f88565b9750611ff083611fa0565b925050600181019050611fd1565b5085935050505092915050565b600060208201905081810360008301526120258184611fad565b905092915050565b6000819050919050565b600061205261204d612048846118ae565b61202d565b6118ae565b9050919050565b600061206482612037565b9050919050565b600061207682612059565b9050919050565b6120868161206b565b82525050565b60006020820190506120a1600083018461207d565b92915050565b600080604083850312156120be576120bd6118a4565b5b60006120cc8582860161192d565b92505060206120dd858286016118f7565b9150509250929050565b6120f081611a31565b81146120fb57600080fd5b50565b60008135905061210d816120e7565b92915050565b6000806040838503121561212a576121296118a4565b5b6000612138858286016118f7565b9250506020612149858286016120fe565b9150509250929050565b6000806040838503121561216a576121696118a4565b5b6000612178858286016118f7565b9250506020612189858286016118f7565b9150509250929050565b600080600080600060a086880312156121af576121ae6118a4565b5b60006121bd888289016118f7565b95505060206121ce888289016118f7565b94505060406121df8882890161192d565b93505060606121f08882890161192d565b925050608086013567ffffffffffffffff811115612211576122106118a9565b5b61221d88828901611d15565b9150509295509295909350565b600080600060608486031215612243576122426118a4565b5b6000612251868287016118f7565b93505060206122628682870161192d565b92505060406122738682870161192d565b9150509250925092565b7f455243313135353a2061646472657373207a65726f206973206e6f742061207660008201527f616c6964206f776e657200000000000000000000000000000000000000000000602082015250565b60006122d9602a83611a9f565b91506122e48261227d565b604082019050919050565b60006020820190508181036000830152612308816122cc565b9050919050565b7f4e487b7100000000000000000000000000000000000000000000000000000000600052602260045260246000fd5b6000600282049050600182168061235657607f821691505b6020821081036123695761236861230f565b5b50919050565b7f455243313135353a2063616c6c6572206973206e6f7420746f6b656e206f776e60008201527f6572206f7220617070726f766564000000000000000000000000000000000000602082015250565b60006123cb602e83611a9f565b91506123d68261236f565b604082019050919050565b600060208201905081810360008301526123fa816123be565b9050919050565b7f455243313135353a206163636f756e747320616e6420696473206c656e67746860008201527f206d69736d617463680000000000000000000000000000000000000000000000602082015250565b600061245d602983611a9f565b915061246882612401565b604082019050919050565b6000602082019050818103600083015261248c81612450565b9050919050565b7f4e487b7100000000000000000000000000000000000000000000000000000000600052603260045260246000fd5b7f4e487b7100000000000000000000000000000000000000000000000000000000600052601160045260246000fd5b60006124fc8261190c565b91507fffffffffffffffffffffffffffffffffffffffffffffffffffffffffffffffff820361252e5761252d6124c2565b5b600182019050919050565b7f455243313135353a2069647320616e6420616d6f756e7473206c656e6774682060008201527f6d69736d61746368000000000000000000000000000000000000000000000000602082015250565b6000612595602883611a9f565b91506125a082612539565b604082019050919050565b600060208201905081810360008301526125c481612588565b9050919050565b7f455243313135353a207472616e7366657220746f20746865207a65726f20616460008201527f6472657373000000000000000000000000000000000000000000000000000000602082015250565b6000612627602583611a9f565b9150612632826125cb565b604082019050919050565b600060208201905081810360008301526126568161261a565b9050919050565b7f455243313135353a20696e73756666696369656e742062616c616e636520666f60008201527f72207472616e7366657200000000000000000000000000000000000000000000602082015250565b60006126b9602a83611a9f565b91506126c48261265d565b604082019050919050565b600060208201905081810360008301526126e8816126ac565b9050919050565b60006126fa8261190c565b91506127058361190c565b925082820190508082111561271d5761271c6124c2565b5b92915050565b6000604082019050818103600083015261273d8185611fad565b905081810360208301526127518184611fad565b90509392505050565b7f455243313135353a206d696e7420746f20746865207a65726f2061646472657360008201527f7300000000000000000000000000000000000000000000000000000000000000602082015250565b60006127b6602183611a9f565b91506127c18261275a565b604082019050919050565b600060208201905081810360008301526127e5816127a9565b9050919050565b60006040820190506128016000830185611982565b61280e6020830184611982565b9392505050565b7f455243313135353a2073657474696e6720617070726f76616c2073746174757360008201527f20666f722073656c660000000000000000000000000000000000000000000000602082015250565b6000612871602983611a9f565b915061287c82612815565b604082019050919050565b600060208201905081810360008301526128a081612864565b9050919050565b7f455243313135353a206275726e2066726f6d20746865207a65726f206164647260008201527f6573730000000000000000000000000000000000000000000000000000000000602082015250565b6000612903602383611a9f565b915061290e826128a7565b604082019050919050565b60006020820190508181036000830152612932816128f6565b9050919050565b7f455243313135353a206275726e20616d6f756e7420657863656564732062616c60008201527f616e636500000000000000000000000000000000000000000000000000000000602082015250565b6000612995602483611a9f565b91506129a082612939565b604082019050919050565b600060208201905081810360008301526129c481612988565b9050919050565b6129d4816118ce565b82525050565b600081519050919050565b600082825260208201905092915050565b6000612a01826129da565b612a0b81856129e5565b9350612a1b818560208601611ab0565b612a2481611ada565b840191505092915050565b600060a082019050612a4460008301886129cb565b612a5160208301876129cb565b8181036040830152612a638186611fad565b90508181036060830152612a778185611fad565b90508181036080830152612a8b81846129f6565b90509695505050505050565b600081519050612aa6816119d8565b92915050565b600060208284031215612ac257612ac16118a4565b5b6000612ad084828501612a97565b91505092915050565b60008160e01c9050919050565b600060033d1115612b055760046000803e612b02600051612ad9565b90505b90565b600060443d10612b9557612b1a61189a565b60043d036004823e80513d602482011167ffffffffffffffff82111715612b42575050612b95565b808201805167ffffffffffffffff811115612b605750505050612b95565b80602083010160043d038501811115612b7d575050505050612b95565b612b8c82602001850186611b7a565b82955050505050505b90565b7f455243313135353a207472616e7366657220746f206e6f6e2d4552433131353560008201527f526563656976657220696d706c656d656e746572000000000000000000000000602082015250565b6000612bf4603483611a9f565b9150612bff82612b98565b604082019050919050565b60006020820190508181036000830152612c2381612be7565b9050919050565b7f455243313135353a204552433131353552656365697665722072656a6563746560008201527f6420746f6b656e73000000000000000000000000000000000000000000000000602082015250565b6000612c86602883611a9f565b9150612c9182612c2a565b604082019050919050565b60006020820190508181036000830152612cb581612c79565b9050919050565b600060a082019050612cd160008301886129cb565b612cde60208301876129cb565b612ceb6040830186611982565b612cf86060830185611982565b8181036080830152612d0a81846129f6565b9050969550505050505056fea2646970667358221220b2684849aecaaa5cbad7a369bdfac74820c635509ee0b6845331ebd8f6346d9864736f6c6343000813003360a06040523480156200001157600080fd5b5060405162001a6e38038062001a6e8339818101604052810190620000379190620000dc565b8073ffffffffffffffffffffffffffffffffffffffff1660808173ffffffffffffffffffffffffffffffffffffffff1681525050506200010e565b600080fd5b600073ffffffffffffffffffffffffffffffffffffffff82169050919050565b6000620000a48262000077565b9050919050565b620000b68162000097565b8114620000c257600080fd5b50565b600081519050620000d681620000ab565b92915050565b600060208284031215620000f557620000f462000072565b5b60006200010584828501620000c5565b91505092915050565b6080516118aa620001c460003960008181610253015281816103680152818161046001528181610531015281816105de0152818161066e015281816106ff01528181610815015281816108bc0152818161096401528181610a0b01528181610ab301528181610b5a01528181610c0201528181610ca901528181610d5101528181610fd701528181611064015281816110f40152818161118901528181611216015281816112a6015261133601526118aa6000f3fe608060405234801561001057600080fd5b50600436106100a95760003560e01c8063a94e834b11610071578063a94e834b14610164578063adc20b1c14610180578063d3de7933146101b0578063e20be69a146101e0578063f2a4a82e146101fc578063f7ee7a431461021a576100a9565b80632000d430146100ae57806342966c68146100cc57806349fb1aed146100e857806354c2617a14610118578063a0712d6814610148575b600080fd5b6100b6610238565b6040516100c391906113e5565b60405180910390f35b6100e660048036038101906100e1919061143b565b610248565b005b61010260048036038101906100fd919061143b565b6102e4565b60405161010f91906113e5565b60405180910390f35b610132600480360381019061012d919061143b565b610352565b60405161013f91906113e5565b60405180910390f35b610162600480360381019061015d919061143b565b61040a565b005b61017e6004803603810190610179919061143b565b6104ee565b005b61019a600480360381019061019591906114c6565b610503565b6040516101a79190611502565b60405180910390f35b6101ca60048036038101906101c5919061143b565b61051b565b6040516101d791906113e5565b60405180910390f35b6101fa60048036038101906101f5919061151d565b6105d3565b005b6102046106fd565b60405161021191906115bc565b60405180910390f35b610222610721565b60405161022f9190611502565b60405180910390f35b600061024333610726565b905090565b610251816107c6565b7f000000000000000000000000000000000000000000000000000000000000000073ffffffffffffffffffffffffffffffffffffffff1663f5298aca338360016040518463ffffffff1660e01b81526004016102af93929190611621565b600060405180830381600087803b1580156102c957600080fd5b505af11580156102dd573d6000803e3d6000fd5b5050505050565b60006003821480156102fa57506102f961080f565b5b806103155750600482148015610314575061031361095e565b5b5b80610330575060058214801561032f575061032e610aad565b5b5b8061034b575060068214801561034a5750610349610bfc565b5b5b9050919050565b600061035d82610df3565b8015610403575060007f000000000000000000000000000000000000000000000000000000000000000073ffffffffffffffffffffffffffffffffffffffff1662fdd58e33856040518363ffffffff1660e01b81526004016103c0929190611658565b602060405180830381865afa1580156103dd573d6000803e3d6000fd5b505050506040513d601f19601f820116820180604052508101906104019190611696565b115b9050919050565b61041381610e0e565b61041b610e4c565b426000803373ffffffffffffffffffffffffffffffffffffffff1673ffffffffffffffffffffffffffffffffffffffff168152602001908152602001600020819055507f000000000000000000000000000000000000000000000000000000000000000073ffffffffffffffffffffffffffffffffffffffff166394bf804d82336040518363ffffffff1660e01b81526004016104b99291906116c3565b600060405180830381600087803b1580156104d357600080fd5b505af11580156104e7573d6000803e3d6000fd5b5050505050565b6104f781610eee565b61050081610f30565b50565b60006020528060005260406000206000915090505481565b600061052682610df3565b80156105cc575060007f000000000000000000000000000000000000000000000000000000000000000073ffffffffffffffffffffffffffffffffffffffff1662fdd58e33856040518363ffffffff1660e01b8152600401610589929190611658565b602060405180830381865afa1580156105a6573d6000803e3d6000fd5b505050506040513d601f19601f820116820180604052508101906105ca9190611696565b115b9050919050565b6105dc82610f93565b7f000000000000000000000000000000000000000000000000000000000000000073ffffffffffffffffffffffffffffffffffffffff1663f5298aca338460016040518463ffffffff1660e01b815260040161063a93929190611621565b600060405180830381600087803b15801561065457600080fd5b505af1158015610668573d6000803e3d6000fd5b505050507f000000000000000000000000000000000000000000000000000000000000000073ffffffffffffffffffffffffffffffffffffffff166394bf804d82336040518363ffffffff1660e01b81526004016106c79291906116c3565b600060405180830381600087803b1580156106e157600080fd5b505af11580156106f5573d6000803e3d6000fd5b505050505050565b7f000000000000000000000000000000000000000000000000000000000000000081565b603c81565b6000806000808473ffffffffffffffffffffffffffffffffffffffff1673ffffffffffffffffffffffffffffffffffffffff16815260200190815260200160002054141580156107bf5750603c4261077e919061171b565b6000808473ffffffffffffffffffffffffffffffffffffffff1673ffffffffffffffffffffffffffffffffffffffff16815260200190815260200160002054115b9050919050565b60048110806107d55750600681115b1561080c576040517f8078985600000000000000000000000000000000000000000000000000000000815260040160405180910390fd5b50565b600060017f000000000000000000000000000000000000000000000000000000000000000073ffffffffffffffffffffffffffffffffffffffff1662fdd58e3360006040518363ffffffff1660e01b815260040161086e92919061178a565b602060405180830381865afa15801561088b573d6000803e3d6000fd5b505050506040513d601f19601f820116820180604052508101906108af9190611696565b10158015610959575060017f000000000000000000000000000000000000000000000000000000000000000073ffffffffffffffffffffffffffffffffffffffff1662fdd58e3360016040518363ffffffff1660e01b81526004016109159291906117b3565b602060405180830381865afa158015610932573d6000803e3d6000fd5b505050506040513d601f19601f820116820180604052508101906109569190611696565b10155b905090565b600060017f000000000000000000000000000000000000000000000000000000000000000073ffffffffffffffffffffffffffffffffffffffff1662fdd58e3360016040518363ffffffff1660e01b81526004016109bd9291906117b3565b602060405180830381865afa1580156109da573d6000803e3d6000fd5b505050506040513d601f19601f820116820180604052508101906109fe9190611696565b10158015610aa8575060017f000000000000000000000000000000000000000000000000000000000000000073ffffffffffffffffffffffffffffffffffffffff1662fdd58e3360026040518363ffffffff1660e01b8152600401610a64929190611817565b602060405180830381865afa158015610a81573d6000803e3d6000fd5b505050506040513d601f19601f82011682018060405250810190610aa59190611696565b10155b905090565b600060017f000000000000000000000000000000000000000000000000000000000000000073ffffffffffffffffffffffffffffffffffffffff1662fdd58e3360006040518363ffffffff1660e01b8152600401610b0c92919061178a565b602060405180830381865afa158015610b29573d6000803e3d6000fd5b505050506040513d601f19601f82011682018060405250810190610b4d9190611696565b10158015610bf7575060017f000000000000000000000000000000000000000000000000000000000000000073ffffffffffffffffffffffffffffffffffffffff1662fdd58e3360026040518363ffffffff1660e01b8152600401610bb3929190611817565b602060405180830381865afa158015610bd0573d6000803e3d6000fd5b505050506040513d601f19601f82011682018060405250810190610bf49190611696565b10155b905090565b600060017f000000000000000000000000000000000000000000000000000000000000000073ffffffffffffffffffffffffffffffffffffffff1662fdd58e3360006040518363ffffffff1660e01b8152600401610c5b92919061178a565b602060405180830381865afa158015610c78573d6000803e3d6000fd5b505050506040513d601f19601f82011682018060405250810190610c9c9190611696565b10158015610d46575060017f000000000000000000000000000000000000000000000000000000000000000073ffffffffffffffffffffffffffffffffffffffff1662fdd58e3360016040518363ffffffff1660e01b8152600401610d029291906117b3565b602060405180830381865afa158015610d1f573d6000803e3d6000fd5b505050506040513d601f19601f82011682018060405250810190610d439190611696565b10155b8015610dee575060017f000000000000000000000000000000000000000000000000000000000000000073ffffffffffffffffffffffffffffffffffffffff1662fdd58e3360026040518363ffffffff1660e01b8152600401610daa929190611817565b602060405180830381865afa158015610dc7573d6000803e3d6000fd5b505050506040513d601f19601f82011682018060405250810190610deb9190611696565b10155b905090565b600060038210158015610e07575060068211155b9050919050565b6002811115610e49576040517f6eb70eec00000000000000000000000000000000000000000000000000000000815260040160405180910390fd5b50565b610e5533610726565b15610eec5742603c6000803373ffffffffffffffffffffffffffffffffffffffff1673ffffffffffffffffffffffffffffffffffffffff16815260200190815260200160002054610ea69190611840565b610eb0919061171b565b6040517f1a2d2d6b000000000000000000000000000000000000000000000000000000008152600401610ee39190611502565b60405180910390fd5b565b610ef7816102e4565b610f2d576040517f790b50b100000000000000000000000000000000000000000000000000000000815260040160405180910390fd5b50565b60038103610f4a57610f458160006001610fd5565b610f90565b60048103610f6457610f5f8160016002610fd5565b610f8f565b60058103610f7e57610f798160006002610fd5565b610f8e565b610f8d81600060016002611187565b5b5b5b50565b610f9c81610352565b610fd2576040517ff438643700000000000000000000000000000000000000000000000000000000815260040160405180910390fd5b50565b7f000000000000000000000000000000000000000000000000000000000000000073ffffffffffffffffffffffffffffffffffffffff166394bf804d84336040518363ffffffff1660e01b81526004016110309291906116c3565b600060405180830381600087803b15801561104a57600080fd5b505af115801561105e573d6000803e3d6000fd5b505050507f000000000000000000000000000000000000000000000000000000000000000073ffffffffffffffffffffffffffffffffffffffff1663f5298aca338460016040518463ffffffff1660e01b81526004016110c093929190611621565b600060405180830381600087803b1580156110da57600080fd5b505af11580156110ee573d6000803e3d6000fd5b505050507f000000000000000000000000000000000000000000000000000000000000000073ffffffffffffffffffffffffffffffffffffffff1663f5298aca338360016040518463ffffffff1660e01b815260040161115093929190611621565b600060405180830381600087803b15801561116a57600080fd5b505af115801561117e573d6000803e3d6000fd5b50505050505050565b7f000000000000000000000000000000000000000000000000000000000000000073ffffffffffffffffffffffffffffffffffffffff166394bf804d85336040518363ffffffff1660e01b81526004016111e29291906116c3565b600060405180830381600087803b1580156111fc57600080fd5b505af1158015611210573d6000803e3d6000fd5b505050507f000000000000000000000000000000000000000000000000000000000000000073ffffffffffffffffffffffffffffffffffffffff1663f5298aca338560016040518463ffffffff1660e01b815260040161127293929190611621565b600060405180830381600087803b15801561128c57600080fd5b505af11580156112a0573d6000803e3d6000fd5b505050507f000000000000000000000000000000000000000000000000000000000000000073ffffffffffffffffffffffffffffffffffffffff1663f5298aca338460016040518463ffffffff1660e01b815260040161130293929190611621565b600060405180830381600087803b15801561131c57600080fd5b505af1158015611330573d6000803e3d6000fd5b505050507f000000000000000000000000000000000000000000000000000000000000000073ffffffffffffffffffffffffffffffffffffffff1663f5298aca338360016040518463ffffffff1660e01b815260040161139293929190611621565b600060405180830381600087803b1580156113ac57600080fd5b505af11580156113c0573d6000803e3d6000fd5b5050505050505050565b60008115159050919050565b6113df816113ca565b82525050565b60006020820190506113fa60008301846113d6565b92915050565b600080fd5b6000819050919050565b61141881611405565b811461142357600080fd5b50565b6000813590506114358161140f565b92915050565b60006020828403121561145157611450611400565b5b600061145f84828501611426565b91505092915050565b600073ffffffffffffffffffffffffffffffffffffffff82169050919050565b600061149382611468565b9050919050565b6114a381611488565b81146114ae57600080fd5b50565b6000813590506114c08161149a565b92915050565b6000602082840312156114dc576114db611400565b5b60006114ea848285016114b1565b91505092915050565b6114fc81611405565b82525050565b600060208201905061151760008301846114f3565b92915050565b6000806040838503121561153457611533611400565b5b600061154285828601611426565b925050602061155385828601611426565b9150509250929050565b6000819050919050565b600061158261157d61157884611468565b61155d565b611468565b9050919050565b600061159482611567565b9050919050565b60006115a682611589565b9050919050565b6115b68161159b565b82525050565b60006020820190506115d160008301846115ad565b92915050565b6115e081611488565b82525050565b6000819050919050565b600061160b611606611601846115e6565b61155d565b611405565b9050919050565b61161b816115f0565b82525050565b600060608201905061163660008301866115d7565b61164360208301856114f3565b6116506040830184611612565b949350505050565b600060408201905061166d60008301856115d7565b61167a60208301846114f3565b9392505050565b6000815190506116908161140f565b92915050565b6000602082840312156116ac576116ab611400565b5b60006116ba84828501611681565b91505092915050565b60006040820190506116d860008301856114f3565b6116e560208301846115d7565b9392505050565b7f4e487b7100000000000000000000000000000000000000000000000000000000600052601160045260246000fd5b600061172682611405565b915061173183611405565b9250828203905081811115611749576117486116ec565b5b92915050565b6000819050919050565b600061177461176f61176a8461174f565b61155d565b611405565b9050919050565b61178481611759565b82525050565b600060408201905061179f60008301856115d7565b6117ac602083018461177b565b9392505050565b60006040820190506117c860008301856115d7565b6117d56020830184611612565b9392505050565b6000819050919050565b60006118016117fc6117f7846117dc565b61155d565b611405565b9050919050565b611811816117e6565b82525050565b600060408201905061182c60008301856115d7565b6118396020830184611808565b9392505050565b600061184b82611405565b915061185683611405565b925082820190508082111561186e5761186d6116ec565b5b9291505056fea2646970667358221220b09f5370e0336612c89243b5afc0e1377bbbb53aac5660519eb90d455838098364736f6c63430008130033697066733a2f2f516d55537559505878336e785061434a6376634e5075454d53687a507075444c47686e446d6d746d4a6e34454a732f7b69647d",
  "linkReferences": {},
  "deployedLinkReferences": {}
}