{
  "_format": "hh-sol-artifact-1",
  "contractName": "Item",
  "sourceName": "contracts/Item.sol",
  "abi": [
    {
      "inputs": [],
      "stateMutability": "nonpayable",
      "type": "constructor"
    },
    {
      "inputs": [],
      "name": "OnlyForgeCanPerformAction",
      "type": "error"
    },
    {
      "anonymous": false,
      "inputs": [
        {
          "indexed": true,
          "internalType": "address",
          "name": "account",
          "type": "address"
        },
        {
          "indexed": true,
          "internalType": "address",
          "name": "operator",
          "type": "address"
        },
        {
          "indexed": false,
          "internalType": "bool",
          "name": "approved",
          "type": "bool"
        }
      ],
      "name": "ApprovalForAll",
      "type": "event"
    },
    {
      "anonymous": false,
      "inputs": [
        {
          "indexed": true,
          "internalType": "address",
          "name": "operator",
          "type": "address"
        },
        {
          "indexed": true,
          "internalType": "address",
          "name": "from",
          "type": "address"
        },
        {
          "indexed": true,
          "internalType": "address",
          "name": "to",
          "type": "address"
        },
        {
          "indexed": false,
          "internalType": "uint256[]",
          "name": "ids",
          "type": "uint256[]"
        },
        {
          "indexed": false,
          "internalType": "uint256[]",
          "name": "values",
          "type": "uint256[]"
        }
      ],
      "name": "TransferBatch",
      "type": "event"
    },
    {
      "anonymous": false,
      "inputs": [
        {
          "indexed": true,
          "internalType": "address",
          "name": "operator",
          "type": "address"
        },
        {
          "indexed": true,
          "internalType": "address",
          "name": "from",
          "type": "address"
        },
        {
          "indexed": true,
          "internalType": "address",
          "name": "to",
          "type": "address"
        },
        {
          "indexed": false,
          "internalType": "uint256",
          "name": "id",
          "type": "uint256"
        },
        {
          "indexed": false,
          "internalType": "uint256",
          "name": "value",
          "type": "uint256"
        }
      ],
      "name": "TransferSingle",
      "type": "event"
    },
    {
      "anonymous": false,
      "inputs": [
        {
          "indexed": false,
          "internalType": "string",
          "name": "value",
          "type": "string"
        },
        {
          "indexed": true,
          "internalType": "uint256",
          "name": "id",
          "type": "uint256"
        }
      ],
      "name": "URI",
      "type": "event"
    },
    {
      "inputs": [
        {
          "internalType": "address",
          "name": "account",
          "type": "address"
        },
        {
          "internalType": "uint256",
          "name": "id",
          "type": "uint256"
        }
      ],
      "name": "balanceOf",
      "outputs": [
        {
          "internalType": "uint256",
          "name": "",
          "type": "uint256"
        }
      ],
      "stateMutability": "view",
      "type": "function"
    },
    {
      "inputs": [
        {
          "internalType": "address[]",
          "name": "accounts",
          "type": "address[]"
        },
        {
          "internalType": "uint256[]",
          "name": "ids",
          "type": "uint256[]"
        }
      ],
      "name": "balanceOfBatch",
      "outputs": [
        {
          "internalType": "uint256[]",
          "name": "",
          "type": "uint256[]"
        }
      ],
      "stateMutability": "view",
      "type": "function"
    },
    {
      "inputs": [
        {
          "internalType": "address",
          "name": "_holder",
          "type": "address"
        },
        {
          "internalType": "uint256",
          "name": "_tokenId",
          "type": "uint256"
        },
        {
          "internalType": "uint256",
          "name": "_amount",
          "type": "uint256"
        }
      ],
      "name": "burn",
      "outputs": [],
      "stateMutability": "nonpayable",
      "type": "function"
    },
    {
      "inputs": [],
      "name": "forge",
      "outputs": [
        {
          "internalType": "contract Forge",
          "name": "",
          "type": "address"
        }
      ],
      "stateMutability": "view",
      "type": "function"
    },
    {
      "inputs": [
        {
          "internalType": "address",
          "name": "account",
          "type": "address"
        },
        {
          "internalType": "address",
          "name": "operator",
          "type": "address"
        }
      ],
      "name": "isApprovedForAll",
      "outputs": [
        {
          "internalType": "bool",
          "name": "",
          "type": "bool"
        }
      ],
      "stateMutability": "view",
      "type": "function"
    },
    {
      "inputs": [
        {
          "internalType": "uint256",
          "name": "_tokenId",
          "type": "uint256"
        },
        {
          "internalType": "address",
          "name": "_receiver",
          "type": "address"
        }
      ],
      "name": "mint",
      "outputs": [],
      "stateMutability": "nonpayable",
      "type": "function"
    },
    {
      "inputs": [
        {
          "internalType": "address",
          "name": "from",
          "type": "address"
        },
        {
          "internalType": "address",
          "name": "to",
          "type": "address"
        },
        {
          "internalType": "uint256[]",
          "name": "ids",
          "type": "uint256[]"
        },
        {
          "internalType": "uint256[]",
          "name": "amounts",
          "type": "uint256[]"
        },
        {
          "internalType": "bytes",
          "name": "data",
          "type": "bytes"
        }
      ],
      "name": "safeBatchTransferFrom",
      "outputs": [],
      "stateMutability": "nonpayable",
      "type": "function"
    },
    {
      "inputs": [
        {
          "internalType": "address",
          "name": "from",
          "type": "address"
        },
        {
          "internalType": "address",
          "name": "to",
          "type": "address"
        },
        {
          "internalType": "uint256",
          "name": "id",
          "type": "uint256"
        },
        {
          "internalType": "uint256",
          "name": "amount",
          "type": "uint256"
        },
        {
          "internalType": "bytes",
          "name": "data",
          "type": "bytes"
        }
      ],
      "name": "safeTransferFrom",
      "outputs": [],
      "stateMutability": "nonpayable",
      "type": "function"
    },
    {
      "inputs": [
        {
          "internalType": "address",
          "name": "operator",
          "type": "address"
        },
        {
          "internalType": "bool",
          "name": "approved",
          "type": "bool"
        }
      ],
      "name": "setApprovalForAll",
      "outputs": [],
      "stateMutability": "nonpayable",
      "type": "function"
    },
    {
      "inputs": [
        {
          "internalType": "bytes4",
          "name": "interfaceId",
          "type": "bytes4"
        }
      ],
      "name": "supportsInterface",
      "outputs": [
        {
          "internalType": "bool",
          "name": "",
          "type": "bool"
        }
      ],
      "stateMutability": "view",
      "type": "function"
    },
    {
      "inputs": [
        {
          "internalType": "uint256",
          "name": "_tokenid",
          "type": "uint256"
        }
      ],
      "name": "uri",
      "outputs": [
        {
          "internalType": "string",
          "name": "",
          "type": "string"
        }
      ],
      "stateMutability": "pure",
      "type": "function"
    }
  ],
  "bytecode": "0x60a06040523480156200001157600080fd5b506040518060600160405280603a815260200162004e96603a91396200003d81620000b060201b60201c565b50306040516200004d90620000c5565b62000059919062000118565b604051809103906000f08015801562000076573d6000803e3d6000fd5b5073ffffffffffffffffffffffffffffffffffffffff1660808173ffffffffffffffffffffffffffffffffffffffff168152505062000496565b8060029081620000c19190620003af565b5050565b611a6e806200342883390190565b600073ffffffffffffffffffffffffffffffffffffffff82169050919050565b60006200010082620000d3565b9050919050565b6200011281620000f3565b82525050565b60006020820190506200012f600083018462000107565b92915050565b600081519050919050565b7f4e487b7100000000000000000000000000000000000000000000000000000000600052604160045260246000fd5b7f4e487b7100000000000000000000000000000000000000000000000000000000600052602260045260246000fd5b60006002820490506001821680620001b757607f821691505b602082108103620001cd57620001cc6200016f565b5b50919050565b60008190508160005260206000209050919050565b60006020601f8301049050919050565b600082821b905092915050565b600060088302620002377fffffffffffffffffffffffffffffffffffffffffffffffffffffffffffffffff82620001f8565b620002438683620001f8565b95508019841693508086168417925050509392505050565b6000819050919050565b6000819050919050565b6000620002906200028a62000284846200025b565b62000265565b6200025b565b9050919050565b6000819050919050565b620002ac836200026f565b620002c4620002bb8262000297565b84845462000205565b825550505050565b600090565b620002db620002cc565b620002e8818484620002a1565b505050565b5b81811015620003105762000304600082620002d1565b600181019050620002ee565b5050565b601f8211156200035f576200032981620001d3565b6200033484620001e8565b8101602085101562000344578190505b6200035c6200035385620001e8565b830182620002ed565b50505b505050565b600082821c905092915050565b6000620003846000198460080262000364565b1980831691505092915050565b60006200039f838362000371565b9150826002028217905092915050565b620003ba8262000135565b67ffffffffffffffff811115620003d657620003d562000140565b5b620003e282546200019e565b620003ef82828562000314565b600060209050601f83116001811462000427576000841562000412578287015190505b6200041e858262000391565b8655506200048e565b601f1984166200043786620001d3565b60005b8281101562000461578489015182556001820191506020850194506020810190506200043a565b868310156200048157848901516200047d601f89168262000371565b8355505b6001600288020188555050505b505050505050565b608051612f6f620004b9600039600081816105de0152610bee0152612f6f6000f3fe608060405234801561001057600080fd5b50600436106100a85760003560e01c80636c6f4239116100715780636c6f42391461018957806394bf804d146101a7578063a22cb465146101c3578063e985e9c5146101df578063f242432a1461020f578063f5298aca1461022b576100a8565b8062fdd58e146100ad57806301ffc9a7146100dd5780630e89341c1461010d5780632eb2c2d61461013d5780634e1273f414610159575b600080fd5b6100c760048036038101906100c29190611ac6565b610247565b6040516100d49190611b15565b60405180910390f35b6100f760048036038101906100f29190611b88565b61030f565b6040516101049190611bd0565b60405180910390f35b61012760048036038101906101229190611beb565b6103f1565b6040516101349190611ca8565b60405180910390f35b61015760048036038101906101529190611ec7565b610422565b005b610173600480360381019061016e9190612059565b6104c3565b604051610180919061218f565b60405180910390f35b6101916105dc565b60405161019e9190612210565b60405180910390f35b6101c160048036038101906101bc919061222b565b610600565b005b6101dd60048036038101906101d89190612297565b610628565b005b6101f960048036038101906101f491906122d7565b61063e565b6040516102069190611bd0565b60405180910390f35b61022960048036038101906102249190612317565b6106d2565b005b610245600480360381019061024091906123ae565b610773565b005b60008073ffffffffffffffffffffffffffffffffffffffff168373ffffffffffffffffffffffffffffffffffffffff16036102b7576040517f08c379a00000000000000000000000000000000000000000000000000000000081526004016102ae90612473565b60405180910390fd5b60008083815260200190815260200160002060008473ffffffffffffffffffffffffffffffffffffffff1673ffffffffffffffffffffffffffffffffffffffff16815260200190815260200160002054905092915050565b60007fd9b67a26000000000000000000000000000000000000000000000000000000007bffffffffffffffffffffffffffffffffffffffffffffffffffffffff1916827bffffffffffffffffffffffffffffffffffffffffffffffffffffffff191614806103da57507f0e89341c000000000000000000000000000000000000000000000000000000007bffffffffffffffffffffffffffffffffffffffffffffffffffffffff1916827bffffffffffffffffffffffffffffffffffffffffffffffffffffffff1916145b806103ea57506103e98261078b565b5b9050919050565b60606103fc826107f5565b60405160200161040c9190612541565b6040516020818303038152906040529050919050565b61042a6108c3565b73ffffffffffffffffffffffffffffffffffffffff168573ffffffffffffffffffffffffffffffffffffffff161480610470575061046f8561046a6108c3565b61063e565b5b6104af576040517f08c379a00000000000000000000000000000000000000000000000000000000081526004016104a6906125d5565b60405180910390fd5b6104bc85858585856108cb565b5050505050565b60608151835114610509576040517f08c379a000000000000000000000000000000000000000000000000000000000815260040161050090612667565b60405180910390fd5b6000835167ffffffffffffffff81111561052657610525611ccf565b5b6040519080825280602002602001820160405280156105545781602001602082028036833780820191505090505b50905060005b84518110156105d1576105a185828151811061057957610578612687565b5b602002602001015185838151811061059457610593612687565b5b6020026020010151610247565b8282815181106105b4576105b3612687565b5b602002602001018181525050806105ca906126e5565b905061055a565b508091505092915050565b7f000000000000000000000000000000000000000000000000000000000000000081565b610608610bec565b6106248183600160405180602001604052806000815250610c73565b5050565b61063a6106336108c3565b8383610e23565b5050565b6000600160008473ffffffffffffffffffffffffffffffffffffffff1673ffffffffffffffffffffffffffffffffffffffff16815260200190815260200160002060008373ffffffffffffffffffffffffffffffffffffffff1673ffffffffffffffffffffffffffffffffffffffff16815260200190815260200160002060009054906101000a900460ff16905092915050565b6106da6108c3565b73ffffffffffffffffffffffffffffffffffffffff168573ffffffffffffffffffffffffffffffffffffffff161480610720575061071f8561071a6108c3565b61063e565b5b61075f576040517f08c379a0000000000000000000000000000000000000000000000000000000008152600401610756906125d5565b60405180910390fd5b61076c8585858585610f8f565b5050505050565b61077b610bec565b61078683838361122a565b505050565b60007f01ffc9a7000000000000000000000000000000000000000000000000000000007bffffffffffffffffffffffffffffffffffffffffffffffffffffffff1916827bffffffffffffffffffffffffffffffffffffffffffffffffffffffff1916149050919050565b60606000600161080484611470565b01905060008167ffffffffffffffff81111561082357610822611ccf565b5b6040519080825280601f01601f1916602001820160405280156108555781602001600182028036833780820191505090505b509050600082602001820190505b6001156108b8578080600190039150507f3031323334353637383961626364656600000000000000000000000000000000600a86061a8153600a85816108ac576108ab61272d565b5b04945060008503610863575b819350505050919050565b600033905090565b815183511461090f576040517f08c379a0000000000000000000000000000000000000000000000000000000008152600401610906906127ce565b60405180910390fd5b600073ffffffffffffffffffffffffffffffffffffffff168473ffffffffffffffffffffffffffffffffffffffff160361097e576040517f08c379a000000000000000000000000000000000000000000000000000000000815260040161097590612860565b60405180910390fd5b60006109886108c3565b90506109988187878787876115c3565b60005b8451811015610b495760008582815181106109b9576109b8612687565b5b6020026020010151905060008583815181106109d8576109d7612687565b5b60200260200101519050600080600084815260200190815260200160002060008b73ffffffffffffffffffffffffffffffffffffffff1673ffffffffffffffffffffffffffffffffffffffff16815260200190815260200160002054905081811015610a79576040517f08c379a0000000000000000000000000000000000000000000000000000000008152600401610a70906128f2565b60405180910390fd5b81810360008085815260200190815260200160002060008c73ffffffffffffffffffffffffffffffffffffffff1673ffffffffffffffffffffffffffffffffffffffff168152602001908152602001600020819055508160008085815260200190815260200160002060008b73ffffffffffffffffffffffffffffffffffffffff1673ffffffffffffffffffffffffffffffffffffffff1681526020019081526020016000206000828254610b2e9190612912565b9250508190555050505080610b42906126e5565b905061099b565b508473ffffffffffffffffffffffffffffffffffffffff168673ffffffffffffffffffffffffffffffffffffffff168273ffffffffffffffffffffffffffffffffffffffff167f4a39dc06d4c0dbc64b70af90fd698a233a518aa5d07e595d983b8c0526c8f7fb8787604051610bc0929190612946565b60405180910390a4610bd68187878787876115cb565b610be48187878787876115d3565b505050505050565b7f000000000000000000000000000000000000000000000000000000000000000073ffffffffffffffffffffffffffffffffffffffff163373ffffffffffffffffffffffffffffffffffffffff1614610c71576040517f380b8eb000000000000000000000000000000000000000000000000000000000815260040160405180910390fd5b565b600073ffffffffffffffffffffffffffffffffffffffff168473ffffffffffffffffffffffffffffffffffffffff1603610ce2576040517f08c379a0000000000000000000000000000000000000000000000000000000008152600401610cd9906129ef565b60405180910390fd5b6000610cec6108c3565b90506000610cf9856117aa565b90506000610d06856117aa565b9050610d17836000898585896115c3565b8460008088815260200190815260200160002060008973ffffffffffffffffffffffffffffffffffffffff1673ffffffffffffffffffffffffffffffffffffffff1681526020019081526020016000206000828254610d769190612912565b925050819055508673ffffffffffffffffffffffffffffffffffffffff16600073ffffffffffffffffffffffffffffffffffffffff168473ffffffffffffffffffffffffffffffffffffffff167fc3d58168c5ae7397731d063d5bbf3d657854427343f4c083240f7aacaa2d0f628989604051610df4929190612a0f565b60405180910390a4610e0b836000898585896115cb565b610e1a83600089898989611824565b50505050505050565b8173ffffffffffffffffffffffffffffffffffffffff168373ffffffffffffffffffffffffffffffffffffffff1603610e91576040517f08c379a0000000000000000000000000000000000000000000000000000000008152600401610e8890612aaa565b60405180910390fd5b80600160008573ffffffffffffffffffffffffffffffffffffffff1673ffffffffffffffffffffffffffffffffffffffff16815260200190815260200160002060008473ffffffffffffffffffffffffffffffffffffffff1673ffffffffffffffffffffffffffffffffffffffff16815260200190815260200160002060006101000a81548160ff0219169083151502179055508173ffffffffffffffffffffffffffffffffffffffff168373ffffffffffffffffffffffffffffffffffffffff167f17307eab39ab6107e8899845ad3d59bd9653f200f220920489ca2b5937696c3183604051610f829190611bd0565b60405180910390a3505050565b600073ffffffffffffffffffffffffffffffffffffffff168473ffffffffffffffffffffffffffffffffffffffff1603610ffe576040517f08c379a0000000000000000000000000000000000000000000000000000000008152600401610ff590612860565b60405180910390fd5b60006110086108c3565b90506000611015856117aa565b90506000611022856117aa565b90506110328389898585896115c3565b600080600088815260200190815260200160002060008a73ffffffffffffffffffffffffffffffffffffffff1673ffffffffffffffffffffffffffffffffffffffff168152602001908152602001600020549050858110156110c9576040517f08c379a00000000000000000000000000000000000000000000000000000000081526004016110c0906128f2565b60405180910390fd5b85810360008089815260200190815260200160002060008b73ffffffffffffffffffffffffffffffffffffffff1673ffffffffffffffffffffffffffffffffffffffff168152602001908152602001600020819055508560008089815260200190815260200160002060008a73ffffffffffffffffffffffffffffffffffffffff1673ffffffffffffffffffffffffffffffffffffffff168152602001908152602001600020600082825461117e9190612912565b925050819055508773ffffffffffffffffffffffffffffffffffffffff168973ffffffffffffffffffffffffffffffffffffffff168573ffffffffffffffffffffffffffffffffffffffff167fc3d58168c5ae7397731d063d5bbf3d657854427343f4c083240f7aacaa2d0f628a8a6040516111fb929190612a0f565b60405180910390a4611211848a8a86868a6115cb565b61121f848a8a8a8a8a611824565b505050505050505050565b600073ffffffffffffffffffffffffffffffffffffffff168373ffffffffffffffffffffffffffffffffffffffff1603611299576040517f08c379a000000000000000000000000000000000000000000000000000000000815260040161129090612b3c565b60405180910390fd5b60006112a36108c3565b905060006112b0846117aa565b905060006112bd846117aa565b90506112dd838760008585604051806020016040528060008152506115c3565b600080600087815260200190815260200160002060008873ffffffffffffffffffffffffffffffffffffffff1673ffffffffffffffffffffffffffffffffffffffff16815260200190815260200160002054905084811015611374576040517f08c379a000000000000000000000000000000000000000000000000000000000815260040161136b90612bce565b60405180910390fd5b84810360008088815260200190815260200160002060008973ffffffffffffffffffffffffffffffffffffffff1673ffffffffffffffffffffffffffffffffffffffff16815260200190815260200160002081905550600073ffffffffffffffffffffffffffffffffffffffff168773ffffffffffffffffffffffffffffffffffffffff168573ffffffffffffffffffffffffffffffffffffffff167fc3d58168c5ae7397731d063d5bbf3d657854427343f4c083240f7aacaa2d0f628989604051611441929190612a0f565b60405180910390a4611467848860008686604051806020016040528060008152506115cb565b50505050505050565b600080600090507a184f03e93ff9f4daa797ed6e38ed64bf6a1f01000000000000000083106114ce577a184f03e93ff9f4daa797ed6e38ed64bf6a1f01000000000000000083816114c4576114c361272d565b5b0492506040810190505b6d04ee2d6d415b85acef8100000000831061150b576d04ee2d6d415b85acef810000000083816115015761150061272d565b5b0492506020810190505b662386f26fc10000831061153a57662386f26fc1000083816115305761152f61272d565b5b0492506010810190505b6305f5e1008310611563576305f5e10083816115595761155861272d565b5b0492506008810190505b612710831061158857612710838161157e5761157d61272d565b5b0492506004810190505b606483106115ab57606483816115a1576115a061272d565b5b0492506002810190505b600a83106115ba576001810190505b80915050919050565b505050505050565b505050505050565b6115f28473ffffffffffffffffffffffffffffffffffffffff166119fb565b156117a2578373ffffffffffffffffffffffffffffffffffffffff1663bc197c8187878686866040518663ffffffff1660e01b8152600401611638959493929190612c52565b6020604051808303816000875af192505050801561167457506040513d601f19601f820116820180604052508101906116719190612ccf565b60015b61171957611680612d09565b806308c379a0036116dc5750611694612d2b565b8061169f57506116de565b806040517f08c379a00000000000000000000000000000000000000000000000000000000081526004016116d39190611ca8565b60405180910390fd5b505b6040517f08c379a000000000000000000000000000000000000000000000000000000000815260040161171090612e2d565b60405180910390fd5b63bc197c8160e01b7bffffffffffffffffffffffffffffffffffffffffffffffffffffffff1916817bffffffffffffffffffffffffffffffffffffffffffffffffffffffff1916146117a0576040517f08c379a000000000000000000000000000000000000000000000000000000000815260040161179790612ebf565b60405180910390fd5b505b505050505050565b60606000600167ffffffffffffffff8111156117c9576117c8611ccf565b5b6040519080825280602002602001820160405280156117f75781602001602082028036833780820191505090505b509050828160008151811061180f5761180e612687565b5b60200260200101818152505080915050919050565b6118438473ffffffffffffffffffffffffffffffffffffffff166119fb565b156119f3578373ffffffffffffffffffffffffffffffffffffffff1663f23a6e6187878686866040518663ffffffff1660e01b8152600401611889959493929190612edf565b6020604051808303816000875af19250505080156118c557506040513d601f19601f820116820180604052508101906118c29190612ccf565b60015b61196a576118d1612d09565b806308c379a00361192d57506118e5612d2b565b806118f0575061192f565b806040517f08c379a00000000000000000000000000000000000000000000000000000000081526004016119249190611ca8565b60405180910390fd5b505b6040517f08c379a000000000000000000000000000000000000000000000000000000000815260040161196190612e2d565b60405180910390fd5b63f23a6e6160e01b7bffffffffffffffffffffffffffffffffffffffffffffffffffffffff1916817bffffffffffffffffffffffffffffffffffffffffffffffffffffffff1916146119f1576040517f08c379a00000000000000000000000000000000000000000000000000000000081526004016119e890612ebf565b60405180910390fd5b505b505050505050565b6000808273ffffffffffffffffffffffffffffffffffffffff163b119050919050565b6000604051905090565b600080fd5b600080fd5b600073ffffffffffffffffffffffffffffffffffffffff82169050919050565b6000611a5d82611a32565b9050919050565b611a6d81611a52565b8114611a7857600080fd5b50565b600081359050611a8a81611a64565b92915050565b6000819050919050565b611aa381611a90565b8114611aae57600080fd5b50565b600081359050611ac081611a9a565b92915050565b60008060408385031215611add57611adc611a28565b5b6000611aeb85828601611a7b565b9250506020611afc85828601611ab1565b9150509250929050565b611b0f81611a90565b82525050565b6000602082019050611b2a6000830184611b06565b92915050565b60007fffffffff0000000000000000000000000000000000000000000000000000000082169050919050565b611b6581611b30565b8114611b7057600080fd5b50565b600081359050611b8281611b5c565b92915050565b600060208284031215611b9e57611b9d611a28565b5b6000611bac84828501611b73565b91505092915050565b60008115159050919050565b611bca81611bb5565b82525050565b6000602082019050611be56000830184611bc1565b92915050565b600060208284031215611c0157611c00611a28565b5b6000611c0f84828501611ab1565b91505092915050565b600081519050919050565b600082825260208201905092915050565b60005b83811015611c52578082015181840152602081019050611c37565b60008484015250505050565b6000601f19601f8301169050919050565b6000611c7a82611c18565b611c848185611c23565b9350611c94818560208601611c34565b611c9d81611c5e565b840191505092915050565b60006020820190508181036000830152611cc28184611c6f565b905092915050565b600080fd5b7f4e487b7100000000000000000000000000000000000000000000000000000000600052604160045260246000fd5b611d0782611c5e565b810181811067ffffffffffffffff82111715611d2657611d25611ccf565b5b80604052505050565b6000611d39611a1e565b9050611d458282611cfe565b919050565b600067ffffffffffffffff821115611d6557611d64611ccf565b5b602082029050602081019050919050565b600080fd5b6000611d8e611d8984611d4a565b611d2f565b90508083825260208201905060208402830185811115611db157611db0611d76565b5b835b81811015611dda5780611dc68882611ab1565b845260208401935050602081019050611db3565b5050509392505050565b600082601f830112611df957611df8611cca565b5b8135611e09848260208601611d7b565b91505092915050565b600080fd5b600067ffffffffffffffff821115611e3257611e31611ccf565b5b611e3b82611c5e565b9050602081019050919050565b82818337600083830152505050565b6000611e6a611e6584611e17565b611d2f565b905082815260208101848484011115611e8657611e85611e12565b5b611e91848285611e48565b509392505050565b600082601f830112611eae57611ead611cca565b5b8135611ebe848260208601611e57565b91505092915050565b600080600080600060a08688031215611ee357611ee2611a28565b5b6000611ef188828901611a7b565b9550506020611f0288828901611a7b565b945050604086013567ffffffffffffffff811115611f2357611f22611a2d565b5b611f2f88828901611de4565b935050606086013567ffffffffffffffff811115611f5057611f4f611a2d565b5b611f5c88828901611de4565b925050608086013567ffffffffffffffff811115611f7d57611f7c611a2d565b5b611f8988828901611e99565b9150509295509295909350565b600067ffffffffffffffff821115611fb157611fb0611ccf565b5b602082029050602081019050919050565b6000611fd5611fd084611f96565b611d2f565b90508083825260208201905060208402830185811115611ff857611ff7611d76565b5b835b81811015612021578061200d8882611a7b565b845260208401935050602081019050611ffa565b5050509392505050565b600082601f8301126120405761203f611cca565b5b8135612050848260208601611fc2565b91505092915050565b600080604083850312156120705761206f611a28565b5b600083013567ffffffffffffffff81111561208e5761208d611a2d565b5b61209a8582860161202b565b925050602083013567ffffffffffffffff8111156120bb576120ba611a2d565b5b6120c785828601611de4565b9150509250929050565b600081519050919050565b600082825260208201905092915050565b6000819050602082019050919050565b61210681611a90565b82525050565b600061211883836120fd565b60208301905092915050565b6000602082019050919050565b600061213c826120d1565b61214681856120dc565b9350612151836120ed565b8060005b83811015612182578151612169888261210c565b975061217483612124565b925050600181019050612155565b5085935050505092915050565b600060208201905081810360008301526121a98184612131565b905092915050565b6000819050919050565b60006121d66121d16121cc84611a32565b6121b1565b611a32565b9050919050565b60006121e8826121bb565b9050919050565b60006121fa826121dd565b9050919050565b61220a816121ef565b82525050565b60006020820190506122256000830184612201565b92915050565b6000806040838503121561224257612241611a28565b5b600061225085828601611ab1565b925050602061226185828601611a7b565b9150509250929050565b61227481611bb5565b811461227f57600080fd5b50565b6000813590506122918161226b565b92915050565b600080604083850312156122ae576122ad611a28565b5b60006122bc85828601611a7b565b92505060206122cd85828601612282565b9150509250929050565b600080604083850312156122ee576122ed611a28565b5b60006122fc85828601611a7b565b925050602061230d85828601611a7b565b9150509250929050565b600080600080600060a0868803121561233357612332611a28565b5b600061234188828901611a7b565b955050602061235288828901611a7b565b945050604061236388828901611ab1565b935050606061237488828901611ab1565b925050608086013567ffffffffffffffff81111561239557612394611a2d565b5b6123a188828901611e99565b9150509295509295909350565b6000806000606084860312156123c7576123c6611a28565b5b60006123d586828701611a7b565b93505060206123e686828701611ab1565b92505060406123f786828701611ab1565b9150509250925092565b7f455243313135353a2061646472657373207a65726f206973206e6f742061207660008201527f616c6964206f776e657200000000000000000000000000000000000000000000602082015250565b600061245d602a83611c23565b915061246882612401565b604082019050919050565b6000602082019050818103600083015261248c81612450565b9050919050565b600081905092915050565b7f697066733a2f2f516d55537559505878336e785061434a6376634e5075454d5360008201527f687a507075444c47686e446d6d746d4a6e34454a732f00000000000000000000602082015250565b60006124fa603683612493565b91506125058261249e565b603682019050919050565b600061251b82611c18565b6125258185612493565b9350612535818560208601611c34565b80840191505092915050565b600061254c826124ed565b91506125588284612510565b915081905092915050565b7f455243313135353a2063616c6c6572206973206e6f7420746f6b656e206f776e60008201527f6572206f7220617070726f766564000000000000000000000000000000000000602082015250565b60006125bf602e83611c23565b91506125ca82612563565b604082019050919050565b600060208201905081810360008301526125ee816125b2565b9050919050565b7f455243313135353a206163636f756e747320616e6420696473206c656e67746860008201527f206d69736d617463680000000000000000000000000000000000000000000000602082015250565b6000612651602983611c23565b915061265c826125f5565b604082019050919050565b6000602082019050818103600083015261268081612644565b9050919050565b7f4e487b7100000000000000000000000000000000000000000000000000000000600052603260045260246000fd5b7f4e487b7100000000000000000000000000000000000000000000000000000000600052601160045260246000fd5b60006126f082611a90565b91507fffffffffffffffffffffffffffffffffffffffffffffffffffffffffffffffff8203612722576127216126b6565b5b600182019050919050565b7f4e487b7100000000000000000000000000000000000000000000000000000000600052601260045260246000fd5b7f455243313135353a2069647320616e6420616d6f756e7473206c656e6774682060008201527f6d69736d61746368000000000000000000000000000000000000000000000000602082015250565b60006127b8602883611c23565b91506127c38261275c565b604082019050919050565b600060208201905081810360008301526127e7816127ab565b9050919050565b7f455243313135353a207472616e7366657220746f20746865207a65726f20616460008201527f6472657373000000000000000000000000000000000000000000000000000000602082015250565b600061284a602583611c23565b9150612855826127ee565b604082019050919050565b600060208201905081810360008301526128798161283d565b9050919050565b7f455243313135353a20696e73756666696369656e742062616c616e636520666f60008201527f72207472616e7366657200000000000000000000000000000000000000000000602082015250565b60006128dc602a83611c23565b91506128e782612880565b604082019050919050565b6000602082019050818103600083015261290b816128cf565b9050919050565b600061291d82611a90565b915061292883611a90565b92508282019050808211156129405761293f6126b6565b5b92915050565b600060408201905081810360008301526129608185612131565b905081810360208301526129748184612131565b90509392505050565b7f455243313135353a206d696e7420746f20746865207a65726f2061646472657360008201527f7300000000000000000000000000000000000000000000000000000000000000602082015250565b60006129d9602183611c23565b91506129e48261297d565b604082019050919050565b60006020820190508181036000830152612a08816129cc565b9050919050565b6000604082019050612a246000830185611b06565b612a316020830184611b06565b9392505050565b7f455243313135353a2073657474696e6720617070726f76616c2073746174757360008201527f20666f722073656c660000000000000000000000000000000000000000000000602082015250565b6000612a94602983611c23565b9150612a9f82612a38565b604082019050919050565b60006020820190508181036000830152612ac381612a87565b9050919050565b7f455243313135353a206275726e2066726f6d20746865207a65726f206164647260008201527f6573730000000000000000000000000000000000000000000000000000000000602082015250565b6000612b26602383611c23565b9150612b3182612aca565b604082019050919050565b60006020820190508181036000830152612b5581612b19565b9050919050565b7f455243313135353a206275726e20616d6f756e7420657863656564732062616c60008201527f616e636500000000000000000000000000000000000000000000000000000000602082015250565b6000612bb8602483611c23565b9150612bc382612b5c565b604082019050919050565b60006020820190508181036000830152612be781612bab565b9050919050565b612bf781611a52565b82525050565b600081519050919050565b600082825260208201905092915050565b6000612c2482612bfd565b612c2e8185612c08565b9350612c3e818560208601611c34565b612c4781611c5e565b840191505092915050565b600060a082019050612c676000830188612bee565b612c746020830187612bee565b8181036040830152612c868186612131565b90508181036060830152612c9a8185612131565b90508181036080830152612cae8184612c19565b90509695505050505050565b600081519050612cc981611b5c565b92915050565b600060208284031215612ce557612ce4611a28565b5b6000612cf384828501612cba565b91505092915050565b60008160e01c9050919050565b600060033d1115612d285760046000803e612d25600051612cfc565b90505b90565b600060443d10612db857612d3d611a1e565b60043d036004823e80513d602482011167ffffffffffffffff82111715612d65575050612db8565b808201805167ffffffffffffffff811115612d835750505050612db8565b80602083010160043d038501811115612da0575050505050612db8565b612daf82602001850186611cfe565b82955050505050505b90565b7f455243313135353a207472616e7366657220746f206e6f6e2d4552433131353560008201527f526563656976657220696d706c656d656e746572000000000000000000000000602082015250565b6000612e17603483611c23565b9150612e2282612dbb565b604082019050919050565b60006020820190508181036000830152612e4681612e0a565b9050919050565b7f455243313135353a204552433131353552656365697665722072656a6563746560008201527f6420746f6b656e73000000000000000000000000000000000000000000000000602082015250565b6000612ea9602883611c23565b9150612eb482612e4d565b604082019050919050565b60006020820190508181036000830152612ed881612e9c565b9050919050565b600060a082019050612ef46000830188612bee565b612f016020830187612bee565b612f0e6040830186611b06565b612f1b6060830185611b06565b8181036080830152612f2d8184612c19565b9050969550505050505056fea2646970667358221220763e7e476f773925c1e4b6bec840f19cc3c04246ec7f9c765d8a9566abc6a0e964736f6c6343000813003360a06040523480156200001157600080fd5b5060405162001a6e38038062001a6e8339818101604052810190620000379190620000dc565b8073ffffffffffffffffffffffffffffffffffffffff1660808173ffffffffffffffffffffffffffffffffffffffff1681525050506200010e565b600080fd5b600073ffffffffffffffffffffffffffffffffffffffff82169050919050565b6000620000a48262000077565b9050919050565b620000b68162000097565b8114620000c257600080fd5b50565b600081519050620000d681620000ab565b92915050565b600060208284031215620000f557620000f462000072565b5b60006200010584828501620000c5565b91505092915050565b6080516118aa620001c460003960008181610253015281816103680152818161046001528181610531015281816105de0152818161066e015281816106ff01528181610815015281816108bc0152818161096401528181610a0b01528181610ab301528181610b5a01528181610c0201528181610ca901528181610d5101528181610fd701528181611064015281816110f40152818161118901528181611216015281816112a6015261133601526118aa6000f3fe608060405234801561001057600080fd5b50600436106100a95760003560e01c8063a94e834b11610071578063a94e834b14610164578063adc20b1c14610180578063d3de7933146101b0578063e20be69a146101e0578063f2a4a82e146101fc578063f7ee7a431461021a576100a9565b80632000d430146100ae57806342966c68146100cc57806349fb1aed146100e857806354c2617a14610118578063a0712d6814610148575b600080fd5b6100b6610238565b6040516100c391906113e5565b60405180910390f35b6100e660048036038101906100e1919061143b565b610248565b005b61010260048036038101906100fd919061143b565b6102e4565b60405161010f91906113e5565b60405180910390f35b610132600480360381019061012d919061143b565b610352565b60405161013f91906113e5565b60405180910390f35b610162600480360381019061015d919061143b565b61040a565b005b61017e6004803603810190610179919061143b565b6104ee565b005b61019a600480360381019061019591906114c6565b610503565b6040516101a79190611502565b60405180910390f35b6101ca60048036038101906101c5919061143b565b61051b565b6040516101d791906113e5565b60405180910390f35b6101fa60048036038101906101f5919061151d565b6105d3565b005b6102046106fd565b60405161021191906115bc565b60405180910390f35b610222610721565b60405161022f9190611502565b60405180910390f35b600061024333610726565b905090565b610251816107c6565b7f000000000000000000000000000000000000000000000000000000000000000073ffffffffffffffffffffffffffffffffffffffff1663f5298aca338360016040518463ffffffff1660e01b81526004016102af93929190611621565b600060405180830381600087803b1580156102c957600080fd5b505af11580156102dd573d6000803e3d6000fd5b5050505050565b60006003821480156102fa57506102f961080f565b5b806103155750600482148015610314575061031361095e565b5b5b80610330575060058214801561032f575061032e610aad565b5b5b8061034b575060068214801561034a5750610349610bfc565b5b5b9050919050565b600061035d82610df3565b8015610403575060007f000000000000000000000000000000000000000000000000000000000000000073ffffffffffffffffffffffffffffffffffffffff1662fdd58e33856040518363ffffffff1660e01b81526004016103c0929190611658565b602060405180830381865afa1580156103dd573d6000803e3d6000fd5b505050506040513d601f19601f820116820180604052508101906104019190611696565b115b9050919050565b61041381610e0e565b61041b610e4c565b426000803373ffffffffffffffffffffffffffffffffffffffff1673ffffffffffffffffffffffffffffffffffffffff168152602001908152602001600020819055507f000000000000000000000000000000000000000000000000000000000000000073ffffffffffffffffffffffffffffffffffffffff166394bf804d82336040518363ffffffff1660e01b81526004016104b99291906116c3565b600060405180830381600087803b1580156104d357600080fd5b505af11580156104e7573d6000803e3d6000fd5b5050505050565b6104f781610eee565b61050081610f30565b50565b60006020528060005260406000206000915090505481565b600061052682610df3565b80156105cc575060007f000000000000000000000000000000000000000000000000000000000000000073ffffffffffffffffffffffffffffffffffffffff1662fdd58e33856040518363ffffffff1660e01b8152600401610589929190611658565b602060405180830381865afa1580156105a6573d6000803e3d6000fd5b505050506040513d601f19601f820116820180604052508101906105ca9190611696565b115b9050919050565b6105dc82610f93565b7f000000000000000000000000000000000000000000000000000000000000000073ffffffffffffffffffffffffffffffffffffffff1663f5298aca338460016040518463ffffffff1660e01b815260040161063a93929190611621565b600060405180830381600087803b15801561065457600080fd5b505af1158015610668573d6000803e3d6000fd5b505050507f000000000000000000000000000000000000000000000000000000000000000073ffffffffffffffffffffffffffffffffffffffff166394bf804d82336040518363ffffffff1660e01b81526004016106c79291906116c3565b600060405180830381600087803b1580156106e157600080fd5b505af11580156106f5573d6000803e3d6000fd5b505050505050565b7f000000000000000000000000000000000000000000000000000000000000000081565b603c81565b6000806000808473ffffffffffffffffffffffffffffffffffffffff1673ffffffffffffffffffffffffffffffffffffffff16815260200190815260200160002054141580156107bf5750603c4261077e919061171b565b6000808473ffffffffffffffffffffffffffffffffffffffff1673ffffffffffffffffffffffffffffffffffffffff16815260200190815260200160002054115b9050919050565b60048110806107d55750600681115b1561080c576040517f8078985600000000000000000000000000000000000000000000000000000000815260040160405180910390fd5b50565b600060017f000000000000000000000000000000000000000000000000000000000000000073ffffffffffffffffffffffffffffffffffffffff1662fdd58e3360006040518363ffffffff1660e01b815260040161086e92919061178a565b602060405180830381865afa15801561088b573d6000803e3d6000fd5b505050506040513d601f19601f820116820180604052508101906108af9190611696565b10158015610959575060017f000000000000000000000000000000000000000000000000000000000000000073ffffffffffffffffffffffffffffffffffffffff1662fdd58e3360016040518363ffffffff1660e01b81526004016109159291906117b3565b602060405180830381865afa158015610932573d6000803e3d6000fd5b505050506040513d601f19601f820116820180604052508101906109569190611696565b10155b905090565b600060017f000000000000000000000000000000000000000000000000000000000000000073ffffffffffffffffffffffffffffffffffffffff1662fdd58e3360016040518363ffffffff1660e01b81526004016109bd9291906117b3565b602060405180830381865afa1580156109da573d6000803e3d6000fd5b505050506040513d601f19601f820116820180604052508101906109fe9190611696565b10158015610aa8575060017f000000000000000000000000000000000000000000000000000000000000000073ffffffffffffffffffffffffffffffffffffffff1662fdd58e3360026040518363ffffffff1660e01b8152600401610a64929190611817565b602060405180830381865afa158015610a81573d6000803e3d6000fd5b505050506040513d601f19601f82011682018060405250810190610aa59190611696565b10155b905090565b600060017f000000000000000000000000000000000000000000000000000000000000000073ffffffffffffffffffffffffffffffffffffffff1662fdd58e3360006040518363ffffffff1660e01b8152600401610b0c92919061178a565b602060405180830381865afa158015610b29573d6000803e3d6000fd5b505050506040513d601f19601f82011682018060405250810190610b4d9190611696565b10158015610bf7575060017f000000000000000000000000000000000000000000000000000000000000000073ffffffffffffffffffffffffffffffffffffffff1662fdd58e3360026040518363ffffffff1660e01b8152600401610bb3929190611817565b602060405180830381865afa158015610bd0573d6000803e3d6000fd5b505050506040513d601f19601f82011682018060405250810190610bf49190611696565b10155b905090565b600060017f000000000000000000000000000000000000000000000000000000000000000073ffffffffffffffffffffffffffffffffffffffff1662fdd58e3360006040518363ffffffff1660e01b8152600401610c5b92919061178a565b602060405180830381865afa158015610c78573d6000803e3d6000fd5b505050506040513d601f19601f82011682018060405250810190610c9c9190611696565b10158015610d46575060017f000000000000000000000000000000000000000000000000000000000000000073ffffffffffffffffffffffffffffffffffffffff1662fdd58e3360016040518363ffffffff1660e01b8152600401610d029291906117b3565b602060405180830381865afa158015610d1f573d6000803e3d6000fd5b505050506040513d601f19601f82011682018060405250810190610d439190611696565b10155b8015610dee575060017f000000000000000000000000000000000000000000000000000000000000000073ffffffffffffffffffffffffffffffffffffffff1662fdd58e3360026040518363ffffffff1660e01b8152600401610daa929190611817565b602060405180830381865afa158015610dc7573d6000803e3d6000fd5b505050506040513d601f19601f82011682018060405250810190610deb9190611696565b10155b905090565b600060038210158015610e07575060068211155b9050919050565b6002811115610e49576040517f6eb70eec00000000000000000000000000000000000000000000000000000000815260040160405180910390fd5b50565b610e5533610726565b15610eec5742603c6000803373ffffffffffffffffffffffffffffffffffffffff1673ffffffffffffffffffffffffffffffffffffffff16815260200190815260200160002054610ea69190611840565b610eb0919061171b565b6040517f1a2d2d6b000000000000000000000000000000000000000000000000000000008152600401610ee39190611502565b60405180910390fd5b565b610ef7816102e4565b610f2d576040517f790b50b100000000000000000000000000000000000000000000000000000000815260040160405180910390fd5b50565b60038103610f4a57610f458160006001610fd5565b610f90565b60048103610f6457610f5f8160016002610fd5565b610f8f565b60058103610f7e57610f798160006002610fd5565b610f8e565b610f8d81600060016002611187565b5b5b5b50565b610f9c81610352565b610fd2576040517ff438643700000000000000000000000000000000000000000000000000000000815260040160405180910390fd5b50565b7f000000000000000000000000000000000000000000000000000000000000000073ffffffffffffffffffffffffffffffffffffffff166394bf804d84336040518363ffffffff1660e01b81526004016110309291906116c3565b600060405180830381600087803b15801561104a57600080fd5b505af115801561105e573d6000803e3d6000fd5b505050507f000000000000000000000000000000000000000000000000000000000000000073ffffffffffffffffffffffffffffffffffffffff1663f5298aca338460016040518463ffffffff1660e01b81526004016110c093929190611621565b600060405180830381600087803b1580156110da57600080fd5b505af11580156110ee573d6000803e3d6000fd5b505050507f000000000000000000000000000000000000000000000000000000000000000073ffffffffffffffffffffffffffffffffffffffff1663f5298aca338360016040518463ffffffff1660e01b815260040161115093929190611621565b600060405180830381600087803b15801561116a57600080fd5b505af115801561117e573d6000803e3d6000fd5b50505050505050565b7f000000000000000000000000000000000000000000000000000000000000000073ffffffffffffffffffffffffffffffffffffffff166394bf804d85336040518363ffffffff1660e01b81526004016111e29291906116c3565b600060405180830381600087803b1580156111fc57600080fd5b505af1158015611210573d6000803e3d6000fd5b505050507f000000000000000000000000000000000000000000000000000000000000000073ffffffffffffffffffffffffffffffffffffffff1663f5298aca338560016040518463ffffffff1660e01b815260040161127293929190611621565b600060405180830381600087803b15801561128c57600080fd5b505af11580156112a0573d6000803e3d6000fd5b505050507f000000000000000000000000000000000000000000000000000000000000000073ffffffffffffffffffffffffffffffffffffffff1663f5298aca338460016040518463ffffffff1660e01b815260040161130293929190611621565b600060405180830381600087803b15801561131c57600080fd5b505af1158015611330573d6000803e3d6000fd5b505050507f000000000000000000000000000000000000000000000000000000000000000073ffffffffffffffffffffffffffffffffffffffff1663f5298aca338360016040518463ffffffff1660e01b815260040161139293929190611621565b600060405180830381600087803b1580156113ac57600080fd5b505af11580156113c0573d6000803e3d6000fd5b5050505050505050565b60008115159050919050565b6113df816113ca565b82525050565b60006020820190506113fa60008301846113d6565b92915050565b600080fd5b6000819050919050565b61141881611405565b811461142357600080fd5b50565b6000813590506114358161140f565b92915050565b60006020828403121561145157611450611400565b5b600061145f84828501611426565b91505092915050565b600073ffffffffffffffffffffffffffffffffffffffff82169050919050565b600061149382611468565b9050919050565b6114a381611488565b81146114ae57600080fd5b50565b6000813590506114c08161149a565b92915050565b6000602082840312156114dc576114db611400565b5b60006114ea848285016114b1565b91505092915050565b6114fc81611405565b82525050565b600060208201905061151760008301846114f3565b92915050565b6000806040838503121561153457611533611400565b5b600061154285828601611426565b925050602061155385828601611426565b9150509250929050565b6000819050919050565b600061158261157d61157884611468565b61155d565b611468565b9050919050565b600061159482611567565b9050919050565b60006115a682611589565b9050919050565b6115b68161159b565b82525050565b60006020820190506115d160008301846115ad565b92915050565b6115e081611488565b82525050565b6000819050919050565b600061160b611606611601846115e6565b61155d565b611405565b9050919050565b61161b816115f0565b82525050565b600060608201905061163660008301866115d7565b61164360208301856114f3565b6116506040830184611612565b949350505050565b600060408201905061166d60008301856115d7565b61167a60208301846114f3565b9392505050565b6000815190506116908161140f565b92915050565b6000602082840312156116ac576116ab611400565b5b60006116ba84828501611681565b91505092915050565b60006040820190506116d860008301856114f3565b6116e560208301846115d7565b9392505050565b7f4e487b7100000000000000000000000000000000000000000000000000000000600052601160045260246000fd5b600061172682611405565b915061173183611405565b9250828203905081811115611749576117486116ec565b5b92915050565b6000819050919050565b600061177461176f61176a8461174f565b61155d565b611405565b9050919050565b61178481611759565b82525050565b600060408201905061179f60008301856115d7565b6117ac602083018461177b565b9392505050565b60006040820190506117c860008301856115d7565b6117d56020830184611612565b9392505050565b6000819050919050565b60006118016117fc6117f7846117dc565b61155d565b611405565b9050919050565b611811816117e6565b82525050565b600060408201905061182c60008301856115d7565b6118396020830184611808565b9392505050565b600061184b82611405565b915061185683611405565b925082820190508082111561186e5761186d6116ec565b5b9291505056fea264697066735822122005962b1e3cc7033f7f60f248534fb0e0f8f6c356e231b915c58cc69fd892b08564736f6c63430008130033697066733a2f2f516d55537559505878336e785061434a6376634e5075454d53687a507075444c47686e446d6d746d4a6e34454a732f7b69647d",
  "linkReferences": {},
  "deployedLinkReferences": {}
}