{
  "_format": "hh-sol-artifact-1",
  "contractName": "Item",
  "sourceName": "contracts/Item.sol",
  "abi": [
    {
      "inputs": [],
      "stateMutability": "nonpayable",
      "type": "constructor"
    },
    {
      "inputs": [],
      "name": "OnlyForgeCanPerformAction",
      "type": "error"
    },
    {
      "anonymous": false,
      "inputs": [
        {
          "indexed": true,
          "internalType": "address",
          "name": "account",
          "type": "address"
        },
        {
          "indexed": true,
          "internalType": "address",
          "name": "operator",
          "type": "address"
        },
        {
          "indexed": false,
          "internalType": "bool",
          "name": "approved",
          "type": "bool"
        }
      ],
      "name": "ApprovalForAll",
      "type": "event"
    },
    {
      "anonymous": false,
      "inputs": [
        {
          "indexed": true,
          "internalType": "address",
          "name": "operator",
          "type": "address"
        },
        {
          "indexed": true,
          "internalType": "address",
          "name": "from",
          "type": "address"
        },
        {
          "indexed": true,
          "internalType": "address",
          "name": "to",
          "type": "address"
        },
        {
          "indexed": false,
          "internalType": "uint256[]",
          "name": "ids",
          "type": "uint256[]"
        },
        {
          "indexed": false,
          "internalType": "uint256[]",
          "name": "values",
          "type": "uint256[]"
        }
      ],
      "name": "TransferBatch",
      "type": "event"
    },
    {
      "anonymous": false,
      "inputs": [
        {
          "indexed": true,
          "internalType": "address",
          "name": "operator",
          "type": "address"
        },
        {
          "indexed": true,
          "internalType": "address",
          "name": "from",
          "type": "address"
        },
        {
          "indexed": true,
          "internalType": "address",
          "name": "to",
          "type": "address"
        },
        {
          "indexed": false,
          "internalType": "uint256",
          "name": "id",
          "type": "uint256"
        },
        {
          "indexed": false,
          "internalType": "uint256",
          "name": "value",
          "type": "uint256"
        }
      ],
      "name": "TransferSingle",
      "type": "event"
    },
    {
      "anonymous": false,
      "inputs": [
        {
          "indexed": false,
          "internalType": "string",
          "name": "value",
          "type": "string"
        },
        {
          "indexed": true,
          "internalType": "uint256",
          "name": "id",
          "type": "uint256"
        }
      ],
      "name": "URI",
      "type": "event"
    },
    {
      "inputs": [
        {
          "internalType": "address",
          "name": "account",
          "type": "address"
        },
        {
          "internalType": "uint256",
          "name": "id",
          "type": "uint256"
        }
      ],
      "name": "balanceOf",
      "outputs": [
        {
          "internalType": "uint256",
          "name": "",
          "type": "uint256"
        }
      ],
      "stateMutability": "view",
      "type": "function"
    },
    {
      "inputs": [
        {
          "internalType": "address[]",
          "name": "accounts",
          "type": "address[]"
        },
        {
          "internalType": "uint256[]",
          "name": "ids",
          "type": "uint256[]"
        }
      ],
      "name": "balanceOfBatch",
      "outputs": [
        {
          "internalType": "uint256[]",
          "name": "",
          "type": "uint256[]"
        }
      ],
      "stateMutability": "view",
      "type": "function"
    },
    {
      "inputs": [
        {
          "internalType": "address",
          "name": "_holder",
          "type": "address"
        },
        {
          "internalType": "uint256",
          "name": "_tokenId",
          "type": "uint256"
        },
        {
          "internalType": "uint256",
          "name": "_amount",
          "type": "uint256"
        }
      ],
      "name": "burn",
      "outputs": [],
      "stateMutability": "nonpayable",
      "type": "function"
    },
    {
      "inputs": [],
      "name": "contractURI",
      "outputs": [
        {
          "internalType": "string",
          "name": "",
          "type": "string"
        }
      ],
      "stateMutability": "pure",
      "type": "function"
    },
    {
      "inputs": [],
      "name": "forge",
      "outputs": [
        {
          "internalType": "contract Forge",
          "name": "",
          "type": "address"
        }
      ],
      "stateMutability": "view",
      "type": "function"
    },
    {
      "inputs": [
        {
          "internalType": "address",
          "name": "account",
          "type": "address"
        },
        {
          "internalType": "address",
          "name": "operator",
          "type": "address"
        }
      ],
      "name": "isApprovedForAll",
      "outputs": [
        {
          "internalType": "bool",
          "name": "",
          "type": "bool"
        }
      ],
      "stateMutability": "view",
      "type": "function"
    },
    {
      "inputs": [
        {
          "internalType": "uint256",
          "name": "_tokenId",
          "type": "uint256"
        },
        {
          "internalType": "address",
          "name": "_receiver",
          "type": "address"
        }
      ],
      "name": "mint",
      "outputs": [],
      "stateMutability": "nonpayable",
      "type": "function"
    },
    {
      "inputs": [
        {
          "internalType": "address",
          "name": "from",
          "type": "address"
        },
        {
          "internalType": "address",
          "name": "to",
          "type": "address"
        },
        {
          "internalType": "uint256[]",
          "name": "ids",
          "type": "uint256[]"
        },
        {
          "internalType": "uint256[]",
          "name": "amounts",
          "type": "uint256[]"
        },
        {
          "internalType": "bytes",
          "name": "data",
          "type": "bytes"
        }
      ],
      "name": "safeBatchTransferFrom",
      "outputs": [],
      "stateMutability": "nonpayable",
      "type": "function"
    },
    {
      "inputs": [
        {
          "internalType": "address",
          "name": "from",
          "type": "address"
        },
        {
          "internalType": "address",
          "name": "to",
          "type": "address"
        },
        {
          "internalType": "uint256",
          "name": "id",
          "type": "uint256"
        },
        {
          "internalType": "uint256",
          "name": "amount",
          "type": "uint256"
        },
        {
          "internalType": "bytes",
          "name": "data",
          "type": "bytes"
        }
      ],
      "name": "safeTransferFrom",
      "outputs": [],
      "stateMutability": "nonpayable",
      "type": "function"
    },
    {
      "inputs": [
        {
          "internalType": "address",
          "name": "operator",
          "type": "address"
        },
        {
          "internalType": "bool",
          "name": "approved",
          "type": "bool"
        }
      ],
      "name": "setApprovalForAll",
      "outputs": [],
      "stateMutability": "nonpayable",
      "type": "function"
    },
    {
      "inputs": [
        {
          "internalType": "bytes4",
          "name": "interfaceId",
          "type": "bytes4"
        }
      ],
      "name": "supportsInterface",
      "outputs": [
        {
          "internalType": "bool",
          "name": "",
          "type": "bool"
        }
      ],
      "stateMutability": "view",
      "type": "function"
    },
    {
      "inputs": [
        {
          "internalType": "uint256",
          "name": "_tokenid",
          "type": "uint256"
        }
      ],
      "name": "uri",
      "outputs": [
        {
          "internalType": "string",
          "name": "",
          "type": "string"
        }
      ],
      "stateMutability": "pure",
      "type": "function"
    }
  ],
  "bytecode": "0x60a06040523480156200001157600080fd5b506040518060600160405280603a815260200162004503603a91396200003d81620000b060201b60201c565b50306040516200004d90620000c5565b62000059919062000118565b604051809103906000f08015801562000076573d6000803e3d6000fd5b5073ffffffffffffffffffffffffffffffffffffffff1660808173ffffffffffffffffffffffffffffffffffffffff168152505062000496565b8060029081620000c19190620003af565b5050565b61105d80620034a683390190565b600073ffffffffffffffffffffffffffffffffffffffff82169050919050565b60006200010082620000d3565b9050919050565b6200011281620000f3565b82525050565b60006020820190506200012f600083018462000107565b92915050565b600081519050919050565b7f4e487b7100000000000000000000000000000000000000000000000000000000600052604160045260246000fd5b7f4e487b7100000000000000000000000000000000000000000000000000000000600052602260045260246000fd5b60006002820490506001821680620001b757607f821691505b602082108103620001cd57620001cc6200016f565b5b50919050565b60008190508160005260206000209050919050565b60006020601f8301049050919050565b600082821b905092915050565b600060088302620002377fffffffffffffffffffffffffffffffffffffffffffffffffffffffffffffffff82620001f8565b620002438683620001f8565b95508019841693508086168417925050509392505050565b6000819050919050565b6000819050919050565b6000620002906200028a62000284846200025b565b62000265565b6200025b565b9050919050565b6000819050919050565b620002ac836200026f565b620002c4620002bb8262000297565b84845462000205565b825550505050565b600090565b620002db620002cc565b620002e8818484620002a1565b505050565b5b81811015620003105762000304600082620002d1565b600181019050620002ee565b5050565b601f8211156200035f576200032981620001d3565b6200033484620001e8565b8101602085101562000344578190505b6200035c6200035385620001e8565b830182620002ed565b50505b505050565b600082821c905092915050565b6000620003846000198460080262000364565b1980831691505092915050565b60006200039f838362000371565b9150826002028217905092915050565b620003ba8262000135565b67ffffffffffffffff811115620003d657620003d562000140565b5b620003e282546200019e565b620003ef82828562000314565b600060209050601f83116001811462000427576000841562000412578287015190505b6200041e858262000391565b8655506200048e565b601f1984166200043786620001d3565b60005b8281101562000461578489015182556001820191506020850194506020810190506200043a565b868310156200048157848901516200047d601f89168262000371565b8355505b6001600288020188555050505b505050505050565b608051612fed620004b9600039600081816106070152610c370152612fed6000f3fe608060405234801561001057600080fd5b50600436106100b35760003560e01c806394bf804d1161007157806394bf804d146101b2578063a22cb465146101ce578063e8a3d485146101ea578063e985e9c514610208578063f242432a14610238578063f5298aca14610254576100b3565b8062fdd58e146100b857806301ffc9a7146100e85780630e89341c146101185780632eb2c2d6146101485780634e1273f4146101645780636c6f423914610194575b600080fd5b6100d260048036038101906100cd9190611b0f565b610270565b6040516100df9190611b5e565b60405180910390f35b61010260048036038101906100fd9190611bd1565b610338565b60405161010f9190611c19565b60405180910390f35b610132600480360381019061012d9190611c34565b61041a565b60405161013f9190611cf1565b60405180910390f35b610162600480360381019061015d9190611f10565b61044b565b005b61017e600480360381019061017991906120a2565b6104ec565b60405161018b91906121d8565b60405180910390f35b61019c610605565b6040516101a99190612259565b60405180910390f35b6101cc60048036038101906101c79190612274565b610629565b005b6101e860048036038101906101e391906122e0565b610651565b005b6101f2610667565b6040516101ff9190611cf1565b60405180910390f35b610222600480360381019061021d9190612320565b610687565b60405161022f9190611c19565b60405180910390f35b610252600480360381019061024d9190612360565b61071b565b005b61026e600480360381019061026991906123f7565b6107bc565b005b60008073ffffffffffffffffffffffffffffffffffffffff168373ffffffffffffffffffffffffffffffffffffffff16036102e0576040517f08c379a00000000000000000000000000000000000000000000000000000000081526004016102d7906124bc565b60405180910390fd5b60008083815260200190815260200160002060008473ffffffffffffffffffffffffffffffffffffffff1673ffffffffffffffffffffffffffffffffffffffff16815260200190815260200160002054905092915050565b60007fd9b67a26000000000000000000000000000000000000000000000000000000007bffffffffffffffffffffffffffffffffffffffffffffffffffffffff1916827bffffffffffffffffffffffffffffffffffffffffffffffffffffffff1916148061040357507f0e89341c000000000000000000000000000000000000000000000000000000007bffffffffffffffffffffffffffffffffffffffffffffffffffffffff1916827bffffffffffffffffffffffffffffffffffffffffffffffffffffffff1916145b806104135750610412826107d4565b5b9050919050565b60606104258261083e565b604051602001610435919061258a565b6040516020818303038152906040529050919050565b61045361090c565b73ffffffffffffffffffffffffffffffffffffffff168573ffffffffffffffffffffffffffffffffffffffff16148061049957506104988561049361090c565b610687565b5b6104d8576040517f08c379a00000000000000000000000000000000000000000000000000000000081526004016104cf9061261e565b60405180910390fd5b6104e58585858585610914565b5050505050565b60608151835114610532576040517f08c379a0000000000000000000000000000000000000000000000000000000008152600401610529906126b0565b60405180910390fd5b6000835167ffffffffffffffff81111561054f5761054e611d18565b5b60405190808252806020026020018201604052801561057d5781602001602082028036833780820191505090505b50905060005b84518110156105fa576105ca8582815181106105a2576105a16126d0565b5b60200260200101518583815181106105bd576105bc6126d0565b5b6020026020010151610270565b8282815181106105dd576105dc6126d0565b5b602002602001018181525050806105f39061272e565b9050610583565b508091505092915050565b7f000000000000000000000000000000000000000000000000000000000000000081565b610631610c35565b61064d8183600160405180602001604052806000815250610cbc565b5050565b61066361065c61090c565b8383610e6c565b5050565b6060604051806060016040528060358152602001612f8360359139905090565b6000600160008473ffffffffffffffffffffffffffffffffffffffff1673ffffffffffffffffffffffffffffffffffffffff16815260200190815260200160002060008373ffffffffffffffffffffffffffffffffffffffff1673ffffffffffffffffffffffffffffffffffffffff16815260200190815260200160002060009054906101000a900460ff16905092915050565b61072361090c565b73ffffffffffffffffffffffffffffffffffffffff168573ffffffffffffffffffffffffffffffffffffffff16148061076957506107688561076361090c565b610687565b5b6107a8576040517f08c379a000000000000000000000000000000000000000000000000000000000815260040161079f9061261e565b60405180910390fd5b6107b58585858585610fd8565b5050505050565b6107c4610c35565b6107cf838383611273565b505050565b60007f01ffc9a7000000000000000000000000000000000000000000000000000000007bffffffffffffffffffffffffffffffffffffffffffffffffffffffff1916827bffffffffffffffffffffffffffffffffffffffffffffffffffffffff1916149050919050565b60606000600161084d846114b9565b01905060008167ffffffffffffffff81111561086c5761086b611d18565b5b6040519080825280601f01601f19166020018201604052801561089e5781602001600182028036833780820191505090505b509050600082602001820190505b600115610901578080600190039150507f3031323334353637383961626364656600000000000000000000000000000000600a86061a8153600a85816108f5576108f4612776565b5b049450600085036108ac575b819350505050919050565b600033905090565b8151835114610958576040517f08c379a000000000000000000000000000000000000000000000000000000000815260040161094f90612817565b60405180910390fd5b600073ffffffffffffffffffffffffffffffffffffffff168473ffffffffffffffffffffffffffffffffffffffff16036109c7576040517f08c379a00000000000000000000000000000000000000000000000000000000081526004016109be906128a9565b60405180910390fd5b60006109d161090c565b90506109e181878787878761160c565b60005b8451811015610b92576000858281518110610a0257610a016126d0565b5b602002602001015190506000858381518110610a2157610a206126d0565b5b60200260200101519050600080600084815260200190815260200160002060008b73ffffffffffffffffffffffffffffffffffffffff1673ffffffffffffffffffffffffffffffffffffffff16815260200190815260200160002054905081811015610ac2576040517f08c379a0000000000000000000000000000000000000000000000000000000008152600401610ab99061293b565b60405180910390fd5b81810360008085815260200190815260200160002060008c73ffffffffffffffffffffffffffffffffffffffff1673ffffffffffffffffffffffffffffffffffffffff168152602001908152602001600020819055508160008085815260200190815260200160002060008b73ffffffffffffffffffffffffffffffffffffffff1673ffffffffffffffffffffffffffffffffffffffff1681526020019081526020016000206000828254610b77919061295b565b9250508190555050505080610b8b9061272e565b90506109e4565b508473ffffffffffffffffffffffffffffffffffffffff168673ffffffffffffffffffffffffffffffffffffffff168273ffffffffffffffffffffffffffffffffffffffff167f4a39dc06d4c0dbc64b70af90fd698a233a518aa5d07e595d983b8c0526c8f7fb8787604051610c0992919061298f565b60405180910390a4610c1f818787878787611614565b610c2d81878787878761161c565b505050505050565b7f000000000000000000000000000000000000000000000000000000000000000073ffffffffffffffffffffffffffffffffffffffff163373ffffffffffffffffffffffffffffffffffffffff1614610cba576040517f380b8eb000000000000000000000000000000000000000000000000000000000815260040160405180910390fd5b565b600073ffffffffffffffffffffffffffffffffffffffff168473ffffffffffffffffffffffffffffffffffffffff1603610d2b576040517f08c379a0000000000000000000000000000000000000000000000000000000008152600401610d2290612a38565b60405180910390fd5b6000610d3561090c565b90506000610d42856117f3565b90506000610d4f856117f3565b9050610d608360008985858961160c565b8460008088815260200190815260200160002060008973ffffffffffffffffffffffffffffffffffffffff1673ffffffffffffffffffffffffffffffffffffffff1681526020019081526020016000206000828254610dbf919061295b565b925050819055508673ffffffffffffffffffffffffffffffffffffffff16600073ffffffffffffffffffffffffffffffffffffffff168473ffffffffffffffffffffffffffffffffffffffff167fc3d58168c5ae7397731d063d5bbf3d657854427343f4c083240f7aacaa2d0f628989604051610e3d929190612a58565b60405180910390a4610e5483600089858589611614565b610e638360008989898961186d565b50505050505050565b8173ffffffffffffffffffffffffffffffffffffffff168373ffffffffffffffffffffffffffffffffffffffff1603610eda576040517f08c379a0000000000000000000000000000000000000000000000000000000008152600401610ed190612af3565b60405180910390fd5b80600160008573ffffffffffffffffffffffffffffffffffffffff1673ffffffffffffffffffffffffffffffffffffffff16815260200190815260200160002060008473ffffffffffffffffffffffffffffffffffffffff1673ffffffffffffffffffffffffffffffffffffffff16815260200190815260200160002060006101000a81548160ff0219169083151502179055508173ffffffffffffffffffffffffffffffffffffffff168373ffffffffffffffffffffffffffffffffffffffff167f17307eab39ab6107e8899845ad3d59bd9653f200f220920489ca2b5937696c3183604051610fcb9190611c19565b60405180910390a3505050565b600073ffffffffffffffffffffffffffffffffffffffff168473ffffffffffffffffffffffffffffffffffffffff1603611047576040517f08c379a000000000000000000000000000000000000000000000000000000000815260040161103e906128a9565b60405180910390fd5b600061105161090c565b9050600061105e856117f3565b9050600061106b856117f3565b905061107b83898985858961160c565b600080600088815260200190815260200160002060008a73ffffffffffffffffffffffffffffffffffffffff1673ffffffffffffffffffffffffffffffffffffffff16815260200190815260200160002054905085811015611112576040517f08c379a00000000000000000000000000000000000000000000000000000000081526004016111099061293b565b60405180910390fd5b85810360008089815260200190815260200160002060008b73ffffffffffffffffffffffffffffffffffffffff1673ffffffffffffffffffffffffffffffffffffffff168152602001908152602001600020819055508560008089815260200190815260200160002060008a73ffffffffffffffffffffffffffffffffffffffff1673ffffffffffffffffffffffffffffffffffffffff16815260200190815260200160002060008282546111c7919061295b565b925050819055508773ffffffffffffffffffffffffffffffffffffffff168973ffffffffffffffffffffffffffffffffffffffff168573ffffffffffffffffffffffffffffffffffffffff167fc3d58168c5ae7397731d063d5bbf3d657854427343f4c083240f7aacaa2d0f628a8a604051611244929190612a58565b60405180910390a461125a848a8a86868a611614565b611268848a8a8a8a8a61186d565b505050505050505050565b600073ffffffffffffffffffffffffffffffffffffffff168373ffffffffffffffffffffffffffffffffffffffff16036112e2576040517f08c379a00000000000000000000000000000000000000000000000000000000081526004016112d990612b85565b60405180910390fd5b60006112ec61090c565b905060006112f9846117f3565b90506000611306846117f3565b90506113268387600085856040518060200160405280600081525061160c565b600080600087815260200190815260200160002060008873ffffffffffffffffffffffffffffffffffffffff1673ffffffffffffffffffffffffffffffffffffffff168152602001908152602001600020549050848110156113bd576040517f08c379a00000000000000000000000000000000000000000000000000000000081526004016113b490612c17565b60405180910390fd5b84810360008088815260200190815260200160002060008973ffffffffffffffffffffffffffffffffffffffff1673ffffffffffffffffffffffffffffffffffffffff16815260200190815260200160002081905550600073ffffffffffffffffffffffffffffffffffffffff168773ffffffffffffffffffffffffffffffffffffffff168573ffffffffffffffffffffffffffffffffffffffff167fc3d58168c5ae7397731d063d5bbf3d657854427343f4c083240f7aacaa2d0f62898960405161148a929190612a58565b60405180910390a46114b084886000868660405180602001604052806000815250611614565b50505050505050565b600080600090507a184f03e93ff9f4daa797ed6e38ed64bf6a1f0100000000000000008310611517577a184f03e93ff9f4daa797ed6e38ed64bf6a1f010000000000000000838161150d5761150c612776565b5b0492506040810190505b6d04ee2d6d415b85acef81000000008310611554576d04ee2d6d415b85acef8100000000838161154a57611549612776565b5b0492506020810190505b662386f26fc10000831061158357662386f26fc10000838161157957611578612776565b5b0492506010810190505b6305f5e10083106115ac576305f5e10083816115a2576115a1612776565b5b0492506008810190505b61271083106115d15761271083816115c7576115c6612776565b5b0492506004810190505b606483106115f457606483816115ea576115e9612776565b5b0492506002810190505b600a8310611603576001810190505b80915050919050565b505050505050565b505050505050565b61163b8473ffffffffffffffffffffffffffffffffffffffff16611a44565b156117eb578373ffffffffffffffffffffffffffffffffffffffff1663bc197c8187878686866040518663ffffffff1660e01b8152600401611681959493929190612c9b565b6020604051808303816000875af19250505080156116bd57506040513d601f19601f820116820180604052508101906116ba9190612d18565b60015b611762576116c9612d52565b806308c379a00361172557506116dd612d74565b806116e85750611727565b806040517f08c379a000000000000000000000000000000000000000000000000000000000815260040161171c9190611cf1565b60405180910390fd5b505b6040517f08c379a000000000000000000000000000000000000000000000000000000000815260040161175990612e76565b60405180910390fd5b63bc197c8160e01b7bffffffffffffffffffffffffffffffffffffffffffffffffffffffff1916817bffffffffffffffffffffffffffffffffffffffffffffffffffffffff1916146117e9576040517f08c379a00000000000000000000000000000000000000000000000000000000081526004016117e090612f08565b60405180910390fd5b505b505050505050565b60606000600167ffffffffffffffff81111561181257611811611d18565b5b6040519080825280602002602001820160405280156118405781602001602082028036833780820191505090505b5090508281600081518110611858576118576126d0565b5b60200260200101818152505080915050919050565b61188c8473ffffffffffffffffffffffffffffffffffffffff16611a44565b15611a3c578373ffffffffffffffffffffffffffffffffffffffff1663f23a6e6187878686866040518663ffffffff1660e01b81526004016118d2959493929190612f28565b6020604051808303816000875af192505050801561190e57506040513d601f19601f8201168201806040525081019061190b9190612d18565b60015b6119b35761191a612d52565b806308c379a003611976575061192e612d74565b806119395750611978565b806040517f08c379a000000000000000000000000000000000000000000000000000000000815260040161196d9190611cf1565b60405180910390fd5b505b6040517f08c379a00000000000000000000000000000000000000000000000000000000081526004016119aa90612e76565b60405180910390fd5b63f23a6e6160e01b7bffffffffffffffffffffffffffffffffffffffffffffffffffffffff1916817bffffffffffffffffffffffffffffffffffffffffffffffffffffffff191614611a3a576040517f08c379a0000000000000000000000000000000000000000000000000000000008152600401611a3190612f08565b60405180910390fd5b505b505050505050565b6000808273ffffffffffffffffffffffffffffffffffffffff163b119050919050565b6000604051905090565b600080fd5b600080fd5b600073ffffffffffffffffffffffffffffffffffffffff82169050919050565b6000611aa682611a7b565b9050919050565b611ab681611a9b565b8114611ac157600080fd5b50565b600081359050611ad381611aad565b92915050565b6000819050919050565b611aec81611ad9565b8114611af757600080fd5b50565b600081359050611b0981611ae3565b92915050565b60008060408385031215611b2657611b25611a71565b5b6000611b3485828601611ac4565b9250506020611b4585828601611afa565b9150509250929050565b611b5881611ad9565b82525050565b6000602082019050611b736000830184611b4f565b92915050565b60007fffffffff0000000000000000000000000000000000000000000000000000000082169050919050565b611bae81611b79565b8114611bb957600080fd5b50565b600081359050611bcb81611ba5565b92915050565b600060208284031215611be757611be6611a71565b5b6000611bf584828501611bbc565b91505092915050565b60008115159050919050565b611c1381611bfe565b82525050565b6000602082019050611c2e6000830184611c0a565b92915050565b600060208284031215611c4a57611c49611a71565b5b6000611c5884828501611afa565b91505092915050565b600081519050919050565b600082825260208201905092915050565b60005b83811015611c9b578082015181840152602081019050611c80565b60008484015250505050565b6000601f19601f8301169050919050565b6000611cc382611c61565b611ccd8185611c6c565b9350611cdd818560208601611c7d565b611ce681611ca7565b840191505092915050565b60006020820190508181036000830152611d0b8184611cb8565b905092915050565b600080fd5b7f4e487b7100000000000000000000000000000000000000000000000000000000600052604160045260246000fd5b611d5082611ca7565b810181811067ffffffffffffffff82111715611d6f57611d6e611d18565b5b80604052505050565b6000611d82611a67565b9050611d8e8282611d47565b919050565b600067ffffffffffffffff821115611dae57611dad611d18565b5b602082029050602081019050919050565b600080fd5b6000611dd7611dd284611d93565b611d78565b90508083825260208201905060208402830185811115611dfa57611df9611dbf565b5b835b81811015611e235780611e0f8882611afa565b845260208401935050602081019050611dfc565b5050509392505050565b600082601f830112611e4257611e41611d13565b5b8135611e52848260208601611dc4565b91505092915050565b600080fd5b600067ffffffffffffffff821115611e7b57611e7a611d18565b5b611e8482611ca7565b9050602081019050919050565b82818337600083830152505050565b6000611eb3611eae84611e60565b611d78565b905082815260208101848484011115611ecf57611ece611e5b565b5b611eda848285611e91565b509392505050565b600082601f830112611ef757611ef6611d13565b5b8135611f07848260208601611ea0565b91505092915050565b600080600080600060a08688031215611f2c57611f2b611a71565b5b6000611f3a88828901611ac4565b9550506020611f4b88828901611ac4565b945050604086013567ffffffffffffffff811115611f6c57611f6b611a76565b5b611f7888828901611e2d565b935050606086013567ffffffffffffffff811115611f9957611f98611a76565b5b611fa588828901611e2d565b925050608086013567ffffffffffffffff811115611fc657611fc5611a76565b5b611fd288828901611ee2565b9150509295509295909350565b600067ffffffffffffffff821115611ffa57611ff9611d18565b5b602082029050602081019050919050565b600061201e61201984611fdf565b611d78565b9050808382526020820190506020840283018581111561204157612040611dbf565b5b835b8181101561206a57806120568882611ac4565b845260208401935050602081019050612043565b5050509392505050565b600082601f83011261208957612088611d13565b5b813561209984826020860161200b565b91505092915050565b600080604083850312156120b9576120b8611a71565b5b600083013567ffffffffffffffff8111156120d7576120d6611a76565b5b6120e385828601612074565b925050602083013567ffffffffffffffff81111561210457612103611a76565b5b61211085828601611e2d565b9150509250929050565b600081519050919050565b600082825260208201905092915050565b6000819050602082019050919050565b61214f81611ad9565b82525050565b60006121618383612146565b60208301905092915050565b6000602082019050919050565b60006121858261211a565b61218f8185612125565b935061219a83612136565b8060005b838110156121cb5781516121b28882612155565b97506121bd8361216d565b92505060018101905061219e565b5085935050505092915050565b600060208201905081810360008301526121f2818461217a565b905092915050565b6000819050919050565b600061221f61221a61221584611a7b565b6121fa565b611a7b565b9050919050565b600061223182612204565b9050919050565b600061224382612226565b9050919050565b61225381612238565b82525050565b600060208201905061226e600083018461224a565b92915050565b6000806040838503121561228b5761228a611a71565b5b600061229985828601611afa565b92505060206122aa85828601611ac4565b9150509250929050565b6122bd81611bfe565b81146122c857600080fd5b50565b6000813590506122da816122b4565b92915050565b600080604083850312156122f7576122f6611a71565b5b600061230585828601611ac4565b9250506020612316858286016122cb565b9150509250929050565b6000806040838503121561233757612336611a71565b5b600061234585828601611ac4565b925050602061235685828601611ac4565b9150509250929050565b600080600080600060a0868803121561237c5761237b611a71565b5b600061238a88828901611ac4565b955050602061239b88828901611ac4565b94505060406123ac88828901611afa565b93505060606123bd88828901611afa565b925050608086013567ffffffffffffffff8111156123de576123dd611a76565b5b6123ea88828901611ee2565b9150509295509295909350565b6000806000606084860312156124105761240f611a71565b5b600061241e86828701611ac4565b935050602061242f86828701611afa565b925050604061244086828701611afa565b9150509250925092565b7f455243313135353a2061646472657373207a65726f206973206e6f742061207660008201527f616c6964206f776e657200000000000000000000000000000000000000000000602082015250565b60006124a6602a83611c6c565b91506124b18261244a565b604082019050919050565b600060208201905081810360008301526124d581612499565b9050919050565b600081905092915050565b7f697066733a2f2f516d55537559505878336e785061434a6376634e5075454d5360008201527f687a507075444c47686e446d6d746d4a6e34454a732f00000000000000000000602082015250565b60006125436036836124dc565b915061254e826124e7565b603682019050919050565b600061256482611c61565b61256e81856124dc565b935061257e818560208601611c7d565b80840191505092915050565b600061259582612536565b91506125a18284612559565b915081905092915050565b7f455243313135353a2063616c6c6572206973206e6f7420746f6b656e206f776e60008201527f6572206f7220617070726f766564000000000000000000000000000000000000602082015250565b6000612608602e83611c6c565b9150612613826125ac565b604082019050919050565b60006020820190508181036000830152612637816125fb565b9050919050565b7f455243313135353a206163636f756e747320616e6420696473206c656e67746860008201527f206d69736d617463680000000000000000000000000000000000000000000000602082015250565b600061269a602983611c6c565b91506126a58261263e565b604082019050919050565b600060208201905081810360008301526126c98161268d565b9050919050565b7f4e487b7100000000000000000000000000000000000000000000000000000000600052603260045260246000fd5b7f4e487b7100000000000000000000000000000000000000000000000000000000600052601160045260246000fd5b600061273982611ad9565b91507fffffffffffffffffffffffffffffffffffffffffffffffffffffffffffffffff820361276b5761276a6126ff565b5b600182019050919050565b7f4e487b7100000000000000000000000000000000000000000000000000000000600052601260045260246000fd5b7f455243313135353a2069647320616e6420616d6f756e7473206c656e6774682060008201527f6d69736d61746368000000000000000000000000000000000000000000000000602082015250565b6000612801602883611c6c565b915061280c826127a5565b604082019050919050565b60006020820190508181036000830152612830816127f4565b9050919050565b7f455243313135353a207472616e7366657220746f20746865207a65726f20616460008201527f6472657373000000000000000000000000000000000000000000000000000000602082015250565b6000612893602583611c6c565b915061289e82612837565b604082019050919050565b600060208201905081810360008301526128c281612886565b9050919050565b7f455243313135353a20696e73756666696369656e742062616c616e636520666f60008201527f72207472616e7366657200000000000000000000000000000000000000000000602082015250565b6000612925602a83611c6c565b9150612930826128c9565b604082019050919050565b6000602082019050818103600083015261295481612918565b9050919050565b600061296682611ad9565b915061297183611ad9565b9250828201905080821115612989576129886126ff565b5b92915050565b600060408201905081810360008301526129a9818561217a565b905081810360208301526129bd818461217a565b90509392505050565b7f455243313135353a206d696e7420746f20746865207a65726f2061646472657360008201527f7300000000000000000000000000000000000000000000000000000000000000602082015250565b6000612a22602183611c6c565b9150612a2d826129c6565b604082019050919050565b60006020820190508181036000830152612a5181612a15565b9050919050565b6000604082019050612a6d6000830185611b4f565b612a7a6020830184611b4f565b9392505050565b7f455243313135353a2073657474696e6720617070726f76616c2073746174757360008201527f20666f722073656c660000000000000000000000000000000000000000000000602082015250565b6000612add602983611c6c565b9150612ae882612a81565b604082019050919050565b60006020820190508181036000830152612b0c81612ad0565b9050919050565b7f455243313135353a206275726e2066726f6d20746865207a65726f206164647260008201527f6573730000000000000000000000000000000000000000000000000000000000602082015250565b6000612b6f602383611c6c565b9150612b7a82612b13565b604082019050919050565b60006020820190508181036000830152612b9e81612b62565b9050919050565b7f455243313135353a206275726e20616d6f756e7420657863656564732062616c60008201527f616e636500000000000000000000000000000000000000000000000000000000602082015250565b6000612c01602483611c6c565b9150612c0c82612ba5565b604082019050919050565b60006020820190508181036000830152612c3081612bf4565b9050919050565b612c4081611a9b565b82525050565b600081519050919050565b600082825260208201905092915050565b6000612c6d82612c46565b612c778185612c51565b9350612c87818560208601611c7d565b612c9081611ca7565b840191505092915050565b600060a082019050612cb06000830188612c37565b612cbd6020830187612c37565b8181036040830152612ccf818661217a565b90508181036060830152612ce3818561217a565b90508181036080830152612cf78184612c62565b90509695505050505050565b600081519050612d1281611ba5565b92915050565b600060208284031215612d2e57612d2d611a71565b5b6000612d3c84828501612d03565b91505092915050565b60008160e01c9050919050565b600060033d1115612d715760046000803e612d6e600051612d45565b90505b90565b600060443d10612e0157612d86611a67565b60043d036004823e80513d602482011167ffffffffffffffff82111715612dae575050612e01565b808201805167ffffffffffffffff811115612dcc5750505050612e01565b80602083010160043d038501811115612de9575050505050612e01565b612df882602001850186611d47565b82955050505050505b90565b7f455243313135353a207472616e7366657220746f206e6f6e2d4552433131353560008201527f526563656976657220696d706c656d656e746572000000000000000000000000602082015250565b6000612e60603483611c6c565b9150612e6b82612e04565b604082019050919050565b60006020820190508181036000830152612e8f81612e53565b9050919050565b7f455243313135353a204552433131353552656365697665722072656a6563746560008201527f6420746f6b656e73000000000000000000000000000000000000000000000000602082015250565b6000612ef2602883611c6c565b9150612efd82612e96565b604082019050919050565b60006020820190508181036000830152612f2181612ee5565b9050919050565b600060a082019050612f3d6000830188612c37565b612f4a6020830187612c37565b612f576040830186611b4f565b612f646060830185611b4f565b8181036080830152612f768184612c62565b9050969550505050505056fe697066733a2f2f516d664269374766324d39774c64433431614b4b636e6353326e73366e56676d66664e4146337346526e75627169a26469706673582212200c5ce65d1c7f6ceacbb5bb418cab00b7d4233a6d84a3c548b24b32a6e5bbe13964736f6c6343000813003360a060405234801561001057600080fd5b506040516200105d3803806200105d833981810160405281019061003491906100d1565b8073ffffffffffffffffffffffffffffffffffffffff1660808173ffffffffffffffffffffffffffffffffffffffff1681525050506100fe565b600080fd5b600073ffffffffffffffffffffffffffffffffffffffff82169050919050565b600061009e82610073565b9050919050565b6100ae81610093565b81146100b957600080fd5b50565b6000815190506100cb816100a5565b92915050565b6000602082840312156100e7576100e661006e565b5b60006100f5848285016100bc565b91505092915050565b608051610eef6200016e600039600081816101a20152818161028901528181610352015281816103f0015281816104800152818161051c0152818161077801528181610805015281816108950152818161092a015281816109b701528181610a470152610ad70152610eef6000f3fe608060405234801561001057600080fd5b50600436106100885760003560e01c8063adc20b1c1161005b578063adc20b1c146100ff578063e20be69a1461012f578063f2a4a82e1461014b578063f7ee7a431461016957610088565b80632000d4301461008d57806342966c68146100ab578063a0712d68146100c7578063a94e834b146100e3575b600080fd5b610095610187565b6040516100a29190610b86565b60405180910390f35b6100c560048036038101906100c09190610bdc565b610197565b005b6100e160048036038101906100dc9190610bdc565b610233565b005b6100fd60048036038101906100f89190610bdc565b610317565b005b61011960048036038101906101149190610c67565b610323565b6040516101269190610ca3565b60405180910390f35b61014960048036038101906101449190610cbe565b61033b565b005b61015361051a565b6040516101609190610d5d565b60405180910390f35b61017161053e565b60405161017e9190610ca3565b60405180910390f35b600061019233610543565b905090565b6101a0816105e3565b7f000000000000000000000000000000000000000000000000000000000000000073ffffffffffffffffffffffffffffffffffffffff1663f5298aca338360016040518463ffffffff1660e01b81526004016101fe93929190610dc2565b600060405180830381600087803b15801561021857600080fd5b505af115801561022c573d6000803e3d6000fd5b5050505050565b61023c81610621565b61024461065f565b426000803373ffffffffffffffffffffffffffffffffffffffff1673ffffffffffffffffffffffffffffffffffffffff168152602001908152602001600020819055507f000000000000000000000000000000000000000000000000000000000000000073ffffffffffffffffffffffffffffffffffffffff166394bf804d82336040518363ffffffff1660e01b81526004016102e2929190610df9565b600060405180830381600087803b1580156102fc57600080fd5b505af1158015610310573d6000803e3d6000fd5b5050505050565b61032081610701565b50565b60006020528060005260406000206000915090505481565b80820361034757600080fd5b60028211156103e5577f000000000000000000000000000000000000000000000000000000000000000073ffffffffffffffffffffffffffffffffffffffff1663f5298aca338460016040518463ffffffff1660e01b81526004016103ae93929190610dc2565b600060405180830381600087803b1580156103c857600080fd5b505af11580156103dc573d6000803e3d6000fd5b50505050610516565b6003811015610510577f000000000000000000000000000000000000000000000000000000000000000073ffffffffffffffffffffffffffffffffffffffff1663f5298aca338460016040518463ffffffff1660e01b815260040161044c93929190610dc2565b600060405180830381600087803b15801561046657600080fd5b505af115801561047a573d6000803e3d6000fd5b505050507f000000000000000000000000000000000000000000000000000000000000000073ffffffffffffffffffffffffffffffffffffffff166394bf804d82336040518363ffffffff1660e01b81526004016104d9929190610df9565b600060405180830381600087803b1580156104f357600080fd5b505af1158015610507573d6000803e3d6000fd5b50505050610515565b600080fd5b5b5050565b7f000000000000000000000000000000000000000000000000000000000000000081565b603c81565b6000806000808473ffffffffffffffffffffffffffffffffffffffff1673ffffffffffffffffffffffffffffffffffffffff16815260200190815260200160002054141580156105dc5750603c4261059b9190610e51565b6000808473ffffffffffffffffffffffffffffffffffffffff1673ffffffffffffffffffffffffffffffffffffffff16815260200190815260200160002054115b9050919050565b600481101561061e576040517f8078985600000000000000000000000000000000000000000000000000000000815260040160405180910390fd5b50565b600281111561065c576040517f6eb70eec00000000000000000000000000000000000000000000000000000000815260040160405180910390fd5b50565b61066833610543565b156106ff5742603c6000803373ffffffffffffffffffffffffffffffffffffffff1673ffffffffffffffffffffffffffffffffffffffff168152602001908152602001600020546106b99190610e85565b6106c39190610e51565b6040517f1a2d2d6b0000000000000000000000000000000000000000000000000000000081526004016106f69190610ca3565b60405180910390fd5b565b6003810361071b576107168160006001610776565b610773565b60048103610735576107308160016002610776565b610772565b6005810361074f5761074a8160006002610776565b610771565b6006810361076b5761076681600060016002610928565b610770565b600080fd5b5b5b5b50565b7f000000000000000000000000000000000000000000000000000000000000000073ffffffffffffffffffffffffffffffffffffffff166394bf804d84336040518363ffffffff1660e01b81526004016107d1929190610df9565b600060405180830381600087803b1580156107eb57600080fd5b505af11580156107ff573d6000803e3d6000fd5b505050507f000000000000000000000000000000000000000000000000000000000000000073ffffffffffffffffffffffffffffffffffffffff1663f5298aca338460016040518463ffffffff1660e01b815260040161086193929190610dc2565b600060405180830381600087803b15801561087b57600080fd5b505af115801561088f573d6000803e3d6000fd5b505050507f000000000000000000000000000000000000000000000000000000000000000073ffffffffffffffffffffffffffffffffffffffff1663f5298aca338360016040518463ffffffff1660e01b81526004016108f193929190610dc2565b600060405180830381600087803b15801561090b57600080fd5b505af115801561091f573d6000803e3d6000fd5b50505050505050565b7f000000000000000000000000000000000000000000000000000000000000000073ffffffffffffffffffffffffffffffffffffffff166394bf804d85336040518363ffffffff1660e01b8152600401610983929190610df9565b600060405180830381600087803b15801561099d57600080fd5b505af11580156109b1573d6000803e3d6000fd5b505050507f000000000000000000000000000000000000000000000000000000000000000073ffffffffffffffffffffffffffffffffffffffff1663f5298aca338560016040518463ffffffff1660e01b8152600401610a1393929190610dc2565b600060405180830381600087803b158015610a2d57600080fd5b505af1158015610a41573d6000803e3d6000fd5b505050507f000000000000000000000000000000000000000000000000000000000000000073ffffffffffffffffffffffffffffffffffffffff1663f5298aca338460016040518463ffffffff1660e01b8152600401610aa393929190610dc2565b600060405180830381600087803b158015610abd57600080fd5b505af1158015610ad1573d6000803e3d6000fd5b505050507f000000000000000000000000000000000000000000000000000000000000000073ffffffffffffffffffffffffffffffffffffffff1663f5298aca338360016040518463ffffffff1660e01b8152600401610b3393929190610dc2565b600060405180830381600087803b158015610b4d57600080fd5b505af1158015610b61573d6000803e3d6000fd5b5050505050505050565b60008115159050919050565b610b8081610b6b565b82525050565b6000602082019050610b9b6000830184610b77565b92915050565b600080fd5b6000819050919050565b610bb981610ba6565b8114610bc457600080fd5b50565b600081359050610bd681610bb0565b92915050565b600060208284031215610bf257610bf1610ba1565b5b6000610c0084828501610bc7565b91505092915050565b600073ffffffffffffffffffffffffffffffffffffffff82169050919050565b6000610c3482610c09565b9050919050565b610c4481610c29565b8114610c4f57600080fd5b50565b600081359050610c6181610c3b565b92915050565b600060208284031215610c7d57610c7c610ba1565b5b6000610c8b84828501610c52565b91505092915050565b610c9d81610ba6565b82525050565b6000602082019050610cb86000830184610c94565b92915050565b60008060408385031215610cd557610cd4610ba1565b5b6000610ce385828601610bc7565b9250506020610cf485828601610bc7565b9150509250929050565b6000819050919050565b6000610d23610d1e610d1984610c09565b610cfe565b610c09565b9050919050565b6000610d3582610d08565b9050919050565b6000610d4782610d2a565b9050919050565b610d5781610d3c565b82525050565b6000602082019050610d726000830184610d4e565b92915050565b610d8181610c29565b82525050565b6000819050919050565b6000610dac610da7610da284610d87565b610cfe565b610ba6565b9050919050565b610dbc81610d91565b82525050565b6000606082019050610dd76000830186610d78565b610de46020830185610c94565b610df16040830184610db3565b949350505050565b6000604082019050610e0e6000830185610c94565b610e1b6020830184610d78565b9392505050565b7f4e487b7100000000000000000000000000000000000000000000000000000000600052601160045260246000fd5b6000610e5c82610ba6565b9150610e6783610ba6565b9250828203905081811115610e7f57610e7e610e22565b5b92915050565b6000610e9082610ba6565b9150610e9b83610ba6565b9250828201905080821115610eb357610eb2610e22565b5b9291505056fea2646970667358221220d6caf0150f6c0b75b3cd9a6afe6069be00efc7a35330bf1c61afacf069763e3364736f6c63430008130033697066733a2f2f516d55537559505878336e785061434a6376634e5075454d53687a507075444c47686e446d6d746d4a6e34454a732f7b69647d",
  "linkReferences": {},
  "deployedLinkReferences": {}
}